S00B00006173702E73726563D5
S31508000000F0F80020010200086102000861020008F9
S315080000106102000861020008610200086102000826
S315080000200000000000000000000000005103000866
S31508000030610200080000000097020008B9EF0008F6
S31508000040B9EF0008B9EF0008B9EF0008B9EF0008E2
S31508000050B9EF0008B9EF0008B9EF0008B9EF0008D2
S31508000060B9EF0008B9EF0008B9EF0008B9EF0008C2
S31508000070B9EF0008B9EF0008B9EF0008B9EF0008B2
S31508000080B9EF0008B9EF0008B9EF0008B9EF0008A2
S31508000090B9EF0008B9EF0008B9EF0008B9EF000892
S315080000A0B9EF0008B9EF0008B9EF0008B9EF000882
S315080000B0B9EF0008B9EF0008B9EF0008B9EF000872
S315080000C0B9EF0008B9EF0008B9EF0008B9EF000862
S315080000D0B9EF0008B9EF0008B9EF0008B9EF000852
S315080000E0B9EF0008B9EF0008B9EF0008B9EF000842
S315080000F0B9EF0008B9EF0008B9EF0008B9EF000832
S31508000100B9EF0008B9EF0008B9EF0008B9EF000821
S31508000110B9EF0008B9EF0008B9EF0008B9EF000811
S31508000120B9EF0008B9EF0008B9EF0008B9EF000801
S31508000130B9EF0008B9EF0008B9EF0008B9EF0008F1
S31508000140B9EF0008B9EF0008B9EF0008B9EF0008E1
S31508000150B9EF0008B9EF0008B9EF0008B9EF0008D1
S31508000160B9EF0008B9EF0008B9EF0008B9EF0008C1
S31508000170B9EF0008B9EF0008B9EF0008B9EF0008B1
S31508000180B9EF0008B9EF0008B9EF0008B9EF0008A1
S31508000190B9EF0008B9EF0008B9EF0008B9EF000891
S315080001A0B9EF0008B9EF0008B9EF0008B9EF000881
S315080001B0B9EF0008B9EF0008B9EF0008B9EF000871
S315080001C0B9EF0008B9EF0008B9EF0008B9EF000861
S315080001D0B9EF0008B9EF0008B9EF0008B9EF000851
S315080001E0B9EF0008B9EF0008B9EF0008B9EF000841
S315080001F0B9EF0008B9EF0008000000000000000091
S3150800020071B6104800B180474FF000000E490F4AFA
S31508000210914204D2086001F104019142FAD30C49D3
S315080002200C4A914208D20C4B0868186001F1040187
S3150800023003F104039142F7D3084800B180470EF052
S3150800024001FFFEE71DDA0008F80000200811022069
S315080002503860010830610108000000200000000035
S31508000260EFF311811EF0040F05D0EFF3098020E9A2
S31508000270024002B501E002B56846784A13680CB434
S31508000280EFF30583764951F8232090470FBC0160A8
S3150800029082F3118818474FF0100080F311887149CE
S315080002A0086858B1EFF309821EF0100F01D122ED4C
S315080002B0108A22E9F00F8261C0F81CE06A480068DB
S315080002C00860A8B1C16901F07F43B3F17F4F1CD123
S315080002D08269B2E8F00F11F0100F01D1B2EC108A62
S315080002E082F309884FF0000071B680F31188084739
S315080002F0EFF309805D494FF0807220E90600A0F10E
S31508000300180080F30988DFF868F1426A52B1594A41
S315080003104FF080738069B0E8F00F20E90E00A0F175
S31508000320140008E08069B0E8F00F4FF0807220E909
S315080003300600A0F1180080F3098848484FF001012B
S315080003400160BFF34F8FDFF828F1BDEC108A7047C4
S3150800035042484FF0000101604FF0000080F3118819
S31508000360A0692946B0E8F00F11F0100F01D1B0ECE2
S31508000370108A80F3098808473F48016881F308888E
S315080003804FF0020080F31488BFF36F8F3B49D1F812
S3150800039014D035490968334A61B617E03249096805
S315080003A0304A13E0EFF3148303F004033BB12DED59
S315080003B0108A4FF0020383F31488BFF36F8F4362EA
S315080003C02DE9F00FC0F81CE0C0F818D0116089B10B
S315080003D0CA6902F07F40B0F17F4F02D10C4615463C
S315080003E000DFD1F818D0BDE8F00F4B6A0BB1BDECB1
S315080003F0108A104719484FF000010160BFF34F8F6C
S315080004004FF0000080F31188BFF34F8F30BFFBE732
S3150800041000BF12484FF000010160BFF34F8F4FF045
S31508000420000080F311880F4801688A685068DFF871
S3150800043050E0D2F808F04FF0000181F31488BFF3BA
S315080004406F8F0EF02DBE00BFA0F1A200002800DCC1
S315080004507047A0F164000028FBDC704748D00120F3
S31508000460F04C010854D00120E0D00120F403000824
S31508000470FDFFFFFF4A030008804F0108AC4F010843
S315080004803DFA000853B94AB9002908BF00281CBF1D
S315080004904FF0FF314FF0FF3001F0F8B8ADF1080C1E
S315080004A06DE904CE00F006F8DDF804E0DDE9022384
S315080004B004B070472DE9F047089E04468846002B8D
S315080004C04BD18A42154667D9B2FA82F24AB1C2F1CD
S315080004D0200701FA02F320FA07F7954047EA0308CE
S315080004E094404FEA154E230CB8FBFEF71FFA85FC1D
S315080004F00EFB178843EA084307FB0CF1994209D912
S31508000500EB1807F1FF3080F01B81994240F2188101
S31508000510023F2B445B1AA4B2B3FBFEF00EFB10336A
S3150800052044EA034400FB0CFCA44509D92C1900F144
S31508000530FF3380F00781A44540F2048102382C4439
S3150800054040EA0740A4EB0C0400271EB1D440002360
S31508000550C6E900433946BDE8F0878B4209D9002E23
S3150800056000F0EB800027C6E9000138463946BDE8A9
S31508000570F087B3FA83F7002F47D18B4202D3824222
S3150800058000F2FA80841A61EB030301209846002ED4
S31508000590E0D0C6E90048DDE702B9FFDEB2FA82F22A
S315080005A0002A40F08F80491B4FEA154E1FFA85F83E
S315080005B00127B1FBFEFC230C0EFB1C1143EA014389
S315080005C008FB0CF1994207D9EB180CF1FF3002D25F
S315080005D0994200F2CD808446591AA3B2B1FBFEF0C7
S315080005E00EFB101443EA044408FB00F8A04507D99B
S315080005F02C1900F1FF3302D2A04500F2B680184646
S31508000600A4EB080440EA0C409FE7C7F1200CBB4066
S3150800061022FA0CFE4EEA030E01FA07F420FA0CF54C
S3150800062021FA0CF34FEA1E482543B3FBF8F92C0CC4
S3150800063008FB19331FFA8EFA44EA034309FB0AF446
S315080006409C4202FA07F200FA07F10BD91EEB0303E4
S3150800065009F1FF3080F087809C4240F28480A9F13E
S31508000660020973441B1BADB2B3FBF8F008FB103349
S3150800067045EA034400FB0AFAA24508D91EEB04041E
S3150800068000F1FF336BD2A24569D90238744440EAB7
S315080006900940A0FB0289A4EB0A044C45C2464B4616
S315080006A054D351D0002E69D0B1EB0A0564EB03048C
S315080006B004FA0CFCFD40FC404CEA0505C6E900546A
S315080006C0002747E7C2F1200320FA03F7954001FA0D
S315080006D002F021FA03F34FEA154E3843010CB3FB37
S315080006E0FEF71FFA85F80EFB173341EA034107FBAD
S315080006F008F38B4204FA02F407D9691807F1FF3C9C
S315080007002FD28B422DD9023F2944CB1A81B2B3FB93
S31508000710FEF00EFB103341EA034100FB08F38B425F
S3150800072007D9691800F1FF3C17D28B4215D9023850
S315080007302944C91A40EA07473BE73746304609E7DE
S315080007400746E7E61846FBE64145ABD2B8EB020A90
S3150800075069EB0E0201381346A4E76046E9E7184636
S3150800076095E76746D1E781467CE702382C4447E798
S31508000770ACF1020C2B442FE7384608E73746E9E682
S3150800078003685A004CBF43F0004323F00043184463
S31508000790704700BF61B32DE9F84F01F1FF3A904663
S315080007A00646D146002707EB090404EBD474641007
S315080007B0E50071190846FFF7E3FFA245834605F1F0
S315080007C00800304409D0FFF7DBFFC34500F1FF30CE
S315080007D005D8404509D2671CE5E7C34505D9A742B0
S315080007E002D004F1FF39DEE700210846BDE8F88F9C
S315080007F008467047012807D0022807D0044B00286E
S315080008000CBF1846002070470248704702487047D8
S31508000810E10E0008E50E0008E90E000830B5254B84
S3150800082083B004468D1E4BB301A92846AFF300805A
S31508000830F0B101992A46FFF7ADFF0146C0B1FFF7AF
S315080008409FFF4B68A064012B2ED0002B01F10400FA
S3150800085026DBFFF795FF0023C4E913030368002B83
S3150800086012DBFFF78DFF00232061184603B030BD69
S31508000870002323610923184603B030BD0E490F48EB
S31508000880091AC9100191D5E7C3F30360FFF7B2FF50
S31508000890002814BF002309232061184603B030BD81
S315080008A00123C4E91303D9E7002323610523184666
S315080008B003B030BD0000000038600108A05B0108E5
S315080008C00368DA0710B5044606D49B0700F148000A
S315080008D009D500F05FFC2368590709D51A070ED514
S315080008E0DB0613D510BD00F04DFC23685907F5D477
S315080008F004F1D00000F056FC23681A07F0D404F57A
S31508000900A87000F057FC2368DB06EBD404F5E87002
S31508000910BDE8104000F092BC036803B103441846D2
S31508000920704700BF09207047704700BF70B504467E
S315080009300D4608E02B6C63612A462369214601208F
S315080009409847082808D1296C2046FFF767FF06460E
S315080009500028EFD010F044FC0728FBD13046296C5C
S31508000960FFF7E2FF281D00F001FC00BF2DE9F04764
S315080009700C1D054617460FCCADF5727D03AE0FC6A6
S315080009800FCC0FC60FCC0FC694E80F0002ACD5F8F3
S315080009900C80D5F8189086E80F000023236021E024
S315080009A0236C6B614FF4F07221467AA810F031FE81
S315080009B02B697AAA294630469847889BCDE900498B
S315080009C08246636431462B462A460120C0470746BD
S315080009D0F8B94FF4F0727AA9204610F01AFEBAF167
S315080009E0080F1CD1216C2846FFF718FF002F08BFF7
S315080009F00926074618BF0A260028D1D0A36B46F059
S31508000A001001CDE900492A46636401202B46C047F8
S31508000A1000B1092738460DF5727DBDE8F087BAF1B1
S31508000A20070FF6D13846216CFFF77EFF03A800F0C2
S31508000A309DFB00BF406C7047F0B5CB6B0B640D1D7A
S31508000A400F4606460FCDF9B001AC0FC40FCD0FC443
S31508000A500FCD0FC495E80F004FF0FF3584E80F005F
S31508000A60009506E033696A463146984708280446E1
S31508000A7008D110993046FFF7D1FE0028F2D0092098
S31508000A8079B0F0BD6846FFF71BFF062CF7D139464B
S31508000A903046FFF74BFF00BF30B4DD6BC1608261A3
S31508000AA019461D64002230BC60E700BF70B5C668F1
S31508000AB043690B64BEB903690A4604460D460146F6
S31508000AC002209847072807D0082803D12946204638
S31508000AD0FFF72CFF10F084FB3046296CFFF724FF44
S31508000AE0281D00F043FB0122FFF740FF10F078FBBA
S31508000AF0C2681AB1CA6B0A64002237E79CE700BFCE
S31508000B00704700BF836813B1014601201847704734
S31508000B10042907D8DFE801F00308060808000BB91E
S31508000B200F2A03D9022070470120704700EB820282
S31508000B3018465368009A1360704700BF10B584B012
S31508000B40002303AC0A4600941946FFF7E1FF039811
S31508000B5004B010BD042907D8DFE801F00308060829
S31508000B6008000BB90F2A03D90220704701207047E5
S31508000B7000EB8200009A126842601846704700BF70
S31508000B8010B584B004AC002344F8042D0A4600943A
S31508000B901946FFF7DFFF04B010BD00BFF0B5D36BF1
S31508000BA01364151D07460E460FCDADF50F7D17AC20
S31508000BB00FC40FCD0FC40FCD0FC495E80F004FF02B
S31508000BC0FF3584E80F00169510E016A8FFF7D8FF42
S31508000BD0314616A8B84716AA694678B9049B08206C
S31508000BE09847052804460AD0092807D02699684652
S31508000BF0FFF714FE6A460C210028E6D0092416A839
S31508000C00FFF75EFE20460DF50F7DF0BD2DE9F04F8E
S31508000C100D46C96C89B00C1D164600F0030B0A6810
S31508000C2006941F46002B68D0130CD9B212048DF80F
S31508000C301D30022304EB810405928DF81C302B6DC0
S31508000C40BBF1020F08BFAC6B13F0010346D1019349
S31508000C5000F008030093D4F80090B9F1000F00F0F3
S31508000C60F380022F45D0B4F80090B4F8028004341B
S31508000C70AB6C28F0010A0F2130469A44FFF75EFF55
S31508000C80824534D829F001035344834294BF002097
S31508000C9001204FEA480808F0020809F0010948EA65
S31508000CA00908B8F1010F3AD031D3B8F1020F1AD1B9
S31508000CB0236823F0004ABBF1000F66D130B1009AD1
S31508000CC0002A6CD0BAF1000F00F09080002B00DAF1
S31508000CD004340AF1010304EB8304BCE7304605A992
S31508000CE000F046FB78B1092009B0BDE8F08F002076
S31508000CF0CFE7D4F804800834BAE712020323059232
S31508000D00ADF81C309BE7082009B0BDE8F08FBBF1B1
S31508000D10000F02D0002840F0B48004349BE7BBF1F2
S31508000D20000F18D1A8B1D4E90023991C4FEAD27252
S31508000D30D9D005F158010133049100F0B580201D82
S31508000D40FFF7EAFD04AB014628460FF013FC00281E
S31508000D5067D108347FE70D213046D5F82080FFF7A4
S31508000D60EDFE8045F5D1AB6A9C42F2D12046FFF7ED
S31508000D7007FD0F2102463046FFF702FF30462A4696
S31508000D800021FFF7FDFE0720AEE70D213046D5F816
S31508000D902080FFF7D3FE804532D0236896E7BAF164
S31508000DA0000F23D005F1580304F10408CDF808B064
S31508000DB0DDF800900397A3461C4602E05745B9465E
S31508000DC040D040460494FFF7A7FD04AB0146002235
S31508000DD028460FF0CFFB09F1010708F1040800289F
S31508000DE0ECD0D1455C46DDE902B7D6D130460D21B7
S31508000DF0FFF7A4FE049B2862C5E90934062073E7B9
S31508000E00AB6A9C42C9D104224FF00008A318C5E971
S31508000E100AA8C5E90C23236843454DDB0123019342
S31508000E2057E780460D213046FFF788FEB8F1020FD6
S31508000E3028623ED12B46049A43F82C2F6B62AC628B
S31508000E40062051E75C46D1E705A9304600F090FA3E
S31508000E5000287FF448AF019B002B3FF454AF0F21C5
S31508000E603046FFF76BFE0E2102463046FFF788FE36
S31508000E7030461A4A0F21FFF783FE072009B0BDE85E
S31508000E80F08F2046FFF77CFC04340746AC632846FF
S31508000E900FF0CEFB00283FF426AF30463A460F2126
S31508000EA0FFF76EFE07201FE730460D21FFF746FEC7
S31508000EB02862049B6B62C2E70AF1010004EB80001A
S31508000EC0FFF75EFC0F2102463046FFF759FE304613
S31508000ED02A464146FFF754FE072005E71B1101087D
S31508000EE0002393E6012391E602238FE62DE9F041DC
S31508000EF00546C4B0042906D8DFE801F04D2B0503E2
S31508000F000900032B5FD0022044B0BDE8F081002B16
S31508000F10F9D1102AF7D82B68DC0600F1F48022AC48
S31508000F202046019200F094F9A86B019A0023012645
S31508000F3006FA03F1114203D0016844F8231004307D
S31508000F400133042BF4D1A863204600F077F900207A
S31508000F50DAE7012B4FEA124697B252D0052BD2D1C7
S31508000F6006EB0708B8F1200FCDD80F2E40F299806E
S31508000F70B846002F40F0DB80AA6BAA630F2E40F21A
S31508000F80BE80B8F1000F02D002A800F00BF90020CD
S31508000F9044B0BDE8F081002BB5D1AC6B97B2281DE3
S31508000FA0012606FA03F1394203F1010302D021684A
S31508000FB001600434102B00F10400F2D112F4005041
S31508000FC0E5D1AC63A0E7160C97B2F319102B9AD8A3
S31508000FD02B681A075DD422AC204600F00DF904EB05
S31508000FE0C601AB6B3FB103EBC702186841F8040BA7
S31508000FF004339342F9D12046AB6300F0DBF80020B6
S3150800100082E7F219102A3FF67EAF0F2E3FF67BAF26
S315080010102A68D10708D5284622F0030240F8482B4B
S31508001020019300F0B3F8019B019322AC204600F02F
S31508001030ADF8A96B019B002F00F095807F0004EBAB
S31508001040C6044FF00008043C01EB870251F8040B74
S3150800105044F8040F9142F9D1B8F1000F0FD002AC51
S31508001060102E314638BF102104EBC101843902EB3A
S31508001070C80452F8040B41F8040F9442F9D1012B25
S315080010807FF47BAF22AC0432AA63204600F07AF8DC
S315080010907DE723F008032B6005F5A87000F0ACF88F
S315080010A099E7B8F1100F2A6843D9D007A8F11008B4
S315080010B00BD5284622F0010242F0020240F8482BDE
S315080010C0019300F06BF82A68019B510725D40F2E6F
S315080010D004D822A8019300F061F8019B019302ACA1
S315080010E0204600F063F8C6F110010029AA6B019B9F
S315080010F0B6DD22AC4F0004EBC6041146A3E722A8CE
S3150800110000F048F83DE723F010032B6005F5E8707A
S31508001110019200F09DF8019A01E7284622F00402A0
S3150800112040F8D02B019300F041F8019BCFE72A68DD
S31508001130CBE7D0070AD5284622F0010242F0020280
S3150800114040F8482B019300F029F8019B019322AC43
S31508001150204600F023F8B846A96B019B002F7FF4C0
S315080011606DAF0A4609E70A468DE700BF00F134016C
S3150800117091E838009C46A6464CF8045D90E8FF0FB7
S31508001180E54600BD90EC210B704700BF80EC210BB3
S31508001190704700BF90EC200B704700BF80EC200B17
S315080011A0704700BFD0EC200B704700BFC0EC200B87
S315080011B0704700BFF0EC0201F0EC0211F0EC0221DE
S315080011C0F0EC0231F0EC0241F0EC0251F0EC026175
S315080011D0F0EC0271F0EC0281F0EC0291F0EC02A165
S315080011E0F0EC02B1F0EC02C1F0EC02D1F0EC02E155
S315080011F0F0EC02F1704700BFE0EC0201E0EC0211EE
S31508001200E0EC0221E0EC0231E0EC0241E0EC0251B4
S31508001210E0EC0261E0EC0271E0EC0281E0EC0291A4
S31508001220E0EC02A1E0EC02B1E0EC02C1E0EC02D194
S31508001230E0EC02E1E0EC02F1704700BFB0FC01818E
S31508001240B0FC0191B0FC01A1B0FC01B1704700BF30
S31508001250A0FC0181A0FC0191A0FC01A1A0FC01B1A8
S31508001260704700BFEC4600B52DE900502DE9FF1F79
S315080012704FF000032DE90C0001A9FFF7DDFBDDF8AF
S3150800128040E012B0704700BFEC4600B52DE90050AB
S315080012902DE9FF1F4FF000032DE90C0001A9FFF708
S315080012A005FCDDF840E012B0704700BFEC4600B51B
S315080012B02DE900502DE9FF1F4FF000032DE90C0022
S315080012C001A9FFF715FCDDF840E012B0704700BF32
S315080012D0EC4600B52DE900502DE9FF1F4FF000033D
S315080012E02DE90C0001ABFFF7D7FBDDF840E012B0A3
S315080012F0704700BFEC4600B52DE900502DE9FF1FE9
S315080013004FF000032DE90C0001AAFFF747FCDDF8B2
S3150800131040E012B0704700BF027A82B9437AABB197
S315080013204268013B10B4437213680321141D01720D
S315080013301A02446002605DF8044B180E7047036891
S31508001340013A02721A020260180E7047B0207047FE
S3150800135000B585B003AA0023009219460C22FFF7B0
S31508001360D7FB039805B05DF804FB00BFF0E700BFA4
S315080013702DE9F043054685B00E464FF00008304685
S31508001380FFF7CAFFB028044600F0B180070620D54B
S3150800139000F0F003802B65D0902B36D0A02B78D0A8
S315080013A0B02B47D0C02B00F08A8000F0F803D02B72
S315080013B00BD100F00702013242F400220523012175
S315080013C02846FFF793FD0028D9D0092005B0BDE8C7
S315080013D0F0830DF10C09002319468700CDF800901B
S315080013E00D222846FFF794FBFFB2039BCDF8009029
S315080013F0043760064CBFDF1BFF18002319460D2271
S3150800140028460397FFF7A6FBB9E700F00D030D2B57
S31508001410DBD003AF002300F00F02194600972846D9
S31508001420FFF776FB0023009719460D222846FFF79B
S3150800143091FBA4E7B1285FD0B22800F0CC80B3288E
S315080014407ED000F0FC03B42BBFD000F007020132B7
S31508001450012342F4002219462846FFF747FD0028D3
S315080014608DD0B2E73046FFF757FF24020443B4F5A0
S31508001470004FAAD024010023A2B219462846FFF736
S3150800148035FD0028A1D114F4004F18BF4FF001080C
S3150800149075E7C24302F007034FF47F621A4101075A
S315080014A002F47F624FF0000348BF42F480421946B7
S315080014B02846FFF71BFD00283FF461AF85E7C628DD
S315080014C051D0C7285AD000F0F803C02B69D0C828D5
S315080014D075D0C9287FF479AF3046FFF71DFF0203A0
S315080014E000F00F0002F470220130024366E7B8F1FB
S315080014F0000F14D0002069E73046FFF70DFF0028DB
S315080015003FF463AF10F0F0037FF45FAF024619466D
S315080015102846FFF7EBFC00283FF431AF55E703AC4C
S3150800152043460E22414600942846FFF7F1FA0094F6
S31508001530284643460F224146FFF70CFB404645E73F
S315080015403046FFF7E9FE010300F00F0001F47021B1
S31508001550421C01230A4328461946FFF7C7FC002800
S315080015603FF40DAF31E73046FFF7D6FE010300F032
S315080015700F0001F47021421C0323EBE73046FFF706
S31508001580CBFE024600283FF420AF10F0F0037FF4AC
S315080015901CAF04212846FFF7A9FC00283FF4EFAE4C
S315080015A013E700F00F020132032342F42022194602
S315080015B02846FFF79BFC00283FF4E1AE05E73046D6
S315080015C0FFF7AAFE00F0F00200F00F031032013315
S315080015D043EA0232F2E600230DF10C090D22194600
S315080015E0CDF800902846FFF793FA3046FFF794FEA9
S315080015F002064FF002070CD5039B00F07F00B840A7
S31508001600034430460393FFF787FE030607F10707EF
S31508001610F2D4039BCDF8009000F07F0403F5017225
S31508001620BC400023144419460D2228460394FFF7AC
S3150800163091FAA4E610B5C36C84B05A6803208DF8F5
S315080016400C00DC798DF80D4012020833084601A912
S3150800165001920293FFF78CFE04B010BD08B5FFF7A0
S3150800166085FE806C08BD00BF08B5FFF77FFEC06C1D
S31508001670C37900EB8300083008BD00BF08B50FF03A
S31508001680AFFD00BF08B5FFF7F9FF00BF704700BF01
S3150800169001F0FF01102A2BDB10F0070F08D010F815
S315080016A0013B013A8B422DD010F0070F42B3F6D119
S315080016B0F0B441EA012141EA014122F007047FF032
S315080016C000070023F0E80256083C85EA010586EA89
S315080016D0010685FA47F5A3FA87F586FA47F6A5FAC5
S315080016E087F68EB9EED1F0BC01F0FF0102F00702D1
S315080016F032B110F8013B013A83EA010313B1F8D17C
S315080017000020704701387047002D06BF354603385C
S31508001710073815F0010F07D1013015F4807F02BF95
S31508001720013015F4C03F0130F0BC0138704700BFE6
S3150800173010F8012B11F8013B012A28BF9A42F7D06D
S31508001740D01A7047034613F8012B002AFBD1181A42
S315080017500138704700B585B001A801F011F910B934
S31508001760DDE902309847002000F008FC05B05DF876
S3150800177004FB00BFFFF7EEBFFFF7ECBFFFF7EABFBA
S31508001780FFF7E8BFFFF7E6BFFFF7E4BFFFF7E2BFE3
S31508001790FFF7E0BFFFF7DEBF0048704700000020F4
S315080017A00920704700487047102401080A2070472E
S315080017B00A20704710B5044601F070F820B9204693
S315080017C000F062FE00B910BD6FF0050010BD00BF45
S315080017D000F030BF0EB400B58AB00BAB02A853F8C0
S315080017E0041B1A46019306F03DFD02A903200BF0DF
S315080017F09BFF0AB05DF804EB03B07047F0B587B0FD
S3150800180007460C46164601F049F8D8B97EB92FB3F3
S31508001810D4B1033403A8ADF80C7024F00304CDE961
S315080018200466ADF80E4000F0D9FC07B0F0BD1321F0
S3150800183005460F4B032000910E4A0F49FFF7CAFFD2
S315080018402846F2E70020F0E719210320084B00910B
S31508001850084A0A49FFF7BEFF2046E6E71621032095
S31508001860034B0091034A0649FFF7B4FF3846DCE705
S31508001870602401082825010898250108E82501089B
S31508001880BC250108F0B583B006460F4615461C462A
S3150800189001F004F800B1C4B92EB387B3C5B9002C5A
S315080018A02346394630462A4614BF6FF001046FF0C6
S315080018B0020400F0E5FC20B1032806D0204603B058
S315080018C0F0BD2C46204603B0F0BD6FF00304F5E7E3
S315080018D05021114B114A032000916FF0030410495F
S315080018E0FFF778FFEAE74A2201960B4B032000929E
S315080018F06FF00304094A0B49FFF76CFFDEE74D2238
S315080019000197054B032000926FF00304034A06492A
S31508001910FFF760FFD2E700BF7424010828250108F5
S31508001920002501089C240108CC240108F0B583B0E1
S3150800193006460F4615461C4600F0B0FF00B114BB1C
S315080019407EB3002F39D00DBB002C234639463046CE
S315080019502A4614BF6FF001046FF0020400F0F8FC89
S3150800196068B103280FD0982201901A4B03200092E1
S3150800197019491A4AFFF72EFF204603B0F0BD2C4638
S31508001980204603B0F0BD6FF00304F5E78721114B3D
S31508001990124A032000916FF003041149FFF71AFF5A
S315080019A0EAE7812201960B4B032000926FF00304AD
S315080019B00A4A0C49FFF70EFFDEE784220197054B1A
S315080019C0032000926FF00304044A0749FFF702FF59
S315080019D0D2E700BF88240108142601082825010833
S315080019E0002501089C240108CC2401080EB400B582
S315080019F08AB00BAB02A853F8041B1A46019306F0EB
S31508001A0031FC02A903200BF08FFE0AB05DF804EB47
S31508001A1003B0704770B582B0064600F03FFFD8B9EC
S31508001A200546142000F006FB0446C8B101212A46E3
S31508001A30084600F065F90346E060E0B1104B256101
S31508001A40A360C4E9005526B17368DB0701D50123F5
S31508001A502361204602B070BD0024204602B070BD46
S31508001A6014211822074B0320CDE90021064A07490D
S31508001A70FFF7BCFFEDE720461C4600F0EDFAE8E765
S31508001A80EBEEADDE30260108E826010854270108EA
S31508001A9070B584B004460E4600F000FF00283DD11C
S31508001AA0002C4AD0A3682A4A93422BD103A800F0F7
S31508001AB001FE0546002834D100F0E0FE2369ABB1EB
S31508001AC06368039A13B12168914218D03146E068D9
S31508001AD000F0ECF9054620B100F0C4FE284604B033
S31508001AE070BD039A0123C4E90023F5E7039A31463A
S31508001AF0E06800F0DBF905460028EDD1F1E701338F
S31508001B006360E9E73C2201930320124B00926FF0D1
S31508001B100305114A1149FFF769FFDFE76FF005056D
S31508001B20DCE7412201900B4B032000926FF002057F
S31508001B30094A0B49FFF75AFFD0E73721054B064AF2
S31508001B40032000916FF003050649FFF74FFFC5E72D
S31508001B50EBEEADDE3C260108E826010898260108CA
S31508001B60C02601086C26010830B585B0044600F089
S31508001B7095FE002834D1002C41D0A368254A93420B
S31508001B8022D103A800F096FD054660BB00F076FE5C
S31508001B902268039B9A4206D06FF0020500F062FEA7
S31508001BA0284605B030BD23692BB16368012B02D9DD
S31508001BB0013B6360F2E7E06800F088F90546002813
S31508001BC0ECD1C4E90000E9E7622201930320124B35
S31508001BD000926FF00305114A1149FFF707FFDFE787
S31508001BE06FF00505DCE7672201900B4B0320009296
S31508001BF06FF00205094A0B49FFF7F8FED0E75D21A9
S31508001C00054B064A032000916FF003050649FFF7C6
S31508001C10EDFEC5E7EBEEADDE4C260108E826010829
S31508001C2098260108C02601086C26010830B583B03D
S31508001C30044600F033FE30BB44B3A368194A934206
S31508001C4015D100F01BFE636833B16FF0020500F092
S31508001C5009FE284603B030BDE06800F0E7F80546FF
S31508001C600028F4D1A060204600F0F6F9EFE78822B4
S31508001C70019303200C4B00926FF003050B4A0C49A5
S31508001C80FFF7B4FEE5E76FF00505E2E78321064BAB
S31508001C90064A032000916FF003050649FFF7A6FEE2
S31508001CA0D7E700BFEBEEADDE5C260108E8260108A3
S31508001CB0982601086C26010800B583B013460C3037
S31508001CC001AA00F01DFC019B002B14BF6FF0010058
S31508001CD0002003B05DF804FB0EB400B58AB00BAB68
S31508001CE002A853F8041B1A46019306F0BBFA02A988
S31508001CF003200BF019FD0AB05DF804EB03B070473A
S31508001D00F0B583B006460F46154600F0C7FDD0B9B4
S31508001D106DB9142000F08EF90446B0B1104B8581D8
S31508001D2005618360C0E90067204603B0F0BD0E2157
S31508001D3004460C4B032000910B4A0C49FFF7CCFFD5
S31508001D40204603B0F0BD0024EEE714211322054B0C
S31508001D500320CDE90021044A0549FFF7BDFFE3E763
S31508001D60EDBEADDE88270108E4270108982501089D
S31508001D705427010830B5044683B00D4600F08EFDA1
S31508001D8034B3164BA2689A4222D178B11DBB00F033
S31508001D9075FD63683BB1013B0025636000F062FD99
S31508001DA0284603B030BD6FF00205F7E701A800F03A
S31508001DB081FC80B900F062FD6368002BEBD1002D31
S31508001DC0F1D029462046019AFFF776FF0546E5E752
S31508001DD06FF00305E4E76FF00205E1E7EDBEADDE5F
S31508001DE038B5E8B1104B82689A4219D1044600F01A
S31508001DF045FDA58965B9D4E90023934205D36FF05B
S31508001E00020500F02FFD284638BD01336360F8E768
S31508001E10002204F10C001146154600F0BBFBF0E762
S31508001E206FF00305EFE700BFEDBEADDE30B583B05A
S31508001E30044600F033FD00BB14B3A368164A934268
S31508001E400FD100F01BFDA58935B16FF0020500F032
S31508001E5009FD284603B030BDA560204600F0FCF811
S31508001E60F5E75C22019303200C4B00926FF0030503
S31508001E700B4A0C49FFF730FFEBE76FF00505E8E77B
S31508001E8057220194054B032000926FF00305044A7C
S31508001E900549FFF721FFDCE7EDBEADDE982701080F
S31508001EA0E427010898260108AC270108436830B4DE
S31508001EB01BB941B130BCFFF7FFBE0446013B002009
S31508001EC0636030BC70476FF00200FAE708B5034656
S31508001ED0808930B9D3E900128A420AD201325A609F
S31508001EE008BD002203F10C00114600F053FB002048
S31508001EF008BD6FF0020008BD0EB400B58AB00BAB82
S31508001F0002A853F8041B1A46019306F0ABF902A976
S31508001F1003200BF009FC0AB05DF804EB03B0704728
S31508001F2070B584B005460E4600F0B8FC88B904467C
S31508001F303146284600F0E4FC70B9284603A900F0AB
S31508001F40FFFC30B9039800F0CFFB10B9039804B032
S31508001F5070BD002004B070BD1022032001950092C8
S31508001F60034B044A0449FFF7C7FF2046EFE700BFC3
S31508001F705028010870280108D828010810B584B02F
S31508001F80044600F08BFCA0B903A800F093FB98B9AF
S31508001F9024B900F0C1FB204604B010BD2C21032053
S31508001FA00B4B00910B4A0C49FFF7A6FF6FF0030095
S31508001FB0F2E76FF00500EFE728220190044B0320B3
S31508001FC000920649034AFFF797FF6FF00300E3E71D
S31508001FD05C2801087028010804290108C0260108A0
S31508001FE0054A06491368184488428CBF4FF0FF33E8
S31508001FF010601846704700BF6C00002008110220C8
S315080020004FF0FF30704700BF4FF0FF30704700BFFA
S315080020104FF0FF30704700BF4FF0FF30704700BFEA
S315080020204FF0FF30704700BF4FF0FF30704700BFDA
S315080020300020704710B5044600F030FC48B900F09F
S315080020401DFC20460FF0C6FA044600F00BFC20469D
S3150800205010BD0024204610BD10B5044600F01EFC35
S3150800206004B100B110BD00F009FC20460FF0BAFA21
S31508002070BDE8104000F0F6BB4368C1E900114BB15A
S315080020805A68C1E900325A681160596003880133F9
S31508002090038070470388416001330380704700BF9F
S315080020A0426892B1038870B4013BD1E900549BB2EF
S315080020B025600E687460038023B18A4208BF4560B4
S315080020C070BC7047436070BC70477047426882B105
S315080020D003881168013B9BB230B4002B5468216019
S315080020E008BF194615686C6003804160104630BC0D
S315080020F070471046704700BF2DE9F04FB0F800B0A2
S3150800210083B04468BBF1000F3DD09A4601928846D9
S315080021100746002515E07E60D8F80420C4E9004487
S31508002120002A2DD05168C4E9002151680C6054601A
S31508002130B8F800200132A8F8002001354C46AB4516
S3150800214021D051462046019BD4F800909847002894
S31508002150F3D079680029DFD03E88D4E90030013E03
S315080021600360B6B2226850603E80002ED3D0A142EA
S3150800217008BF7B60D8F80420C4E90044002AD1D1FE
S31508002180C8F80440D4E703B0BDE8F08F2DE9F04164
S31508002190B0F800804068B8F1000F09D017460E461F
S315080021A00024013439460568B047A0452846F8D1C9
S315080021B0BDE8F0810EB400B58AB00BAB02A853F89F
S315080021C0041B1A46019306F04DF802A903200BF0EA
S315080021D0ABFA0AB05DF804EB03B0704703882DE943
S315080021E0F0471D01478882B0064605F1280203FB21
S315080021F007273846FFF71EFF044670B37388002288
S31508002200318800F128061A4863802180606022829E
S3150800221062612281E2602283E26122846262C1B144
S31508002220914604F11008B246174600E0638809FB98
S3150800223003535146AAF808704046334409F1010988
S315080022400AF1100A4AF8043CFFF716FF23884B45A3
S31508002250ECD8204602B0BDE8F08716220197054B58
S31508002260032000920449054AFFF7A4FFF1E700BFDF
S31508002270ADBEAFDEFC290108542701083029010844
S315080022802DE9F0412D4A9846436884B0934231D1EE
S3150800229004460F4600F002FBE0B100F0EFFA04F145
S315080022A00800FFF713FF0646002837D0628838462D
S315080022B0F1680FF0AEF90022314604F1200000F073
S315080022C069F9054620B3002500F0CCFA284604B083
S315080022D0BDE8F08103A800F0EDF905460028DCD03A
S315080022E04D220190164B032000921649164AFFF715
S315080022F061FF09E047220320019300920546104B2F
S31508002300114A1249FFF756FF284604B0BDE8F08186
S31508002310314604F11000FFF7AFFED5E7B8F1000F1C
S3150800232001D10425D0E702464146039B04F1180073
S3150800233000F0E6F806460028F3D0B7E7ADBEAFDEF4
S31508002340182A0108D429010830290108AC290108EE
S315080023502DE9F0412D4A9846436884B0934231D11D
S3150800236004460F4600F09AFAE0B100F087FA04F145
S315080023701000FFF7ABFE0646002837D039466288BC
S31508002380F0680FF046F90022314604F1180000F013
S3150800239001F9054620B3002500F064FA284604B082
S315080023A0BDE8F08103A800F085F905460028DCD0D1
S315080023B078220190164B032000921649164AFFF719
S315080023C0F9FE09E072220320019300920546104B9C
S315080023D0114A1249FFF7EEFE284604B0BDE8F0811F
S315080023E0314604F10800FFF747FED5E7B8F1000FBC
S315080023F001D10425D0E702464146039B04F120009B
S3150800240000F07EF806460028F3D0B7E7ADBEAFDE8B
S31508002410342A0108D429010830290108AC29010801
S3150800242080680B68C01AB0FA80F04009704700BF90
S315080024300B6801218361806800F074B908B5C36828
S31508002440013309D003460868D3E9041200F008F9F5
S31508002450003018BF012008BD002008BD0EB400B525
S315080024608AB008490CAB02A81A46019305F0FAFE91
S3150800247002A903200BF058F90AB05DF804EB03B083
S31508002480704700BFE02A0108F0B58BB0064602A8DF
S3150800249000F010F90446F0B9029F03AD069600F065
S315080024A0C9F83146079000F0D9F80597CDE9080430
S315080024B0CDE9035500F0E2F929460D48FFF7DCFDA2
S315080024C000F0D0F9012000F093F9012000F058F946
S315080024D020460BB0F0BD23220190064B0320009244
S315080024E00549064AFFF7BAFF099C20460BB0F0BD1E
S315080024F0F8000020C82A0108E02A0108502A010825
S315080025002DE9F0438BB00F4600269946054603ACE5
S3150800251006919046029600F08DF83946079000F02D
S315080025209DF8CDF81490CDE90806CDE90344FDB130
S3150800253069462846FFF7A0FD21461548FFF79CFD8A
S3150800254000F090F9012000F053F9012000F018F985
S3150800255000F094F969462846FFF7A2FDB8F1000F86
S3150800256002D0099BC8F8003002980BB0BDE8F0838A
S3150800257021460748FFF780FD00F074F9012000F0B6
S3150800258037F9012000F0FCF800F078F9E6E700BF1B
S31508002590F800002010B5406884B00192B0B100245C
S315080025A000F114034262816002A9094A0948ADF89C
S315080025B008400394FFF7A0FD00F054F902A801AA09
S315080025C00549FFF7E3FD00F059F9012004B010BDF5
S315080025D021240008F80000203124000830B5002323
S315080025E085B00422104CADF808300393019200F030
S315080025F027F863689BB104AD00F01CF845F8100D88
S3150800260000F03CF9204602A9084A2B46FFF774FD5C
S3150800261000F028F902A801AA0549FFF7B7FD00F05E
S315080026207BF805B030BD00BFF80000203D24000847
S3150800263031240008014B1868704700BF00010020CC
S31508002640024A136801331360704700BF0001002077
S31508002650014B1868704700BF000100200844704706
S3150800266091420AD8814294BF01210021824298BF33
S31508002670002181F0010210467047824294BF012270
S315080026800022814298BF0022104670470EB400B55A
S315080026908AB00BAB02A853F8041B1A46019305F03F
S315080026A0E1FD02A905200BF03FF80AB05DF804EB3E
S315080026B003B0704710B584B0044603A80DF0BAFC01
S315080026C018B9039B236004B010BD00900E23044A7A
S315080026D005200449FFF7DAFF022004B010BD00BF49
S315080026E02C2B0108002B010800B583B00DF0E2F889
S315080026F010B903B05DF804FB00901823044A0520BE
S315080027000449FFF7C3FF032003B05DF804FB00BFCD
S31508002710382B0108002B010808B50DF08FF90020A9
S3150800272008BD00BF70B584B00D46064603A900F083
S31508002730B7F8044648B90DF03BFD294603980DF055
S31508002740F7FA68B9204604B070BD019029230096AF
S315080027500520084A0849FFF799FF204604B070BDCE
S3150800276000903523034A052004490324FFF78EFF0A
S31508002770E8E700BF482B0108102B0108002B0108C9
S3150800278030B585B0054603A80DF054FCB8B902A9C2
S31508002790039800F085F8044638B9E94302980DF025
S315080027A037FBB8B9204605B030BD009046230E4A1F
S315080027B005200E49FFF76AFF204605B030BD022402
S315080027C000904123084A05200849FFF75FFF204685
S315080027D005B030BD00904B23034A05200349032466
S315080027E0FFF754FFDEE700BF542B0108002B010852
S315080027F030B587B0054604A80DF01CFCC8B903A976
S31508002800049800F04DF8044648B9294605AB01225C
S3150800281003980DF037FBB8B9204607B030BD0090D5
S315080028205D230E4A05200E49FFF730FF204607B004
S3150800283030BD022400905823084A05200849FFF7AE
S3150800284025FF204607B030BD00906223034A0520C5
S3150800285003490324FFF71AFFDEE700BF602B0108D0
S31508002860002B0108044A1378013BDBB2137003B14D
S3150800287070470DF00FBC00BF0401002010B5044CD2
S31508002880237813B90DF0F2FB23780133237010BDBA
S315080028900401002002200DF00DB800BF0DF088BC21
S315080028A02DE9F04106468846FEF77CFF0546FEF709
S315080028B07DFF78B12B689E4216D005F108020023E9
S315080028C003E055F83340B4420FD0013317460832B7
S315080028D09842F6D1094B1A6896420CD15B680020DB
S315080028E0C8F80030BDE8F0812F467B680020C8F89C
S315080028F00030BDE8F0810320F4E700BF6C2B010827
S3150800290070B50E460546FEF74BFF0446FEF744FF34
S31508002910002C0FDD43689D420ED000F10C03002207
S3150800292003E053F8081CA94206D0013218460C33B6
S315080029309442F6D1032070BD8660002070BD00BFAA
S3150800294070B50E460546FEF72BFF0446FEF724FF34
S31508002950002C0FDD43689D420ED000F10C030022C7
S3150800296003E053F8081CA94206D0013218460C3376
S315080029709442F6D1032070BD03680020336070BD11
S31508002980F0B583B00746FEF70BFF0546FEF704FFD2
S31508002990044601A8FFF78EFE064688B9002D0EDD0F
S315080029A00198236883420ED02346324602E019680E
S315080029B0814208D001320C3395421C46F7D10326D2
S315080029C0304603B0F0BD94E8070087E807003046B4
S315080029D003B0F0BD0B460022042110B50446184684
S315080029E0FEF70CFFB0FA80F320605B09584210BD71
S315080029F010B582B00023006802AC1A4644F8041DDC
S31508002A002146FEF793FF003018BF0120404202B06E
S31508002A1010BD00BFF8B5154606460F46FEF7D8FEA8
S31508002A20044655B12B46394630680022FEF72AFF80
S31508002A3070B9FEF7CDFE001BF8BD2A4639464FF0A1
S31508002A40FF333068FEF71EFFFEF7C2FE001BF3E7F2
S31508002A504FF0FF30F8BD00BF0068003018BF0120F6
S31508002A60704700BF38B5054600224FF6FF700C4682
S31508002A70FFF746F9286038B10CB1002038BD214669
S31508002A80FFF778F9204638BD4FF0FF3038BD00BF54
S31508002A9070B50E460446FEF79BFE054656B94FF03E
S31508002AA0FF312068FFF766F90028F8D1FEF790FE97
S31508002AB0401B70BD31462068FFF75CF90028F5D049
S31508002AC04FF0FF3070BD00BF0068FFF789B900BF3F
S31508002AD00068FFF7ABB900BF0068003018BF0120D7
S31508002AE0704700BF08B50020FEF794FF014B186039
S31508002AF008BD00BF5C3D012010B504460020FEF766
S31508002B0089FFB0FA80F320605B09584210BD00BF08
S31508002B100068FFF78BB800BF00684FF0FF31FEF77B
S31508002B20B7BF00BF0068FFF71FB800BF2DE9F04127
S31508002B308AB090460F4606462022002102A81D4666
S31508002B40109C0EF08AFD414601AA38460196CDE949
S31508002B500654FFF7E5F90AB0BDE8F08108B5044B5D
S31508002B604FF0FF311868FEF793FF012008BD00BF3C
S31508002B705C3D0120014B1868FEF7F6BF5C3D01205D
S31508002B800EB400B58AB008490CAB02A81A460193E0
S31508002B9005F068FB02A905200AF0C6FD0AB05DF833
S31508002BA004EB03B0704700BF3C2C010843890E2B89
S31508002BB070B504461FD9C37B0D461BB991F834304E
S31508002BC00133C373606803788689D9070AD5012B50
S31508002BD030D006221D490EF00DFD18B9637B43F06F
S31508002BE008036373082E0BD0B6F5C16F03D195F8A9
S31508002BF031301B0713D4204600F056FA002070BD6A
S31508002C0095F831301A07F6D50E21204600F00EFA4F
S31508002C100028F0D12946204602F00EFFEEE70E21E5
S31508002C20204600F003FA0028E5D12946204602F09E
S31508002C3029FBE3E74378002BD4D183785E2BD1D1E7
S31508002C40637B43F010036373CCE700BF742B010862
S31508002C502DE9F04182B00C4605461646BDF820001F
S31508002C601F4601F0E9FA0E218046204600F0DAF9FF
S31508002C7000BB6168A1F80C803B680B60BB888B8041
S31508002C803368C1F80630B3884B8195F83030062B87
S31508002C9006D12146AB69284602B0BDE8F04118477F
S31508002CA0074940F23313074A052000910649FFF702
S31508002CB067FFEEE76FF0010002B0BDE8F08100BFE4
S31508002CC0B02B01087C2B01083C2C01080EB400B57A
S31508002CD08AB008490CAB02A81A46019305F0C2FA55
S31508002CE002A905200AF020FD0AB05DF804EB03B03E
S31508002CF0704700BF3C2C010880B5324884B0FFF706
S31508002D000BFF314B1B6813B1304A10689847DFF840
S31508002D10CC802C4D2E4E2F4F10E068B12846FFF779
S31508002D2001FF224603A93046FFF774FE04462846EB
S31508002D30FFF7F2FE013411D101F0A0FE01F0C2FE48
S31508002D40431C0446E9D12846FFF7ECFE002203A9F6
S31508002D503046FFF75FFE2846FFF7DEFE039C3CB3CE
S31508002D602378012B06D016D3022B0BD1D4E90130D8
S31508002D709847E3E7D4E9013098472146052001F052
S31508002D806DFFDBE7CDF80080CF233A4612490520D0
S31508002D90FFF79CFFD2E7D4E902136068984710B1A1
S31508002DA0606800F081F92146062001F057FFC5E763
S31508002DB0CDF8008091233A4607490520FFF786FF9C
S31508002DC0BCE700BF603D0120080100200C0100207F
S31508002DD010010020CC2C01083C2C0108EC2C010821
S31508002DE0F0B5074683B015480E461546FFF734FE7C
S31508002DF080B1062001F012FF0446A0B10023014667
S31508002E00C5600370C0E901760C48FFF7F1FD68B9A3
S31508002E1003B0F0BD0A49FC230A4A052000910A4975
S31508002E20FFF754FFE5E74FF0FF30F1E706202146AC
S31508002E3001F014FF4FF0FF30EAE700BF1001002051
S31508002E40EC2C0108BC2C01083C2C010891F8313007
S31508002E5013F0180F02D1034AFFF7C2BF024AFFF761
S31508002E60BFBF00BF395A0008AD2B000830B583B084
S31508002E7005460C4601F038FE154A0621154B16483C
S31508002E8015601C60FFF7A6FDB8B91448FFF734FEB5
S31508002E9040B1134940F26523124A052000911249B0
S31508002EA0FFF714FF03204FF4806300220F490090B8
S31508002EB00F48FFF73BFE03B030BD094940F26123D6
S31508002EC00C4A052000910849FFF700FFDDE700BF1F
S31508002ED0080100200C01002010010020603D01209F
S31508002EE0EC2C0108882C01083C2C0108F92C000858
S31508002EF0AC2C0108642C01080EB400B58AB0084948
S31508002F000CAB02A81A46019305F0ACF902A90520F4
S31508002F100AF00AFC0AB05DF804EB03B0704700BF7C
S31508002F203C2C010830B583B018B3B1F5803F1CD2EC
S31508002F3091B18CB2038923449BB29C4215D890F96F
S31508002F400C50002D0BDB82B14268521A45890021CC
S31508002F5042602C4403814481084603B030BD426870
S31508002F6000F11005521AAA42F0D20121084603B010
S31508002F7030BD064940F2DF13054A05200091054990
S31508002F80FFF7BAFF0121084603B030BD782D0108C6
S31508002F906C2D01083C2C010822F04003012B70B56A
S31508002FA0144682B006460D460FD1092001F036FEBA
S31508002FB048B10023012246600581458104730360F8
S31508002FC04373C373827302B070BD05494FF4A5738A
S31508002FD0044A052000910449FFF78EFFE5E700BF84
S31508002FE0782D0108142E01083C2C0108033020F026
S31508002FF0030070B40E18BDF81050039CAE420FD8EB
S3150800300004B10444184602260023012544600181C0
S3150800301041810273467385730360C37370BC70473E
S315080030200020FBE70022FFF77DBF00BF30B583B065
S31508003030B8B1B1F5803F10D261B18AB243899342E3
S315080030401CD345689B1A04890D440021A21A4381A2
S3150800305045600281084603B030BD0121084603B029
S3150800306030BD094940F24B23084A0091052008491A
S31508003070FFF742FF0121084603B030BD024940F27E
S315080030805523044AF1E700BF782D01086C2D010885
S315080030903C2C0108483001080B1E02DB0122FFF711
S315080030A041BF5942FFF7C2BF2DE9F043054683B039
S315080030B000285DD00026DFF8E080DFF8E490334F83
S315080030C008E02B69002B43D0284698470136254649
S315080030D0F6B2FCB1FFF742FDAB7B0446F3B1013B08
S315080030E02046DCB2AC73FFF745FD9CB96B7B2C68B8
S315080030F09B07E6D42B7B03F00F03022B23D0012B6F
S3150800310031D0B3B90136284600F0F2FB2546F6B2AF
S31508003110002CDFD1304603B0BDE8F08340F2F1233E
S31508003120CDF800804A4639460520FFF7E5FEAB7B19
S31508003130D5E7CDF8008040F20F33154A3946052009
S31508003140FFF7DAFEC2E729460A2001F087FDBDE748
S3150800315040F2FF23CDF800800E4A39460520FFF7D6
S31508003160CBFE2B69B0E72946092001F077FDADE7CC
S3150800317009492E464FF43773084A0091052003493A
S31508003180FFF7BAFE304603B0BDE8F0833C2C0108D1
S31508003190D42F0108B02F0108782D01086C2D0108DD
S315080031A0982F0108412A2DE9F0430F4683B069D0CC
S315080031B058D9B2F5C17F1FFA80F926D0B2F5207F1B
S315080031C052D109F10303CA1C054622F0030223F073
S315080031D0030313449BB203F11000934280B258D301
S315080031E0824256D800F040FD044650B105440022FC
S315080031F02E4B13350781478125F003050260C3600E
S315080032004560204603B0BDE8F0834FF00008284E1D
S315080032104446454608E0C8F80000FB1A88464FF0C1
S3150800322000099FB2002FECD00A2001F0F7FC09F143
S3150800323003020146002831D022F0030381440560C9
S31508003240C3F5487309F1130207819BB222F0030202
S31508003250C660BB42426028BF3B464381002CDAD198
S315080032600446DAE7012A0DD01249002440F2271352
S31508003270114A009105201149FFF73EFE204603B08A
S31508003280BDE8F0833946002003B0BDE8F043FFF7F8
S3150800329083BE0024204603B0BDE8F083002CF8D096
S315080032A020460C46FFF700FFABE700BF8000010091
S315080032B082000100782D0108F82D01083C2C010830
S315080032C02DE9F0430D4683B00446002848D02689E8
S315080032D0AE422AD9761BDFF8A090DFF8A880B6B2EE
S315080032E0244F6189A94213D22389691A9B1B8DB27F
S315080032F023812468002CF4D13946CDF8009040F299
S31508003300AF1342460520FFF7F7FD6189A942EBD3C3
S31508003310237B1A0701D1A9420AD120686581258134
S3150800332008B1FFF7C1FE0023236003B0BDE8F083B0
S31508003330637B9B07F1D4636820461C1B291989B255
S3150800334000F0CAFB04460028E7D10B4940F2BD133A
S315080033500A4A052000910749FFF7CEFD6481FFDE82
S3150800336005494FF4CC73064A052000910149FFF739
S31508003370C3FDACE73C2C0108782D0108183001087C
S31508003380E82F01080030010838B10023013300682E
S315080033909BB20028FAD1184670470346184670476C
S315080033A0C0B110B5044682B0FFF7D8FBA37B013342
S315080033B0A373FFF7DFFBA37B0BB102B010BD064971
S315080033C040F24233054A052000910549FFF794FD6E
S315080033D002B010BD704700BF782D010834300108CF
S315080033E03C2C010870B582B000282BD00D4649B395
S315080033F004680CB931E014460389298922680B440C
S3150800340003812046002AF6D1638922899A4213D07D
S31508003410154E40F26233154A052000961449FFF707
S315080034206BFD23683BB1009640F26333114A0520D1
S315080034300F49FFF761FD23892A89256013442381F3
S3150800344002B070BD084940F25A330B4A0520009174
S315080034500749FFF751FD02B070BD0446638922890A
S315080034609A42D5D1E8E700BF782D0108602E0108F9
S315080034703C2C0108902E0108282E010810B50C4690
S31508003480FFF7B0FF2046BDE81040FFF789BF00BF31
S315080034902DE9F04F83B0002800F09180B1FA81F64B
S315080034A00F467609002E40F08A80028905460B8968
S315080034B09A42C0F084804389B0464C89DFF808A157
S315080034C0DFF81CB1DFF80891A3EB0803A41B6868B2
S315080034D09C427968404428BF1C4631442246A04491
S315080034E00EF097F86B892644984543D87B899E4207
S315080034F035D89E4201D33F6800266B89984512D07D
S31508003500002F43D07C893B899C4217D06B892A8936
S315080035109A42D9D12A68002A3FD1002FD4D1002057
S3150800352003B0BDE8F08F2D680DB9002F39D15FB310
S315080035307C894FF000083B899C42E7D13B68002B09
S31508003540E4D0214940F2EA33009105201F4A204978
S31508003550FFF7D2FC6FF0050003B0BDE8F08F40F22C
S31508003560DA33CDF800A01B4A49460520FFF7C4FC0C
S315080035707B89BEE7CDF800A040F2D9335A464946C2
S315080035800520FFF7B9FCB1E7002DC8D02A896B8959
S315080035909A42C4D128680028C2D00B4940F2EF33BA
S315080035A0D2E709494FF479730B4A00910520084977
S315080035B0FFF7A2FC6FF00F0003B0BDE8F08F0249D9
S315080035C040F2CA33054AF0E7782D0108282F01088A
S315080035D03C2C0108FC2E0108182F0108B42E0108FE
S315080035E0E42E01082DE9F041054682B070B30F4676
S315080035F0002939D09046002A44D0002609E09A428C
S31508003600A3EB020109D88BB22D68B8F1000F19D0C7
S31508003610C5B1B8196A89002BF1D1D41A6968A4B260
S315080036201944444528BF444622462644A8EB0404C8
S315080036300DF0EFFFB6B200231FFA84F82D68B8F133
S31508003640000FE5D1304602B0BDE8F08110492E469C
S3150800365040F20A430F4A009105200F49FFF74CFC38
S31508003660304602B0BDE8F08109493E4640F20B43B8
S315080036700A4A009105200849FFF73EFC304602B089
S31508003680BDE8F0811646304602B0BDE8F08100BFBD
S31508003690782D0108542F01083C2C0108742F0108C5
S315080036A02DE9F04F83B0002854D00F46002945D0A5
S315080036B0038990460446934234D37AB315460026C6
S315080036C0DFF8B4A0DFF8A0906389B9196068AB4247
S315080036D028BF2B469B461A461E440DF09AFFB5EBAB
S315080036E00B0524680BD0002CEED11D4B52464946DB
S315080036F00520009340F2BD43FFF7FEFBE4E7B04523
S315080037000CD0174905204FF49963164A00911649BB
S31508003710FFF7F2FB284603B0BDE8F08F002003B0A0
S31508003720BDE8F08F0E49052040F2B5430F4A0091D7
S315080037300D49FFF7E1FB4FF0FF30ECE7084940F28F
S31508003740B4430B4A052000910749FFF7D5FB6FF0F4
S315080037500F00E0E7024940F2B343064AF2E700BF2A
S31508003760782D0108D43001083C2C01089C3001084A
S315080037708030010868300108BC30010880B3F8B50C
S31508003780044640890E461546834203D20AE06089FC
S31508003790984207D81B1A24689BB2002CF7D14FF021
S315080037A0FF30F8BD21895A199142F8DB62896068B1
S315080037B0D21A1844AA420DDA97B231463A460DF0A3
S315080037C028FFE81B82B24AB1F1192068BDE8F84023
S315080037D0FFF766BF2A4631460DF01BFF0020F8BDED
S315080037E04FF0FF30704700BF30B5144683B00A4625
S315080037F02189FFF7D7FC054660B12146FFF748FE49
S3150800380040B1064940F22453054A0520009105496E
S31508003810FFF772FB284603B030BD00BF782D0108BC
S31508003820A02E01083C2C010800B9704710B582B0DB
S315080038300446002101A8FFF715F908B102B010BD2A
S31508003840214601A8FFF724F901A8FFF741F902B0BC
S3150800385010BD00BF0EB400B58AB008490CAB02A86B
S315080038601A46019304F0FEFC02A9052009F05CFF44
S315080038700AB05DF804EB03B0704700BF3C2C0108A2
S31508003880134B002213494FF0042023F0030370B5AD
S315080038904FF480660125104C82B00B6099191A7195
S315080038A00E4AC3F800041E600D4883F804542360CA
S315080038B01160FFF721F940B10A4940F21F230A4A6D
S315080038C0052000910949FFF7C5FF02B070BD00BF8A
S315080038D0673D01201C010020140100202001002062
S315080038E01801002020320108043201083C2C010886
S315080038F008B383072DE9F043044683B01CD1684E0C
S31508003900A0F108053368AB4205D8664F00F10C03F1
S315080039103A689A4215D2644940F27F23634A009175
S3150800392005206349FFF796FFFFF718F903B0BDE8CE
S31508003930F043FFF71FB970475B4940F273235D4AAE
S31508003940EDE75D48FFF7E8F814F8043C002B6BD068
S3150800395034F8062C34F8083CB2F5806F02D8B3F573
S31508003960806F0CD9504940F29523544A009105209E
S315080039704F49FFF76FFF5048FFF7D4F8D4E731688F
S31508003980681A80B2904202D08A5A8242EAD1CA188C
S31508003990D7F800C0624502D052888242E2D1DFF8E9
S315080039A034810020D8F8002004F8040CAA4201D972
S315080039B0C8F800508D423CD3654565D23268134439
S315080039C09D4214D0197991B939688B420FD0D8F82D
S315080039D000108B42198824F8081C1B8808BFC8F8F1
S315080039E00050B3F5806F02D01344A91A598034F8F1
S315080039F0061C53189D4211D0187978B9D8F80000DA
S31508003A00854208BFC8F8003034F8083C535234F8E9
S31508003A10083CB3F5806F01D01A445180264803B09C
S31508003A20BDE8F043FFF77EB81F494FF42373244AD5
S31508003A309CE7DFF8749040F2DF13224A0520CDF8A0
S31508003A4000901B49FFF706FF3B689D421ED214F8FB
S31508003A50043C43B1CDF8009040F2E1131A4A052020
S31508003A601349FFF7F7FE34F8083CB3F5806FA5D97C
S31508003A704FF4F273CDF80090144A05200C49FFF76D
S31508003A80E9FE34F8083C99E7DFF81C90CDF8009079
S31508003A904FF4F0730E4A05200549FFF7DBFED6E71B
S31508003AA01C010020200100202032010810310108E5
S31508003AB03C2C0108EC30010818010020543101089B
S31508003AC02C31010888310108BC310108D8310108B8
S31508003AD0A031010814010020CB1C23F003039BB27C
S31508003AE00C2B2DE9F0431D4638BF0C2583B0A9429F
S31508003AF070D8B3F5806F6DD8DFF868810446D8F8BA
S31508003B00003083423FD84F4A126882423BD9A4F11B
S31508003B10080634F8087CF31A083F9EB2BF1BBFB2EA
S31508003B20AF4249D344D04848FEF7F6FF34F8082C8C
S31508003B30D8F8003003EB020999F8041000294BD194
S31508003B40B2F5806F63D008354048B9F8007035443F
S31508003B500168ADB249454FF0000103EB050208BF05
S31508003B60026017805680117124F8085C1288B2F535
S31508003B70806F01D013445D803348FEF7D3FF20469B
S31508003B8003B0BDE8F083324940F2D223314A05201A
S31508003B9000913149FFF75EFED8F80030A34203D8FA
S31508003BA0284A1268A242B2D8FEF7D8FFFEF7E2FF0B
S31508003BB0204603B0BDE8F083254900244FF4397345
S31508003BC0264A009105202449FFF744FE204603B003
S31508003BD0BDE8F0830024EBE705F11401B942CBD820
S31508003BE00835B2F5806F3544ADB21CD0174859195F
S31508003BF007680A808F424E8088BF016000200871DE
S31508003C0024F8085C0A88B2F5806FB3D1B4E7104986
S31508003C1040F2F523124A052000910F49FFF71AFED4
S31508003C20D8F800308FE70A4940F216330C4A0520C7
S31508003C3000910949FFF70EFED8F8003034F8082C31
S31508003C40D4E700BF2001002018010020140100203D
S31508003C5020320108243301083C2C01083C330108B2
S31508003C605C3301081C010020002800F08980C31C71
S31508003C7023F003039BB20C2B2DE9F047984638BF77
S31508003C804FF00C0882B0804576D3B3F5806F73D8B1
S31508003C90514EC8F58069514F5148FEF73DFFD6F899
S31508003CA000C03868ACEB0005ABB299451D4611D982
S31508003CB06FF0070AC418AAEB0302C15A94F804E085
S31508003CC00B460A44BEF1000F01D1424509D24B45C5
S31508003CD01D46EFD34248FEF725FF002002B0BDE897
S31508003CE0F08708F114039A4225D2012308F108083F
S31508003CF02371A4453B4D4ED03948A044FEF712FF28
S31508003D002B6843453DD3A30710D0374D4FF46F7347
S31508003D10364A052036490095FFF79CFD009540F286
S31508003D20BE33344A32490520FFF794FD04F10800F2
S31508003D3002B0BDE8F08708F1080805EB08091FFA84
S31508003D4089F9B9F5806F3BD000EB09034FF0000CF9
S31508003D50012283F804C020F809105D80A4F80090B9
S31508003D60227130F80930B3F5806F23D01844D6F89D
S31508003D7000C0A0F80290BCE7002002B0BDE8F087BA
S31508003D807047194940F2BA331B4A05200091184971
S31508003D90FFF760FDB7E72968A1420ED038682346C9
S31508003DA001E099420AD01B8803441A79002AF8D1FF
S31508003DB03360A1E7D6F800C09BE7214631609BE750
S31508003DC00949052040F287330C4A00910849FFF754
S31508003DD041FD21883868B7E7140100201C0100203E
S31508003DE0180100202001002020320108D0320108E5
S31508003DF03C2C010800330108A03201085C33010895
S31508003E006FF00B00704700BF0EB400B58AB00849C2
S31508003E100CAB02A81A46019304F024FA02A905205D
S31508003E2009F082FC0AB05DF804EB03B0704700BFE6
S31508003E303C2C010830B50D4683B00446B0B194F861
S31508003E40313003F00502052A01D003B030BDE90779
S31508003E50FBD56268002AF8D01A0711D49B06F4D558
S31508003E60204603B0BDE8304002F0CCB8084940F21D
S31508003E706D33084A052000910749FFF7C5FFDEE7BD
S31508003E80211D204601F034FC94F83130E6E700BFE6
S31508003E9028340108043401083C2C010870B505468D
S31508003EA084B016460C46B1B16B6822689A420FD0A8
S31508003EB004A93360304641F8042D00F01BFD236841
S31508003EC0284601216B60FFF7B5FF012004B070BDDD
S31508003ED0002004B070BD054940F2CB13044A052002
S31508003EE000910449FFF790FFDEE700BF2834010878
S31508003EF0F43301083C2C0108704700BFF0B5144C98
S31508003F0083B00546002914BF0E462646002A14BF6C
S31508003F1017462746002B18BF1C46336893B1002264
S31508003F203B68A9688B42E96818BFAB6023688B4277
S31508003F3018BFEB6022B93146284601AAFFF7AEFF43
S31508003F4003B0F0BD01AA3146FFF7A8FF0122E7E753
S31508003F50D43A01082DE9F04F83B006460D9F002894
S31508003F6000F08C80002F00F093808846DFF850B16F
S31508003F700C9900244C4D01629BF800E0A34208BF4F
S31508003F802B460E99A24208BF2A46DFF838C10161BE
S31508003F90A04514BF4146294680F834E0C46004852C
S31508003FA080F831404462C4618463C0F814C0C0E933
S31508003FB00144FFF7A3FF3046B84700285CD196F8BE
S31508003FC03430DFF80491DFF8EC80DFF800A1FF2B2E
S31508003FD002D1002386F83430D9F80040002C43D0AB
S31508003FE00025324F07E094F8343096F8342093428F
S31508003FF016D024681CB3A64205F1010515D0FF2D7D
S31508004000F1DD40F28D132A4ACDF8008039460520A5
S31508004010FFF7FAFE94F8343096F834209342E8D144
S315080040200133DBB286F83430D1E7CDF8008040F2B0
S315080040308B13524639460520FFF7E6FEDFE7FE2AD0
S31508004040D9F8004014D001328BF8002096F83130A8
S3150800405034609B06C9F8006002D5304601F0B6FF09
S31508004060304603B0BDE8F08F96F83420FE2AEAD130
S3150800407000238BF80030E9E72646F1E70D4940F2C0
S3150800408027130D4A052000910849FFF7BDFEE7E70B
S3150800409008494FF49473094A052000913E4603499E
S315080040A0FFF7B2FEDCE700BFD43A01083C2C010852
S315080040B0C433010828340108703301088C33010819
S315080040C024010020013E00087C410120B03301088C
S315080040D0014B1860704700BF7841012058B190F82D
S315080040E03130D90700D5704743F00103032180F822
S315080040F03130FFF79FBE00B5064983B04FF45473BD
S31508004100054A009105200549FFF77EFE03B05DF8D4
S3150800411004FB00BF28340108103501083C2C0108AF
S3150800412060B190F83130D90705D523F001011B0796
S3150800413080F8311000D4704701F086B800B50649FA
S3150800414083B040F29B33054A009105200449FFF7E6
S315080041505BFE03B05DF804FB28340108A8340108A7
S315080041603C2C010810B582B0A8B190F8313004464D
S315080041705A0701D502B010BD43F00403032180F8A5
S315080041803130FFF757FEE369002BF3D0204602B023
S31508004190BDE81040184705494FF47873044A0520CE
S315080041A000910449FFF730FE02B010BD283401081B
S315080041B0EC3401083C2C010858B190F83130590705
S315080041C006D523F00403C16980F8313001B10847E8
S315080041D0704700B5064983B040F20643054A009188
S315080041E005200549FFF710FE03B05DF804FB00BF84
S315080041F028340108C83401083C2C010800B1C16103
S31508004200704700BFA0B10B4B1A687AB192F83430E8
S315080042100133DBB2984206D108E092F83430013314
S31508004220DBB2834202D01268002AF6D110467047E4
S315080042300246FBE77C41012040BA80B2704700BFC6
S315080042400EB400B58AB008490CAB02A81A46019309
S3150800425004F008F802A9052009F066FA0AB05DF824
S3150800426004EB03B0704700BF3C2C010808B50DF0FD
S31508004270BDFA024B024A0343138008BD00C0FFFF84
S31508004280700000202DE9F04F884685B007460028C3
S3150800429000F0C480B8F1000F00F0CC807B89072BB2
S315080042A07FD9DFF8D4917C68D9F80010D9F81400C2
S315080042B000F034FD82462088FFF7BEFF0390608831
S315080042C0FFF7BAFF644B05461C68002C7CD04FF0FC
S315080042D0000B5E4604E0E3682646002B71D01C46B8
S315080042E0638AAB42F7D1B8F1000F00F08E80227ACC
S315080042F03AB1D9F8043093F834300133DBB29A4234
S31508004300E9D12368BAF1000F51D043B1D9F8142086
S31508004310511C04D05A40D8F808100A42DBD1227C36
S31508004320520713D4BBF1000F00F08D80BAF1000FCD
S315080043300CD0D9F81420013208D1D8F80420DBF8BB
S315080043400010914202D09A4208BFA346A38A039A54
S315080043509342C0D163681BB1D9F810209342BAD1F1
S315080043602EB13D49E2680B68F2600C60E3600821F3
S315080043703846FEF75BFE58B9256A95B1039B3A465F
S31508004380606A21460093354BA84705B0BDE8F08F13
S3150800439033494FF4B873334A052000913249FFF781
S315080043A04FFF384605B0BDE8F04FFEF77DBE002B3F
S315080043B0B5D0D9F814209342B1D0E3682646002B2D
S315080043C08DD1BBF1000F45D1D8F80420D9F81430A7
S315080043D09A42E6D108213846FEF728FE0028D7D1AA
S315080043E0BAF1000FDDD1D9F8143003F0F003E02B51
S315080043F0D7D0B9F80C103846083109B2FEF74CFE8A
S315080044000321384601F09EFACBE7154B0520174ADB
S31508004410009388231449FFF713FF68E71049CF2351
S31508004420134A052000911049FFF70AFFB8F1000F5B
S315080044307FF434AF0A49D0230E4A052000910A4971
S31508004440FFF7FEFE2AE7A38AA346039A93427FF460
S3150800445042AF7FE75C468AE780410120944101200C
S315080044605C350108203601083C2C0108F83501089E
S3150800447044350108DC350108844101203C4B2DE90F
S31508004480F041002908BF194682B0002863D0394F89
S315080044903E6806B3B0424BD0344601E0A04247D04E
S315080044A0E468002CFAD1CAB10D68334601E0DB682E
S315080044B07BB39842FBD0598A9142F8D11968A94230
S315080044C018BF002901D0002DF1D16FF00703184657
S315080044D002B0BDE8F081002A39D13446DFF8A4805D
S315080044E04FF4804C4FF6FF7EB8F8002072452BD06B
S315080044F0013292B256B1738A93421BD0334602E018
S315080045005D8A954216D0DB68002BF9D10D68A8F8AC
S3150800451000200560428234B90023C6603860184618
S3150800452002B0BDE8F0810023184602B0BDE8F0816C
S315080045300124B8E70CF1FF3C1FFA8CFCBCF1000F14
S31508004540D4D1A8F80020C0E74FF44042D2E70B6860
S3150800455042820360E0E7084940F2B733074A05207C
S3150800456000910749FFF76CFE6FF00F03D7E700BF0E
S31508004570D43A0108804101205C3501082C35010830
S315080045803C2C0108700000202DE9F04F85B0DDE9CC
S315080045900EA9002800F095800E46002900F08C80B0
S315080045A09046002A7CD0B9F1000F00F09480BAF149
S315080045B0000F00F08B80428A9B460546002A44D0AD
S315080045C032894FF6F7739A4267D808213046FEF7C4
S315080045D029FD002843D134466389072B4ED96768DD
S315080045E0688AFFF729FE38805846FFF725FE00231C
S315080045F07880BB71FB712B7C1B0705D5D8F800307A
S3150800460003F0F003E02B43D02089FFF715FED8F816
S3150800461000301121B88003F0F00342462046E02B13
S315080046200CBF6B7FEB7A01914946CDF808A0AD7AAD
S31508004630009501F0C9FBB442074602D02046FEF7B2
S3150800464033FD384605B0BDE8F08F0146FFF716FF83
S3150800465007460028B4D0384605B0BDE8F08F4FF4B9
S31508004660207208212220FEF79DFD0446A8B1338951
S31508004670002BB1D03146FEF701FFADE7184940F2ED
S315080046800E33184A052000911749FFF7D9FDA6E70A
S31508004690637B43F004036373B6E74FF0FF37D0E755
S315080046A00F4940F2D323114A009105200E496FF0B5
S315080046B00F07FFF7C5FDC4E7094940F2D2230C4AA4
S315080046C0F2E7074940F2D1230A4AEDE7044940F2E6
S315080046D0D523094AE8E702494FF43573074AE3E761
S315080046E05C350108E03701083C2C010874370108DD
S315080046F05437010834370108BC37010898370108D0
S3150800470070B582B0069C40B311B3AAB154B305681C
S3150800471035B9251DCDE90045FFF736FF02B070BD56
S3150800472005F0F006E02EF4D06668B54201D10546DC
S31508004730F0E76FF00300F1E70D4940F282230D4AD6
S31508004740052000910C49FFF77BFD6FF00F00E5E7A8
S31508004750074940F28123094AF2E705494FF42073D5
S31508004760074AEDE7024940F28323064AE8E700BF15
S315080047705C350108F43601083C2C0108D8360108D6
S31508004780BC36010814370108F0B583B0002843D0B9
S315080047900E4600293BD015466AB30446007A1F46E2
S315080047A0F0B9126802F0F002E02A0CD1207FD0B9E5
S315080047B0A36943B11B4A1268934204D004F1180056
S315080047C001F0F8F818B9284601F0F4F880B100901D
S315080047D03B462A4631462046FFF792FF03B0F0BD16
S315080047E0FFF710FDF2E7FFF70DFD0028EFD1EAE726
S315080047F06FF00300F2E70C4940F21A230B4A052032
S3150800480000910B49FFF71CFD6FF00F00E6E706491C
S3150800481040F21923074AF2E703494FF40673064A9A
S31508004820EDE700BFD83A01085C350108A036010853
S315080048303C2C0108843601086C36010810B1C0E921
S315080048400812704700B5064983B040F28A43054A04
S31508004850009105200449FFF7F3FC03B05DF804FB5B
S315080048605C3501083C3601083C2C0108D8B1154BCB
S315080048701A6882420BD032B1D36823B198420CD061
S315080048801A46002AF8D10146002000F0E7B9C268A6
S31508004890014600201A6000F0E1B9C368014600200D
S315080048A0D36000F0DBB900B5074983B040F2A143F5
S315080048B0064A009105200649FFF7C2FC03B05DF8D9
S315080048C004FB00BF804101205C350108543601080D
S315080048D03C2C010810B5002000F0A0F9044630B1C0
S315080048E0282200210CF0B9FEFF23E37263772046E5
S315080048F010BD00BFA8B1026899B192B10B6883B127
S31508004900084B1B686BB110B400E002681C6894423F
S3150800491001D10A681A60DB68002BF6D15DF8044BF2
S3150800492070477047804101200EB400B58AB0084927
S315080049300CAB02A81A46019303F094FC02A90520C1
S3150800494008F0F2FE0AB05DF804EB03B0704700BF4A
S315080049503C2C0108F0B5044683B008200F461646DD
S3150800496000F05CF9D8B1134D002387602968C6604A
S31508004970C0E9003421B14B68E31A002B08DA01605C
S31508004980286003B0F0BD5A68A21A002A03DB19464C
S315080049900B68002BF7D10360086003B0F0BD064929
S315080049A0BE23064A052000910549FFF7BDFF03B05F
S315080049B0F0BD00BF2C010020A038010860380108AE
S315080049C03C2C010810B5436804469847FDF730FBB0
S315080049D0094B21681B680B441A1A002A224605DB74
S315080049E018460649BDE81040FFF7B4BF0844034916
S315080049F0BDE81040FFF7AEBF28010020C5490008F2
S31508004A00B0F1804F70B5044682B00D46164608D3FD
S31508004A10094940F22913094A052000910849FFF778
S31508004A2083FFFDF705FB32462946204402B0BDE860
S31508004A307040FFF78FBF00BFA0380108283801086B
S31508004A403C2C010838B50B4D4FF47A700A4C2A46AF
S31508004A502146FFF7D5FF05F1080221464FF47A7083
S31508004A60FFF7CEFF05F1100221466420BDE8384065
S31508004A70FFF7C6BF10380108C54900082DE9F041FF
S31508004A80FDF7D6FA0D4C0746DFF834800CE05A6875
S31508004A90BD1A002D0DDB1E689D682660C8F800202B
S31508004AA0DE6800F0DBF835B9236808201946002BC4
S31508004AB0EDD1BDE8F0813046A847F5E72C01002086
S31508004AC02801002010B5074C23683BB1FDF7B0FA62
S31508004AD023685B68181A48BF002010BD4FF0FF30E6
S31508004AE010BD00BF2C01002008B5FDF7FBFFFEF73F
S31508004AF0C7FE00F067F8FFF7FFF9FFF7B7FB01F00D
S31508004B0055FABDE80840FFF79DBF00BF0EB400B5D3
S31508004B108AB008490CAB02A81A46019303F0A2FB17
S31508004B2002A9052008F000FE0AB05DF804EB03B000
S31508004B30704700BF3C2C01088B0730B50C4683B084
S31508004B40054608D0094940F26D13094A0520009127
S31508004B500849FFF7DBFFFEF701F82B681A682260A1
S31508004B601C6003B0BDE83040FEF704B844390108BC
S31508004B70243901083C2C010830B5044683B0FDF7FA
S31508004B80EDFF23681C689CB1226805461A60A307D6
S31508004B9008D0094940F21913084A05200091084926
S31508004BA0FFF7B4FF2846FDF7E5FF204603B030BD02
S31508004BB0FDF7E0FFF9E700BF44390108C4390108E9
S31508004BC03C2C0108F0B5114F0825114B4FF0000E8B
S31508004BD007F1280C0F4C104A0333C4F800E023F001
S31508004BE0030355B1002116880A460132981919603F
S31508004BF01946AA4223600346F7D1BC4505D057F8A3
S31508004C00042F5588D2E90134E6E7F0BDA83A010831
S31508004C10E842012058010020603A01080A2805D810
S31508004C200A4B53F820000830FFF7A6BF00B508491D
S31508004C3083B040F25713074A009105200649FFF74B
S31508004C4065FF002003B05DF804FB00BFA83A010821
S31508004C5044390108883A01083C2C01080A2807D873
S31508004C6029B10A4B53F820000830FFF765BF704793
S31508004C7000B5074983B04FF4D573064A009105205D
S31508004C800549FFF743FF03B05DF804FBA83A01089E
S31508004C90443901086C3A01083C2C0108002370B419
S31508004CA0994283B000F00106ADF8063005DD26B15D
S31508004CB00378013901308DF80730012926DD0239DC
S31508004CC000234D086C1C00EB440430F8022B844288
S31508004CD01344FAD1C5EBC57501EB4501012902D18B
S31508004CE002788DF80620BDF80600034498B200EB5A
S31508004CF0134398B200EB134026B10302C0F3072012
S31508004D009BB2184380B203B070BC70470023E5E736
S31508004D1008B5FFF7C3FFC04380B208BD431E03337F
S31508004D2014D891F8313013F002030DD04B68834242
S31508004D300AD08A684340134206D1D24332EA0003B6
S31508004D400CBF0120002070470020704701207047E3
S31508004D502DE9F04F83B003680F464FF0000C0DF1B4
S31508004D60080E2B484FF02E08F1464EF8043D1EF863
S31508004D7001AB002400E03446A0FB0A350DF1080B10
S31508004D80661CED08A344F6B205EB8503AAEB4303BC
S31508004D9005F0FF0A303303F0FF030BF8083C002D3B
S31508004DA0E9D10EF801AC0CF101056EB3624525DDBB
S31508004DB0013CA2EB0C0CE4B207EB0C0A04E05745E5
S31508004DC065461BD016F8083C04F1FF3B02AEFF2CE3
S31508004DD007F8013B264405F1010C5FFA8BF4EED186
S31508004DE0AA420BDDCE4587F8008007F1010309D1F9
S31508004DF0084600233B7003B0BDE8F08F002003B0DF
S31508004E00BDE8F08F1F46B2E72B4665469C46E7E7A6
S31508004E10CDCCCCCC10220149FFF79ABF5C0100200B
S31508004E200EB400B58AB008490CAB02A81A4601931D
S31508004E3003F018FA02A9052008F076FC0AB05DF816
S31508004E4004EB03B0704700BF3C2C01082DE9F04F76
S31508004E5083B089469246984606460D9FBDF83CB0F3
S31508004E6000285AD04FF420721C210E20FEF79AF91A
S31508004E70054600285BD043891B2B44D96C685846E5
S31508004E80FFF7DAF9E08096F83030062B08D0294982
S31508004E9040F26A43284A052000912849FFF7C0FFD7
S31508004EA0D8F800104FF0080E4FF0040C3046A160F9
S31508004EB00026B8F804104FF0010853464A46A18167
S31508004EC03968C4F812100621BF88E7820C9F3F682C
S31508004ED0C4F80E700E9F3F6884F802E0A76140F69A
S31508004EE006072171294684F805C02670E67084F8FD
S31508004EF001800097FDF7ACFE2846FEF7D5F8304648
S31508004F0003B0BDE8F08F0B4940F263430C4A052015
S31508004F1000910A49FFF784FFB0E7064940F2574374
S31508004F20084A052000910549FFF77AFF9AE74FF0EE
S31508004F30FF30E5E7DC3B0108983C01083C2C0108FA
S31508004F40643C0108CC3B01082DE9F0475500304E7A
S31508004F5084B0144605EB02080746894606EBC808DE
S31508004F6098F81430012B34D904EB4401022B07F1CD
S31508004F702A084FEAC10101F10C0AB2440BD04FF4DA
S31508004F80006453464246494638460094FDF760FE9B
S31508004F9004B0BDE8F0872C4406EBC404638AB3F575
S31508004FA08E7F22D8B3F5877FE9D304310122194BC6
S31508004FB0381D3144039201935246029143460090AC
S31508004FC041463846FFF742FF0028D8D10323237508
S31508004FD0D5E7114940F2EF23104A05200091104900
S31508004FE0FFF71EFF98F81430BEE704310120094B7D
S31508004FF03A1D0E4403900193414600924346029699
S315080050003846084AFFF722FF0028B8D1DEE700BF76
S315080050106C010020342C0108DC3B0108703B0108B8
S315080050203C2C0108742B01082DE9F04F00234FF0A2
S315080050300A0C87B08A4698465449059399466446A9
S31508005040E646CDE9032C05E047B92C46013318316D
S315080050500A2B17D00A2C1DB20F7DF5D0002FF5D0DC
S3150800506020B1026893464A68934542D0012FB1F8A9
S3150800507012B036D0C345E9D30133D846AE46183107
S315080050800A2BE7D1BAF1010F039A7CD10A2C1746ED
S31508005090804635D065003D4AA1462B1902EBC3036D
S315080050A01B7D43B13A4940F285133A4A05200091DF
S315080050B03949FFF7B5FEB8F1000F07D005EB09032C
S315080050C03249D8F8002001EBC3035A604D442F4AF1
S315080050D0002302EBC506B7607382204607B0BDE819
S315080050E0F08F0F68002F39D0CB45AFD3D946AC46E1
S315080050F0ACE7039E16B18A68B242B7D12C46ECE7F4
S31508005100BEF10A0F31D04FEA4E05204AF14605EBAB
S315080051100E0352F83330A3B31D4940F26D131F4AEC
S315080051200520009174461C49FFF77AFE4FEA4905A7
S31508005130164B05EB090A4FEACA0A53F80A0028B1C2
S31508005140FDF7B2FF0023114A42F80A3005EB0903BE
S315080051500E49002201EBC3031A75ACE7059A93457D
S31508005160FFF474AFCDE9045B70E7049B0A2B05D105
S31508005170BCF10A0F07D06446E146D7E7049CA1466E
S31508005180D4E77446E2E74FF0FF34A6E76C01002047
S31508005190DC3B0108F43A01083C2C0108DC3A01081A
S315080051A02DE9F041254C84B00026DFF8988004F1FB
S315080051B0F005234F227D62B1638A01339BB2B3F5B2
S315080051C0967F63820DD2012A09D0032A13D0042AB6
S315080051D018D01834AC42EDD104B0BDE8F081042BE8
S315080051E017D9206810B1FDF75FFF266026751834B9
S315080051F0AC42DFD1F0E70423183404F8043CAC428F
S31508005200D8D1E9E70223183404F8043CAC42D1D1DA
S31508005210E2E7A06804F1040C03921834021D00F1B9
S315080052202A03CDF80480009219463A46CDF808C0FC
S31508005230FFF70CFEAC42BDD1CEE700BF6C010020E3
S31508005240742B0108342C0108F8B50D4C06460027C6
S3150800525004F1F00502E01834AC420FD0237D002B90
S31508005260F9D0A368B342F6D12368184613B1FDF7FF
S315080052701BFF276027751834AC42EFD1F8BD00BF75
S315080052806C0100202DE9F04786B0002900F08C80DB
S31508005290456804462B88B3F5807F02D12B79062B07
S315080052A005D02046FDF700FF06B0BDE8F0876B790C
S315080052B0042BF6D16B88082BF3D1D5F80E000E46D1
S315080052C04F6805F108080590AB69002F78D09F4212
S315080052D079D000274FF0020996F83030062B09D00E
S315080052E03A49052040F2A913394A00913949FFF78E
S315080052F097FD0598002841D03146FFF70FFD8246F5
S3150800530000283BD1059B03F0F003E02B36D0494635
S31508005310324605A8FFF788FE00282FDB00EB40027F
S315080053202D494FF0020E4FF01809D2000C2310FB3E
S31508005330093301EB020C8CF814E001EB030ECCF8F0
S315080053400860D8F80000C850B8F80430AEF8043041
S3150800535051F80290ACF812A0B9F1000F0ED04FF434
S31508005360006041F802A0434606F12A020090494629
S315080053703046FDF76DFC4846FDF796FEEB88B3F51B
S31508005380807F8ED1002F8CD006F12A03022005AF2C
S31508005390351D03904246CDF80480194630460297DB
S315080053A00095FFF753FD7CE7084940F28A230B4A2C
S315080053B0052000910749FFF733FD06B0BDE8F087E1
S315080053C04FF0020988E70127B94685E7DC3B010863
S315080053D0403B01083C2C01086C010020CC3B01082D
S315080053E02DE9F04F0F4685B0044601463868164643
S315080053F0FFF794FC002840F09F803B6803F0F0021A
S31508005400E02A00F09980002B00F0968022460121C0
S315080054103846FFF709FE051E56DB7E2D4ADCEDB23F
S31508005420DFF85C814FEA450909EB050208EBC20281
S31508005430137D8BB104F12A0A002E00F0848009EB53
S3150800544005034FF0FF3008EBC3031B7D012B20D863
S315080054503ED005B0BDE8F08F4FF0010C04F12A0AE2
S315080054604149201D02975346019151460090204616
S31508005470CDF80CC0946082F814C03C4AFFF7E6FCED
S31508005480002EE6D009EB050308EBC3031B7D012BB1
S31508005490DED9182331464FF40067354E03FB0583E2
S315080054A05246009720460C333570FDF7D1FB05B000
S315080054B0BDE8F08F2F4940F2C1332F4A05200091ED
S315080054C02E49FFF7ADFCAAE768B205B0BDE8F08F34
S315080054D03446DFF8A0A0DFF8ACB004E0237B5A0618
S315080054E014D424685CB3628923899A42F6D1276862
S315080054F040F2F1335A462149052027B1CDF800A0DC
S31508005500FFF78EFCEAE7237B5B0618D532464FF495
