S00E0000726F6D6D6F6E2E737265637E
S315080000004CF6003815030008DD100008ED1000084E
S31508000010FD1000080D1100081D1100080000000061
S315080000200000000000000000000000007503000842
S315080000302D110008000000003D1100087503000896
S3150800004075030008750300087503000875030008A2
S315080000507503000875030008750300087503000892
S315080000607503000875030008750300087503000882
S315080000707503000875030008750300087503000872
S315080000807503000875030008750300087503000862
S315080000907503000875030008750300087503000852
S315080000A07503000875030008750300087503000842
S315080000B07503000875030008750300087503000832
S315080000C07503000875030008750300087503000822
S315080000D0750300087503000875030008E113000896
S315080000E07503000875030008000000007503000882
S315080000F075030008750300087503000875030008F2
S3150800010075030008750300087503000875030008E1
S3150800011075030008750300087503000875030008D1
S3150800012075030008750300087503000875030008C1
S3150800013075030008750300087503000875030008B1
S3150800014000000000000000000000000000000000A1
S315080001507503000875030008750300087503000891
S315080001607503000875030008750300087503000881
S3150800017075030008750300087503000800000000F1
S315080001807503000875030008750300087503000861
S315080001907503000875030008750300087503000851
S315080001A07503000875030008750300087503000841
S315080001B07503000875030008750300087503000831
S315080001C07503000875030008750300087503000821
S315080001D07503000875030008750300087503000811
S315080001E07503000875030008750300087503000801
S315080001F075030008750300087503000875030008F1
S3150800020075030008750300087503000875030008E0
S3150800021075030008750300087503000875030008D0
S315080002207503000875030008750300080000000040
S315080002307503000875030008000000007503000830
S3150800024075030008750300087503000875030008A0
S315080002507503000875030008750300087503000890
S315080002607503000875030008750300087503000880
S3150800027075030008750300087503000800000000F0
S3150800028075030008750300087503000800000000E0
S30D080002900000000075030008D8
S31508000300003A000800F0003800F0003800F0003825
S315080003104CF20038DFF844D0002103E0104B5B585C
S31508000320435004310F48104B42189A42F6D30F4AED
S3150800033002E0002342F8043B0D4B9A42F9D301F040
S3150800034017FD00F007F97047A0F10A00002800DC45
S315080003507047A0F105000028FBDC70474CF6003812
S31508000360003A000800F0003800F0003800F00038C5
S315080003704CF20038FEE7000038B55320074D2C46EE
S3150800038001F038F9013560780028F8D10A20A51C53
S3150800039001F030F9A0780028F1D138BDD035000831
S315080003A070B50C4680212046266800F007FC2368B5
S315080003B09E4211D0054600F079FE00F06BFE084813
S315080003C001F088F8A84700F065FE064801F082F8B3
S315080003D0BDE8704000F064BE014B5D68EBE700BF06
S315080003E000000024000000082DE9F04F0026534BBA
S315080003F0612283B0524F04463546B0461A54204609
S3150800040000F010FC21464FF0FF3000F01BFC009076
S315080004100028F7D0431C00930378532BEFD1831C95
S31508000420022101A84FF0000B019300F0C7FB019BC6
S315080004308246023B0193022101A800F0BFFBBAF1F4
S31508000440010A8344F7D50BF1FF33DBB2FD2B06D83F
S315080004503B5D002B43D1F123394AB0461355009B27
S31508000460022168465A1C009293F800B000F0A6FBD9
S315080004708146BBF1310F16D0BBF1320F31D0BBF13B
S31508000480330F32D0BBF1370F4DD0BBF1380F30D018
S31508000490BBF1390F4CD0ABF1370BBBF1020FAED81D
S315080004A04FF000092AE06FF0010A0421684600F0BF
S315080004B085FB09F1FF33002D08BF054606469A4419
S315080004C0BAF1000FE7DD00EB0A068246022168460C
S315080004D000F074FB0AF8010B5645F7D1DBE7B04686
S315080004E0BDE76FF0020A0621E0E76FF0030A08216C
S315080004F0DCE76846062100F061FB8146294611487B
S3150800050001F00EFB3146104801F00AFB49460F4838
S3150800051001F006FB3B5D1BB141460D4801F000FBAF
S3150800052003B0BDE8F08F6846042100F047FBE4E716
S315080005306846082100F042FBDFE700BF14F00038E8
S3150800054018F00038203800083838000850380008F5
S315080005506838000808B5164800F0BCFF154B1B683C
S3150800056003B198470020144D00F0DCFB134B4FF005
S3150800057000526120124C13491B682A6022600870D9
S3150800058003B1984700F08CFD002001F04DF80E48A5
S3150800059001F018F8002000F051F800230B4A18461D
S315080005A0137000F03FFB002000F00AFAFBE700BFDB
S315080005B0000000087C38000810F000387838000879
S315080005C01CF0003814F00038D035000818F0003850
S315080005D010B5044600F032F8034B002220461A559F
S315080005E0BDE8104000F01EBB18F00038F8B50C4600
S315080005F015460746084600F001FB20468021266876
S3150800060000F0DCFA286023689E420DD0204600F0F0
S31508000610F5FA80212046256800F0D0FA23689D4225
S3150800062008BF4FF48070F8BD034B4FF4807053F841
S3150800063027302B60F8BD00BF1CF0003808B5164BF4
S3150800064001461B5C652B0ED1144B1B5C012B1AD083
S31508000650042B134B0FD053F8211012480A88BDE813
S31508000660084001F05DBA104801F05AFA3A20BDE890
S31508000670084000F0BFBF53F821100C480A68BDE8CF
S31508000680084001F04DBA064B094853F82110BDE859
S3150800069008400A7801F044BA14F0003800F000382F
S315080006A010F00038A0380008803800089038000894
S315080006B08438000870B50D460446802128462E6801
S315080006C000F07CFA2B68074A01219E42064B074D2B
S315080006D04FF0650608BF53F824002E5543F824004A
S315080006E0115570BD00F0003810F0003814F00038CD
S315080006F070B50D460446802128462E6800F05EFA3D
S315080007002B68074A02219E42064B074D4FF06506A5
S3150800071008BF53F824002E5543F82400115570BD20
S3150800072000F0003810F0003814F0003870B50D46A7
S315080007300446802128462E6800F040FA2B68074AAE
S3150800074004219E42064B074D4FF0650608BF53F835
S3150800075024002E5543F82400115570BD00F00038CA
S3150800076010F0003814F000382DE9F04782B08046C2
S3150800077001AAFFF73BFF051E4CDD01992B4B01F043
S315080007800F0743F8281021F00F01294801F0C8F98E
S31508000790C7F1100A07EB4701202054462E460131BF
S315080007A000F036FADDF804900EE0B54211D0013CAF
S315080007B000F092FB19F8011B013E1E4801F0B0F942
S315080007C0002C09DD002E07DD082C4FF02D014046D0
S315080007D0EBD020214046EAE7B91C2020574600F016
S315080007E017FA01E0002D0FDD019B013F4046013D50
S315080007F05A1C01921978A1F120035E2B88BF2E217D
S3150800080000F06AFB002FEDDC0A2000F0F3FE0DB1C4
S315080008100199B8E708496420084B012201F8080045
S3150800082003F8082002B0BDE8F08700BF1CF00038C6
S31508000830AC380008B438000814F0003800F0003866
S31508000840F0B583B0074601AAFFF7D0FE002844DDBD
S315080008500130019C254B20F0010624F0010104F02B
S315080008600E043546019143F8271021F00F01204860
S3150800087001F056F9002C21464FF02000B8BF611C44
S31508000880C4F11004491001EB8101013100F0C0F9EF
S31508000890002D1BDD002C13DC18E0AE4214D000F04E
S315080008A0A9FE019B1348023C1988023D01F038F95C
S315080008B0019B002C03F10203019307DD002D05DDE2
S315080008C0082C4FF02D00E8D02020E8E70A2000F099
S315080008D091FE002D01DD0199C7E707496420074B02
S315080008E00222C855DA5503B0F0BD00BF1CF0003827
S315080008F0AC380008BC38000814F0003800F000389E
S31508000900F0B583B0064601AAFFF770FE002846DD5B
S315080009100330019C264B20F0030724F0030104F062
S315080009200C043D46019143F8261021F00F01214899
S3150800093001F0F6F8002C21464FF02000B8BFE11C64
S31508000940C4F11004891001EBC101013100F060F90E
S31508000950002D1DDD002C13DC1AE0AF4215D000F087
S31508000960BBFA019B1348043C1968043D01F0D8F80A
S31508000970019B002C03F10403019309DD002D07DD1B
S31508000980082C4FF02D013046E7D020213046E6E707
S315080009900A2000F02FFE002D01DD0199C5E7064962
S315080009A06420064B042288559A5503B0F0BD00BF53
S315080009B01CF00038AC38000814F0003800F0003895
S315080009C070B582B00146054600F03CF9009090B13A
S315080009D0037893B9494B5B5D642B4BD0652B07D1E4
S315080009E0474A484B52F825105B5D0B4442F82530C0
S315080009F02846FFF7EDFD02B070BD404A515D6529F6
S31508000A0045D0431C00934378017843EA0121C3B9D2
S31508000A103D4A138853B1994216D0002401E0994201
S31508000A2013D032F8023F0134002BF8D13F2000F0F2
S31508000A30E1FD0121354801F073F82846FFF7C8FDA6
S31508000A40D9E702300090E3E70024684600F0D6F8BC
S31508000A502F4B6946284653F8243098472D4B5C5D42
S31508000A60002CC5D03F2000F0C5FD2146274801F0DF
S31508000A7057F8BDE7234B5B5D012B2BD0022B2ED0FD
S31508000A80042BB5D169462846FFF73AFFB0E72E2B67
S31508000A9014D01C4B80211A4C5B5D019001A8012BD8
S31508000AA054F8256020D0042B0BD000F087F854F8B2
S31508000AB025303080023344F8253099E761235355B1
S31508000AC096E700F07BF854F825303060043344F894
S31508000AD025308DE769462846FFF746FE88E76946CA
S31508000AE02846FFF7ADFE83E700F068F8307054F843
S31508000AF02530013344F825307AE700BF14F0003872
S31508000B0010F0003800F00038E0370008C438000854
S31508000B10F837000818F000382DE9F04182B00C4685
S31508000B2001AAFFF763FD0646204600F067F8802114
S31508000B302046276800F042F823689F4214BF0746FC
S31508000B400027204600F05AF880212046256800F044
S31508000B5035F823689D4214BF05460025204600F057
S31508000B604DF820468021D4F8008000F027F8236845
S31508000B70984518D0002813DD06F1FF3E05FB0EFE4A
S31508000B80002E0BDD3A460023019901334C1C9E4288
S31508000B9001940A702A44F7D12F4477440138EFD1DB
S31508000BA002B0BDE8F0810120E6E700BF00F00F00C3
S31508000BB0092894BF30305730704700BFF0B4074655
S31508000BC000203C6814F8012BA2F12003602A88BF94
S31508000BD0DAB2A2F13003A2F14106DDB2092D05D938
S31508000BE0052EA2F1370301D9F0BC7047002901F19F
S31508000BF0FF31F9DD03EB00103C60E3E703681A7880
S31508000C00202A04D1013303601A78202AFAD07047C3
S31508000C1038B50C1E05DD0546284600F0EBFC013C00
S31508000C20FAD138BD054A064B02EB800103EBC01327
S31508000C3010B400244B60145410BC704704F00038FC
S31508000C4020F000382DE9F04FDFF8BC9083B02D4F27
S31508000C5019F8013007EBC117C3B907F17F034FEA4B
S31508000C60810A80460D46019309EB0A035E68284609
S31508000C7000F06EF90828044632D00D2826D00A2836
S31508000C8024D038B92746D144C9F80460384603B099
S31508000C90BDE8F08F0146404600F01EF906F1010B4B
S31508000CA0019B34705E469B45E1D30D21404600F01A
S31508000CB013F90A2140465E4600F00EF9C7EB0B0110
S31508000CC0002209F805108BF80020DCE70D2C17D058
S31508000CD0002CD7D0284600F03BF908280446CCD18A
S31508000CE0BE42C4D90146404600F0F6F840462021E7
S31508000CF0013E00F0F1F82146404600F0EDF8B6E76F
S31508000D00B346D2E720F0003804F00038002A07DDA1
S31508000D100438043A51F8043B002A40F8043FF8DC4A
S31508000D20704700BF411CC201F0B5C9010026184D25
S31508000D30184F194CDFF888E02654D4190EF80060CD
S31508000D402A440F44DFF87CE02944144D0EF800606D
S31508000D5045F82040DFF870E0114D4EF8204045F880
S31508000D602040104C104D44F82070104C104F45F898
S31508000D70202044F820100F4D0F4C104947F820202A
S31508000D8045F8202026540E54BDE8F04000F0DEB9A0
S31508000D9048F10038B4F0003844F10038CCF1003896
S31508000DA038F10038B0F00038D0F100383CF100389E
S31508000DB0A4F00038A0F00038C8F1003834F1003843
S31508000DC040F10038ACF00038A8F0003838B50446D1
S31508000DD000F050FB10F47F4F25D0C0B2132823D063
S31508000DE011282DD01A4B1B4D53F82420511C43F8BB
S31508000DF02410107053F8241055F82420914204D377
S31508000E00154A52F8242043F82420144B1A5D12067A
S31508000E1003D41A5D0132D2B21A551B5D532B02D97F
S31508000E200F4B1A5D1AB138BD0E4B185538BD132233
S31508000E300D4920461A550A55BDE8384000F024BB2E
S31508000E40084B002220461A55BDE8384000F01CBB66
S31508000E5038F10038B0F00038CCF1003844F10038E9
S31508000E60ACF0003834F10038C8F10038154A38B506
S31508000E70115C034601BB144D2A5CCAB1134A1448D7
S31508000E8052F8231050F82340481CA04242F8230089
S31508000E90097804D30F4850F8230042F823001C466B
S31508000EA0184600F005FB2B5D013BDBB22B5538BD20
S31508000EB0BDE8384000F0F2BA00241454BDE83840C2
S31508000EC000F0F6BAC8F1003840F10038A4F000384E
S31508000ED03CF10038D0F1003800282DDB70B5174DED
S31508000EE02B5C1B06FCD4164B164C53F82020561CBC
S31508000EF043F82060117053F8201054F820209142CE
S31508000F000DD2044600F0C6F80F4A2B5D0133DBB25A
S31508000F102B55135D4BB1BDE8704000F0C1B80B4AC4
S31508000F2052F8202043F82020EBE7204600F0ACFAE0
S31508000F30BDE8704000F0B4B8704700BF40F1003813
S31508000F40A0F000383CF1003834F10038D0F1003810
S31508000F5038B51A4D2A5C1AB902F0FF03184638BD8F
S31508000F60044600F097F82B5D013BDBB22B5500F0E9
S31508000F7097F82B5D2A2B0ED8114B1A5D5AB1002211
S31508000F801A5500F087F80F4B112220461A5500F023
S31508000F907BFA00F085F80C4B0C4A53F8241052F8EB
S31508000FA024504A1CAA4243F824200878D7D3084A72
S31508000FB052F8242043F8242038BD00BF44F10038F5
S31508000FC0ACF00038C8F10038A8F00038B0F00038A6
S31508000FD0CCF10038034A13685B06FCD5024B0D2298
S31508000FE01A6070471C4800402848004010B5094957
S31508000FF0094C10F8012B5AB10B685B06FCD50A2A76
S315080010002260F6D1FFF7E6FF10F8012B002AF3D18C
S3150800101010BD00BF1C480040284800401B4A38B590
S3150800102013685C06FCD51A4B0A2818602BD0174A99
S3150800103013685806FCD5164B20201C24134A1D4657
S31508001040186041FA04F303F00F03092BCCBF03F130
S31508001050370003F1300013685B06FCD5043C2860B2
S31508001060201DEED1094A13685906FCD50A22084BF9
S315080010701A60FFF7AFFF054A13685B06FCD5044BF9
S315080010800D221A6038BDFFF7A5FFD0E71C480040BF
S3150800109028480040014B80221A60704784E100E02E
S315080010A0014B80221A60704704E100E0094B23F0E7
S315080010B01F0303F50022BFF34F8F934204D206495C
S315080010C00B6020339A42FBD8BFF34F8FBFF36F8F65
S315080010D0704700BF0000002470EF00E008B5024822
S315080010E0FFF784FFFEE700BFD438000808B50248BA
S315080010F0FFF77CFFFEE700BFF038000808B5024896
S31508001100FFF774FFFEE700BF1039000808B502486C
S31508001110FFF76CFFFEE700BF3439000808B5024840
S31508001120FFF764FFFEE700BF5439000808B5024818
S31508001130FFF75CFFFEE700BF7839000808B50248EC
S31508001140FFF754FFFEE700BF9C39000800B170475F
S315080011508A4B8B491A68DFF880C242F00802F0B55C
S315080011601A608DB01A68DFF874E201A800921A684E
S31508001170844F42F00802844E844D1A601B68844CE2
S3150800118000930B6843F480230B60DCF80030814938
S315080011900093009BDEF800207F4B22F00F0242F0FE
S315080011A00702CEF800203A6822F4403242F40032B0
S315080011B03A60326842F4403232602A6822F4807219
S315080011C02A60226822F4403242F480322260DEF835
S315080011D0002022F0F00242F07002CEF800203A68B1
S315080011E0DFF8D0E122F4402242F400223A60326865
S315080011F06A4F42F4402232602A68694E22F400722D
S315080012002A602268674D22F4402242F48022226036
S315080012100A6822F001020A600A68134043F00C03C8
S315080012200B60DEF8003023F44053CEF800303B68FC
S315080012301E403E602B6823F00F032B6001F028F850
S31508001240594B1B6803F00703052B66D8DFE803F044
S31508001250676A6D707B034FF4004300934D4B1B6820
S3150800126013F4004F009B71D05B0850494FF6F0729B
S3150800127003F56143A1FB0313190CC3F342430A4068
S315080012800092009A13430093009A494B49481A6002
S315080012900368424923F490433E4A474D03600B686E
S315080012A023F02A030B60136843F0010313602B68CD
S315080012B003F4C003B3F5C00F0ED06FF07E4401E00F
S315080012C0013C4DD04FF47A70FFF73EF82B6803F4D3
S315080012D0C003B3F5C00FF3D1384B1B68C3F3022321
S315080012E01A1D062A3AD9DA1E01239340013B1B012F
S315080012F003F01003274A80203149324C23600860E6
S315080013001368264943F4807313600B6843F001039E
S315080013100B60136843F0200313600DB0F0BD039B08
S3150800132000939BE7079B009398E70A9B009395E732
S31508001330254B1A6892061ED51A68244B02F0180225
S31508001340134100938AE7224B009387E7174A03F570
S315080013506143A2FB03231B0C009395E70023C9E70F
S315080013600C490E4A0B6823F4D0730B60136823F0FC
S3150800137001031360D1E7174B00936FE7E044025867
S31508001380E8440258000C0258080C0258040C02588B
S315080013900C0C025800480040F369FFCF084800408B
S315080013A0FFF4FF112C48004054440258C5B3A291DB
S315080013B00C480040044800401C4800400CED00E082
S315080013C004E100E09CE400E00044025800127A00C0
S315080013D000093D000090D003F0440258240C02583E
S315080013E038B52049204B214A0D681B681468E00768
S315080013F017D5D90715D50121A00751602AD502218D
S315080014001B4A1160610717D4200701D5D90718D4DC
S31508001410A20601D5AB0620D4240601D5280614D485
S3150800142038BDA20704D5D807E9D46207F0D4EBE79C
S315080014306207E9D5DB07EBD50D4B042221071A60B5
S31508001440E6D50B4B08221A60E2E70020BDE83840D3
S31508001450FFF70CBD6107EFD4D6E70020FFF7B6FC0F
S31508001460DAE700BF00480040084800401C48004032
S3150800147020480040034B53F83030586A60F0FF00AC
S3150800148080B27047CC380008034B53F830201368F5
S3150800149043F0800313607047CC380008034B53F8B9
S315080014A03020136823F0800313607047CC38000897
S315080014B0024B53F830309962704700BFCC380008A9
S315080014C0034B53F830201C3213685B06FCD5704773
S315080014D0CC380008014B1860704700BF08ED00E0E3
S315080014E000207047F8B50F4649B105461446561808
S315080014F014F8011B2868FFF7EFFCB442F8D1384608
S31508001500F8BD00BFC9B20068FFF7E6BC10B50446CF
S315080015102068FFF71DFD0028FAD010BDF8B50F4664
S3150800152059B10446154656182068FFF711FD0028DC
S31508001530FAD005F8010BB542F6D13846F8BD00BF1A
S315080015400A2838B505460C4605D0A0692946E36839
S315080015509847012038BDCB680D21A0699847F4E764
S31508001560034B002808BF184643688069184700BF20
S31508001570D4F10038054B002A18BF1346024610B4AA
S315080015809C689869234610BC184700BFD4F10038F8
S3150800159010B4064C02FB01F10246002B08BF234695
S315080015A09C689869234610BC184700BFD4F10038D8
S315080015B010B41C6902FB01F102469869234610BC67
S315080015C0184700BF38B50A4C054601F0F9F8014638
S315080015D02A46E36A606B9847A36A05460D21606B45
S315080015E09847606BA36A0A219847284638BD00BF0A
S315080015F0D4F100380A2838B50546064C05D0606B84
S315080016002946A36A9847012038BD0D21A36A606B55
S315080016109847F4E7D4F10038024B002808BF18466B
S3150800162043691847F0F10038F0B9104B4FF6FF7CC4
S315080016300F4A1049F0B503F1540E0F4F0F4E104DD7
S31508001640104C1060A3F802C01C3343F8187C43F80A
S31508001650146C43F8105C43F80C4C43F8081C43F828
S31508001660042C7345EED1F0BD704700BFD4F10038A5
S315080016700CF00038E11400080D1500081D150008C7
S3150800168005150008E5140008024BC0EBC00003EB83
S3150800169080007047D4F100382DE9F04F87B09146A5
S315080016A000240DF10C08109A129DC446139E00E002
S315080016B05C4604F1010BB0FBF1F701FB170E384647
S315080016C019F80E700CF8017B0028F1D1002AA3EB5B
S315080016D00207119AD4BF00230123002A019300DDD3
S315080016E08BBB002201230092BB4514DA119BDA4614
S315080016F0002BCCBF4FF030094FF020090AF1010A40
S3150800170031464846A8475745F8D1009BCBEB070713
S315080017103B4400930133119A002A01DC019A6AB905
S3150800172008EB0B0717F8010D3146A847B845F9D15C
S3150800173000980130204407B0BDE8F08F31462D20CF
S315080017400093A847ECE731462D20A84701230093CC
S315080017500223C9E7FFF74EBF2DE9F04F994685B03A
S31508001760154680460F461378002653B1252B0CD014
S31508001770184639466C1CC0476B7801362546002B3F
S31508001780F4D1304605B0BDE8F08F6B78302B00F009
S31508001790B08002354FF0000EA3F130020024092A6A
S315080017A00AD804EB840403EB440415F8013BA3F1BF
S315080017B03002303C092AF4D9782B00F29880DFE809
S315080017C013F0EE0096009600960096009600960096
S315080017D0960096009600960096009600960096004B
S315080017E0960096009600960096009600960096003B
S315080017F0960096009600960096009600960096002B
S31508001800960096009600960096009600E8009600C8
S31508001810960096009600960096009600960096000A
S3150800182096009600960096009600960096009600FA
S3150800183096009600960096009600960096009600EA
S3150800184096009600960096009600960096009600DA
S3150800185096009600960096009600960096009600CA
S3150800186096009600960096009600960096009600BA
S315080018709600D6009600960096009600960096006A
S315080018809600960096009600CC000C0196009600ED
S315080018909600F2000C01960096002101960096002B
S315080018A0C10096009600960079009600AF00960053
S315080018B096009D00D9F8003009F10409187803F15B
S315080018C0010B50B1C3EB060A39460BEB0A06C047B3
S315080018D01BF8010B013C0028F6D1002C07DDA246B7
S315080018E039462020C047BAF1010AF9D126442B7897
S315080018F03BE7AB784FF0010E03354DE70022D9F8E8
S31508001900000023460397CDF80880102109F1040941
S315080019108DE804407F4AFFF7BFFE2B78064424E78C
S31508001920D9F80000002209F1040923460A21039781
S31508001930CDF808808DE80440774AFFF7ADFE2B788E
S31508001940064412E7D9F80000002209F104092346E3
S3150800195003970821CDF80880ECE709F1040499F803
S31508001960000039460136C047A1462B78FDE600221D
S31508001970D9F8000023460397CDF80880102109F10D
S3150800198004098DE80440654AFFF786FE2B7806446D
S31508001990EBE639462520C04701362B78E5E615F8EB
S315080019A0013C013DE1E62B7805F1010A692B6AD075
S315080019B065D9752B35D0782B00F093806F2B2DD1F8
S315080019C0B9F80000002209F1040923460397CDF867
S315080019D0088008218DE804402FE0D9F8000009F1B5
S315080019E0040900285EDB002223460397CDF8088009
S315080019F0CDF804E000920A21474AFFF74DFE2B78FE
S31508001A000644B2E62B7805F1010A692B27D01ED9C0
S31508001A10752B19D0782B7AD06F2B75D06B785546E5
S31508001A20A3E6B9F80000002209F1040923460A21B1
S31508001A300397CDF808808DE80440374AFFF72CFE57
S31508001A406B780644554690E6D9F80000EBE7582B24
S31508001A5044D0642B03D0002B3FF493AEDEE7D9F8CD
S31508001A60000009F10409002813DB00222346039726
S31508001A70CDF80880CDF804E000920A21DDE7582B5E
S31508001A8019D0642BE7D1B9F9000009F10409002837
S31508001A90EBDA01220397CDF808802346CDF804E057
S31508001AA04042E9E701220397CDF808802346CDF89E
S31508001AB004E040429EE7B9F8000000222346039757
S31508001AC01021CDF8088009F104098DE80440134A6D
S31508001AD0FFF7E2FD6B780644554646E6D9F800005E
S31508001AE0EBE7B9F800000022234603971021CDF84A
S31508001AF0088009F104098DE80440064AFFF7CCFD81
S31508001B006B780644554630E6D9F800005AE7D9F806
S31508001B100000E8E7C8390008BC390008DC390008C5
S31508001B200FB410B582B00021064804AC54F8042B53
S31508001B3023460194FFF710FE02B0BDE8104004B03A
S31508001B40704700BF551700082DE9F8437B4B1B6803
S31508001B5003F03803102B60D0182B0AD013B178483D
S31508001B60BDE8F883774B1A6891065CD47648BDE8D9
S31508001B70F883764A764B15681868C5F30514002C61
S31508001B804ED005F00103C0F3CC0003FB00F001F0D2
S31508001B9055FB15F00305064670D0022D4BD16D4B4B
S31508001BA01868C0F3080001F049FB00F0DBFF804627
S31508001BB08946304600F0D6FF0022674B01F026F82A
S31508001BC002460B464046494600F06EFE0022634B2D
S31508001BD000F06AFE064620460F4601F02FFB014636
S31508001BE05F4801F037FC00F0BDFF02460B46304661
S31508001BF0394601F00BF801F01BFA0446554B1868F4
S31508001C00C0F34620013001F019FB0146204601F0D9
S31508001C1021FC01F0BBFCBDE8F8835248BDE8F88317
S31508001C202046BDE8F8831868474BC0F3C10043FA5D
S31508001C3000F0BDE8F883474B1868C0F3080001F0C8
S31508001C40FDFA00F08FFF80468946304600F08AFF8D
S31508001C500022414B00F0DAFF02460B464046494651
S31508001C6000F022FE00223D4B00F01EFE06462046EE
S31508001C700F4601F0E3FA01463B48B2E7314B1A68D2
S31508001C80920637D51B683048C3F3C103314A184159
S31508001C90176801F0D3FA0546204601F0CFFA014647
S31508001CA0284601F0D7FB00F05DFF0446C7F308009D
S31508001CB00D4601F0C3FA00F055FF804689463046C6
S31508001CC000F050FF0022244B00F0A0FF02460B460E
S31508001CD04046494600F0E8FD0022204B00F0E4FDAE
S31508001CE002460B462046294600F090FF01F0A0F96F
S31508001CF0044683E7174B1868C0F3080001F09EFAFC
S31508001D0000F030FF80468946304600F02BFF00225F
S31508001D10114B00F07BFF02460B464046494600F051
S31508001D20C3FD00220D4B00F0BFFD064620460F46B8
S31508001D3001F084FA01460D4853E700BF10440258E3
S31508001D4000093D00004402580090D0032844025878
S31508001D5034440258304402580000203F0000F03F47
S31508001D600024F44A00127A000024744A0024744CB1
S31508001D70F8B59F4C00239F4A20689F4F40F4700097
S31508001D809E499F4D206010689E4C40F001009E4E73
S31508001D90DFF8CCE210603B6017689C4839409C4FDE
S31508001DA011609C4933602B6023600360CEF80030D5
S31508001DB03B60F361EB61E36183610B601068964CED
S31508001DC020F48020954910606B6423681940B1F1AE
S31508001DD0005F02D2924B01221A60924B002292496E
S31508001DE005241868DFF884C220F480308F4FDFF8A6
S31508001DF080E2186008688E4D20F001008D4E08605C
S31508001E00CCF80020C7F800E02E600C60196841F491
S31508001E1080311960BFF34F8FBFF36F8FC3F82C2241
S31508001E20BFF34F8FBFF36F8F83490B6843F40033BB
S31508001E300B60BFF34F8FBFF36F8F804B0A671B682A
S31508001E40C3F34E35BFF34F8F7D48C3F3C9046A0108
S31508001E5043F6E0712346114041EA8372013B5E1C5A
S31508001E600260F9D115F1FF35F1D2BFF34F8F724AEF
S31508001E70136843F480331360BFF34F8FBFF36F8F3C
S31508001E80704B1A68520705D41B6803F00703022B28
S31508001E9040F0D6816B4A6C4D136823F0070343F074
S31508001EA0020313602B689B040CD440F2E93402E069
S31508001EB0013C00F0C5814FF47A70FEF745FA2B68AD
S31508001EC09F04F5D5614A624B1168184621F0010155
S31508001ED0116012681A6842F440421A601B68036867
S31508001EE09E04FCD5434B1A6842F480221A601A688D
S31508001EF042F480321A601A6895030CD41C46554D74
S31508001F0002E0013D00F0AD814FF47A70FEF71CFA4D
S31508001F1023689803F5D5374B1A6842F480521A603D
S31508001F201A6894040DD41C4640F2D17502E0013DAE
S31508001F3000F096814FF47A70FEF706FA2368990442
S31508001F40F5D52D4B1B6803F03803182B00F0878155
S31508001F50284B1A6822F080721A601A6892010DD509
S31508001F601C4640F2D17502E0013D00F06C814FF449
S31508001F707A70FEF7E9F923689E01F5D42348364AB4
S31508001F800368234D1A40354E354B42F04202354C14
S31508001F90354902602E601868164A20F0010018605C
S31508001FA0206801402160196821F00C0141F0080100
S31508001FB01960196821F002011960196841F4803125
S31508001FC01960196841F400311960196841F48021D3
S31508001FD01960196841F001011960136843F08073AC
S31508001FE0136013689F014FD4144640F2D17544E03C
S31508001FF088ED00E000440258104402587FEDF6EAE6
S315080020001C440258204402581844025828440258CE
S3150800201030440258444402580010005C0000FFFF98
S315080020200881005124ED00E094ED00E09CED00E00D
S31508002030A0ED00E00900010314ED00E080ED00E0EA
S3150800204060EF00E00C480258044802582C04005877
S3150800205018480258414B4C000CFCFFFF8F03030144
S315080020602C440258344402580700FFFF98ED00E05C
S3150800207000000430013D00F0E5804FF47A70FEF769
S3150800208063F923689901F5D57649774B0A6842F4CE
S3150800209040120A601A6842F000721A601A68500103
S315080020A00DD41C464CF2513502E0013D00F0C980C2
S315080020B04FF47A70FEF748F923685A01F5D56B4B49
S315080020C01A6802F00F02032A09D81A6842F00F02AA
S315080020D01A601B6803F00F030F2B40F0B180644AA7
S315080020E0136803F070033F2B05D8136823F07003B9
S315080020F043F0400313605F4A136803F070033F2BF5
S3150800210005D8136823F0700343F040031360594A57
S31508002110136803F4E063B3F5806F05D2136823F4FC
S31508002120E06343F480631360534A136803F0700353
S315080021303F2B05D8136823F0700343F04003136060
S315080021404B4A136803F00F03072B05D8136823F0CF
S315080021500F0343F008031360454A4849136823F4FC
S31508002160706313600B689B016AD5454B1A6822F0A9
S31508002170070242F003021A601A6802F03802182AA7
S315080021800DD01C463F4D01E0013D5DD04FF47A70FD
S31508002190FEF7DAF8236803F03803182BF4D1344A2B
S315080021A0136803F00F03082B05D9136823F00F03F0
S315080021B043F0080313602D4B1A6802F00F02042A35
S315080021C043D82B4A136803F07003402B05D91368CC
S315080021D023F0700343F040031360264A136803F0A4
S315080021E07003402B05D9136823F0700343F04003AE
S315080021F01360204A136803F4E063B3F5806F05D9CA
S31508002200136823F4E06343F4806313601A4A13687F
S3150800221003F07003402B05D9136823F0700343F0CD
S3150800222040031360124B1C68FFF78EFC164BC4F371
S315080022300324164A1B5D03F01F03D8401060F8BD3F
S31508002240FEE7FDE7FCE7FBE7FAE71A6842F00F024C
S315080022501A601B6803F00F030F2BF1D1B1E7EFE704
S31508002260EEE7EDE7544402580C48025800200052A5
S31508002270184402581C440258204402580044025884
S3150800228010440258414B4C00F039000844F200381B
S31508002290D14BD24A2DE9F0471E68044615689F6857
S315080022A0FFF752FCCE4AC6F30323C7F3021106F022
S315080022B00F06D75CC5F3021E935DC5F3022607F029
S315080022C01F07555C03F01F0312F80E10F840925DC5
S315080022D005F01F0501F01F0120FA03F302F01F02A3
S315080022E0C04E23FA05F523FA02F223FA01F1BE4F8E
S315080022F02561BE4D6360E2603860A160206033608E
S315080023002E68BB4ABB4BC6F3053510681B68002D03
S3150800231000F08480C3F3CC0300F0100000FB03F048
S3150800232000F08CFF16F00306824600F07181022E3B
S3150800233000F00C81B04B186800F01F0000F07EFF1B
S3150800234000F010FC06460F46504600F00BFC002233
S31508002350AA4B00F05BFC02460B463046394600F0B5
S31508002360A3FA0022A64B00F09FFA064628460F4617
S3150800237000F064FF0146A34801F06CF800F0F2FB98
S3150800238002460B463046394600F040FC00F050FE47
S31508002390994B1D6800F0E6FB06460F46C5F3462036
S315080023A000F04CFF00F0DEFB0022954B00F07CFAB3
S315080023B002460B463046394600F052FD00F038FE1C
S315080023C001F0E4F86061C5F3064000F037FF00F05D
S315080023D0C9FB00228A4B00F067FA02460B463046D4
S315080023E0394600F03DFD00F023FE01F0CFF8A0616C
S315080023F0C5F3066000F022FF00F0B4FB0022804B14
S3150800240000F052FA02460B463046394600F028FDDF
S3150800241000F00EFE01F0BAF8E06102E06561A56120
S31508002420E561724B724A1E681C331068C6F305557F
S315080024301B68002D00F08580C3F3CC0300F4807080
S3150800244000FB03F000F0FAFE16F00306824600F0E1
S315080024501381022E00F09D806B4B1868C0F30800AC
S3150800246000F0ECFE00F07EFB06460F46504600F0F4
S3150800247079FB0022614B00F0C9FB02460B46304649
S31508002480394600F011FA00225D4B00F00DFA0646B7
S3150800249028460F4600F0D2FE01465A4800F0DAFFF9
S315080024A000F060FB02460B463046394600F0AEFBAC
S315080024B000F0BEFD544B1D6800F054FB06460F465F
S315080024C0C5F3462000F0BAFE00F04CFB00224C4B48
S315080024D000F0EAF902460B463046394600F0C0FCE1
S315080024E000F0A6FD01F052F82062C5F3064000F0A0
S315080024F0A5FE00F037FB0022414B00F0D5F9024655
S315080025000B463046394600F0ABFC00F091FD01F071
S315080025103DF86062C5F3066000F090FE00F022FB0D
S315080025200022374B00F0C0F902460B4630463946C2
S3150800253000F096FC00F07CFD01F028F8A062BDE8EA
S31508002540F08725626562A562BDE8F0872A4B1868A0
S3150800255000F01F0000F072FE00F004FB06460F466E
S31508002560504600F0FFFA0022244B00F04FFB0246CB
S315080025700B463046394600F097F90022204B00F00A
S3150800258093F9064628460F4600F058FE01461F48AE
S31508002590F2E61D4B1868C0F3080000F04FFE00F085
S315080025A0E1FA06460F46504600F0DCFA0022134BC5
S315080025B000F02CFB02460B463046394600F074F90B
S315080025C000220F4B00F070F9064628460F4600F029
S315080025D035FE01460D4861E7184402581C44025866
S315080025E0F039000848F2003844F200382844025806
S315080025F02C4402583C440258384402580000203FF4
S315080026000000F03F0024744A404402580024F44A6B
S31508002610564B1A68910663D51B685548C3F3C10320
S31508002620544A1841D2F8008000F008FE06462846AB
S3150800263000F004FE0146304600F00CFF00F092FA66
S31508002640064608F01F000F4600F0F8FD00F08AFA6B
S3150800265080468946504600F085FA0022464B00F02F
S31508002660D5FA02460B464046494600F01DF90022B7
S31508002670424B00F019F983E63C4B1A68920652D58C
S315080026801B683B48C3F3C1033D4A1841D2F8008092
S3150800269000F0D4FD0646284600F0D0FD0146304637
S315080026A000F0D8FE00F05EFA0646C8F308000F46AA
S315080026B000F0C4FD00F056FA80468946504600F000
S315080026C051FA00222C4B00F0A1FA02460B4640466E
S315080026D0494600F0E9F80022284B00F0E5F8E1E663
S315080026E0244B186800F01F0000F0A8FD00F03AFA25
S315080026F006460F46504600F035FA00221E4B00F0FB
S3150800270085FA02460B463046394600F0CDF80022D7
S315080027101A4B00F0C9F8064628460F4600F08EFD0B
S315080027200146184828E6164B1868C0F3080000F05A
S3150800273085FD00F017FA06460F46504600F012FAD5
S3150800274000220D4B00F062FA02460B463046394627
S3150800275000F0AAF80022094B00F0A6F8064628461B
S315080027600F4600F06BFD0146064897E600440258FE
S315080027700090D003384402580000203F0000F03F84
S31508002780404402580024744C000000000000000079
S31508002790000000000000000000000000000000002B
S315080027A0000000000000000000000000000000001B
S315080027B0000000000000000000000000000000000B
S315080027C090F800F06DE9024520F007016FF0000C63
S315080027D010F0070491F820F040F049804FF000040B
S315080027E06FF00700D1E9002391F840F000F10800E6
S315080027F082FA4CF2A4FA8CF283FA4CF3A2FA8CF31E
S315080028004BBBD1E9022382FA4CF200F10800A4FA84
S315080028108CF283FA4CF3A2FA8CF3E3B9D1E90423D8
S3150800282082FA4CF200F10800A4FA8CF283FA4CF30F
S31508002830A2FA8CF37BB9D1E9062301F1200182FAC9
S315080028404CF200F10800A4FA8CF283FA4CF3A2FACF
S315080028508CF3002BC6D0002A04BF04301A4612BADD
S31508002860B2FA82F2FDE8024500EBD2007047D1E9E0
S31508002870002304F00305C4F100004FEAC50514F06F
S31508002880040F91F840F00CFA05F562EA05021CBF40
S3150800289063EA050362464FF00004A9E781F00041A8
S315080028A002E000BF83F0004330B54FEA41044FEA27
S315080028B0430594EA050F08BF90EA020F1FBF54EAC2
S315080028C0000C55EA020C7FEA645C7FEA655C00F05E
S315080028D0E2804FEA5454D4EB5555B8BF6D420CDD2F
S315080028E02C4480EA020281EA030382EA000083EAB2
S315080028F0010180EA020281EA0303362D88BF30BD52
S3150800290011F0004F4FEA01314FF4801C4CEA1131A7
S3150800291002D0404261EB410113F0004F4FEA033306
S315080029204CEA133302D0524263EB430394EA050F91
S3150800293000F0A780A4F10104D5F1200E0DDB02FA00
S315080029400EFC22FA05F2801841F1000103FA0EF294
S31508002950801843FA05F359410EE0A5F120050EF15A
S31508002960200E012A03FA0EFC28BF4CF0020C43FA8B
S3150800297005F3C01851EBE37101F0004507D54FF098
S31508002980000EDCF1000C7EEB00006EEB0101B1F5E8
S31508002990801F1BD3B1F5001F0CD349085FEA30002E
S315080029A04FEA3C0C04F101044FEA445212F5800F39
S315080029B080F09A80BCF1004F08BF5FEA500C50F1D6
S315080029C0000041EB045141EA050130BD5FEA4C0CB9
S315080029D0404141EB010111F4801FA4F10104E9D142
S315080029E091F0000F04BF01460020B1FA81F308BF39
S315080029F02033A3F10B03B3F120020CDA0C3208DD05
S31508002A0002F1140CC2F10C0201FA0CF021FA02F1DF
S31508002A100CE002F11402D8BFC2F1200C01FA02F14F
S31508002A2020FA0CFCDCBF41EA0C019040E41AA2BF74
S31508002A3001EB0451294330BD6FEA04041F3C1CDA3C
S31508002A400C340EDC04F11404C4F1200220FA04F05C
S31508002A5001FA02F340EA030021FA04F345EA030106
S31508002A6030BDC4F10C04C4F1200220FA02F001FAC8
S31508002A7004F340EA0300294630BD21FA04F029464A
S31508002A8030BD94F0000F83F4801306BF81F48011E3
S31508002A900134013D4EE77FEA645C18BF7FEA655C56
S31508002AA029D094EA050F08BF90EA020F05D054EA28
S31508002AB0000C04BF1946104630BD91EA030F1EBF2D
S31508002AC00021002030BD5FEA545C05D14000494131
S31508002AD028BF41F0004130BD14F580043CBF01F524
S31508002AE0801130BD01F0004545F0FE4141F470010A
S31508002AF04FF0000030BD7FEA645C1ABF19461046E5
S31508002B007FEA655C1CBF0B46024650EA013406BFE5
S31508002B1052EA033591EA030F41F4002130BD00BFA4
S31508002B2090F0000F04BF0021704730B54FF4806461
S31508002B3004F132044FF000054FF0000150E700BFE2
S31508002B4090F0000F04BF0021704730B54FF4806441
S31508002B5004F1320410F0004548BF40424FF000012E
S31508002B603EE700BF42004FEAE2014FEA31014FEA71
S31508002B7002701FBF12F07F4393F07F4F81F06051C0
S31508002B80704792F0000F14BF93F07F4F704730B52F
S31508002B904FF4607401F0004521F0004120E700BFC2
S31508002BA050EA010208BF704730B54FF000050AE049
S31508002BB050EA010208BF704730B511F0004502D54A
S31508002BC0404261EB41014FF4806404F132045FEA4C
S31508002BD0915C3FF4DCAE4FF003025FEADC0C18BFF1
S31508002BE003325FEADC0C18BF033202EBDC02C2F1E7
S31508002BF0200300FA03FC20FA02F001FA03FE40EA79
S31508002C000E0021FA02F11444C1E600BF70B54FF078
S31508002C10FF0C4CF4E06C1CEA11541DBF1CEA13555A
S31508002C2094EA0C0F95EA0C0F00F0DEF82C4481EAC2
S31508002C30030621EA4C5123EA4C5350EA013518BFE2
S31508002C4052EA033541F4801143F4801338D0A0FBCF
S31508002C5002CE4FF00005E1FB02E506F00042E0FB7C
S31508002C6003E54FF00006E1FB03569CF0000F18BF82
S31508002C704EF0010EA4F1FF04B6F5007F64F540742A
S31508002C8004D25FEA4E0E6D4146EB060642EAC621BD
S31508002C9041EA55514FEAC52040EA5E504FEACE2E2A
S31508002CA0B4F1FD0C88BFBCF5E06F1ED8BEF1004F2D
S31508002CB008BF5FEA500E50F1000041EB045170BDA9
S31508002CC006F0004646EA010140EA020081EA0301ED
S31508002CD0B4EB5C04C2BFD4EB0C0541EA045170BDE9
S31508002CE041F480114FF0000E013C00F3AB8014F163
S31508002CF0360FDEBF002001F0004170BDC4F10004AC
S31508002D00203C35DA0C341BDC04F11404C4F120052C
S31508002D1000FA05F320FA04F001FA05F240EA020087
S31508002D2001F0004221F0004110EBD37021FA04F6BD
S31508002D3042EB06015EEA430E08BF20EAD37070BD77
S31508002D40C4F10C04C4F1200500FA04F320FA05F0D6
S31508002D5001FA04F240EA020001F0004110EBD370D8
S31508002D6041F100015EEA430E08BF20EAD37070BD48
S31508002D70C4F1200500FA05F24EEA020E20FA04F321
S31508002D8001FA05F243EA020321FA04F001F00041D0
S31508002D9021FA04F220EA020000EBD3705EEA430E41
S31508002DA008BF20EAD37070BD94F0000F0FD101F070
S31508002DB00046400041EB010111F4801F08BF013CA9
S31508002DC0F7D041EA060195F0000F18BF704703F0E7
S31508002DD00046520043EB030313F4801F08BF013D6E
S31508002DE0F7D043EA0603704794EA0C0F0CEA13552A
S31508002DF018BF95EA0C0F0CD050EA410618BF52EAE4
S31508002E004306D1D181EA030101F000414FF00000E9
S31508002E1070BD50EA410606BF1046194652EA4306F7
S31508002E2019D094EA0C0F02D150EA013613D195EA6B
S31508002E300C0F05D152EA03361CBF104619460AD1B3
S31508002E4081EA030101F0004141F0FE4141F47001BD
S31508002E504FF0000070BD41F0FE4141F4780170BDAD
S31508002E6070B54FF0FF0C4CF4E06C1CEA11541DBF12
S31508002E701CEA135594EA0C0F95EA0C0F00F0A7F814
S31508002E80A4EB050481EA030E52EA03354FEA013141
S31508002E9000F088804FEA03334FF0805545EA131354
S31508002EA043EA12634FEA022245EA111545EA10651C
S31508002EB04FEA00260EF000419D4208BF964244F1B3
S31508002EC0FD0404F5407402D25B084FEA3202B61AD2
S31508002ED065EB03055B084FEA32024FF480104FF4A6
S31508002EE0002CB6EB020E75EB030E22BFB61A75461A
S31508002EF040EA0C005B084FEA3202B6EB020E75EBAD
S31508002F00030E22BFB61A754640EA5C005B084FEA14
S31508002F103202B6EB020E75EB030E22BFB61A7546E1
S31508002F2040EA9C005B084FEA3202B6EB020E75EBEC
S31508002F30030E22BFB61A754640EADC0055EA060EAD
S31508002F4018D04FEA051545EA16754FEA06164FEAF0
S31508002F50C30343EA52734FEAC2025FEA1C1CC0D19C
S31508002F6011F4801F0BD141EA00014FF000004FF029
S31508002F70004CB6E711F4801F04BF01430020B4F1EA
S31508002F80FD0C88BFBCF5E06F3FF6AFAEB5EB030CA2
S31508002F9004BFB6EB020C5FEA500C50F1000041EB9F
S31508002FA0045170BD0EF0004E4EEA113114EB5C046C
S31508002FB0C2BFD4EB0C0541EA045170BD41F480113F
S31508002FC04FF0000E013C90E645EA060E8DE60CEA47
S31508002FD0135594EA0C0F08BF95EA0C0F3FF43BAF64
S31508002FE094EA0C0F0AD150EA01347FF434AF95EA1B
S31508002FF00C0F7FF425AF104619462CE795EA0C0FFF
S3150800300006D152EA03353FF4FDAE1046194622E7CB
S3150800301050EA410618BF52EA43067FF4C5AE50EAA5
S3150800302041047FF40DAF52EA43057FF4EBAE12E795
S315080030304FEA4102B2F1E04324BFB3F5001CDCF1CC
S31508003040FE5C0DD901F0004C4FEAC0024CEA507004
S31508003050B2F1004F40EB830008BF20F00100704733
S3150800306011F0804F21D113F13872BCBF01F0004036
S31508003070704741F480114FEA5252C2F11802C2F168
S31508003080200C10FA0CF320FA02F018BF40F00100E9
S315080030904FEAC1234FEAD32303FA0CFC40EA0C009B
S315080030A023FA02F34FEA4303CCE77FEA625307D1D8
S315080030B050EA01331EBF4FF0FE4040F4400070470F
S315080030C001F0004040F0FE4040F40000704700BFA9
S315080030D080F0004002E000BF81F0004142001FBFBF
S315080030E05FEA410392EA030F7FEA226C7FEA236CC8
S315080030F06AD04FEA1262D2EB1363C1BFD2184140BD
S3150800310048404140B8BF5B42192B88BF704710F052
S31508003110004F40F4000020F07F4018BF404211F0F5
S31508003120004F41F4000121F07F4118BF494292EA5D
S31508003130030F3FD0A2F1010241FA03FC10EB0C0089
S31508003140C3F1200301FA03F100F0004302D5494216
S3150800315060EB4000B0F5000F13D3B0F1807F06D3C3
S3150800316040084FEA310102F10102FE2A51D2B1F1BB
S31508003170004F40EBC25008BF20F0010040EA0300B0
S315080031807047490040EB000010F4000FA2F101025D
S31508003190EDD1B0FA80FCACF1080CB2EB0C0200FAE7
S315080031A00CF0AABF00EBC25052421843BCBFD04035
S315080031B01843704792F0000F81F4000106BF80F4AF
S315080031C000000132013BB5E74FEA41037FEA226C72
S315080031D018BF7FEA236C21D092EA030F04D092F03D
S315080031E0000F08BF0846704790EA010F1CBF002071
S315080031F0704712F07F4F04D1400028BF40F00040CE
S31508003200704712F100723CBF00F50000704700F0ED
S31508003210004343F0FE4040F4000070477FEA226214
S3150800322016BF08467FEA23630146420206BF5FEAE5
S31508003230412390EA010F40F4800070474FF00003E5
S3150800324004E000BF10F0004348BF40425FEA000CAC
S3150800325008BF704743F0964301464FF000001CE054
S3150800326050EA010208BF70474FF000030AE000BFAA
S3150800327050EA010208BF704711F0004302D54042E8
S3150800328061EB41015FEA010C02BF8446014600205A
S3150800329043F0B64308BFA3F18053A3F50003BCFA75
S315080032A08CF2083AA3EBC25310DB01FA02FC634422
S315080032B000FA02FCC2F12002BCF1004F20FA02F229
S315080032C043EB020008BF20F00100704702F120021C
S315080032D001FA02FCC2F1200250EA4C0021FA02F27D
S315080032E043EB020008BF20EADC7070474FF0FF0C82
S315080032F01CEAD0521EBF1CEAD15392EA0C0F93EA7D
S315080033000C0F6FD01A4480EA010C400218BF5FEA1E
S3150800331041211ED04FF0006343EA501043EA511191
S31508003320A0FB01310CF00040B1F5000F3EBF49008B
S3150800333041EAD3715B0040EA010062F17F02FD2A8F
S315080033401DD8B3F1004F40EBC25008BF20F0010072
S31508003350704790F0000F0CF0004C08BF49024CEA89
S31508003360502040EA51207F3AC2BFD2F1FF0340EA1B
S31508003370C250704740F400004FF00003013A5DDC8C
S3150800338012F1190FDCBF00F000407047C2F10002CD
S31508003390410021FA02F1C2F1200200FA02FC5FEABA
S315080033A0310040F1000053EA4C0308BF20EADC7004
S315080033B0704792F0000F00F0004C02BF400010F476
S315080033C0000F013AF9D040EA0C0093F0000F01F023
S315080033D0004C02BF490011F4000F013BF9D041EA45
S315080033E00C018FE70CEAD15392EA0C0F18BF93EA47
S315080033F00C0F0AD030F0004C18BF31F0004CD8D171
S3150800340080EA010000F00040704790F0000F17BFF7
S3150800341090F0004F084691F0000F91F0004F14D03D
S3150800342092EA0C0F01D142020FD193EA0C0F03D195
S315080034304B0218BF084608D180EA010000F0004098
S3150800344040F0FE4040F40000704740F0FE4040F473
S31508003450400070474FF0FF0C1CEAD0521EBF1CEA12
S31508003460D15392EA0C0F93EA0C0F69D0A2EB030230
S3150800347080EA010C49024FEA402037D04FF08053CA
S3150800348043EA111143EA10130CF000408B4238BF8F
S315080034905B0042F17D024FF4000C8B4224BF5B1A9D
S315080034A040EA0C00B3EB510F24BFA3EB510340EAEB
S315080034B05C00B3EB910F24BFA3EB910340EA9C0099
S315080034C0B3EBD10F24BFA3EBD10340EADC001B0109
S315080034D018BF5FEA1C1CE0D1FD2A3FF650AF8B42AD
S315080034E040EBC25008BF20F0010070470CF0004CBA
S315080034F04CEA50207F32C2BFD2F1FF0340EAC250E5
S31508003500704740F400004FF00003013A37E792F0A5
S31508003510000F00F0004C02BF400010F4000F013A03
S31508003520F9D040EA0C0093F0000F01F0004C02BFFE
S31508003530490011F4000F013BF9D041EA0C0195E767
S315080035400CEAD15392EA0C0F08D142027FF47DAF00
S3150800355093EA0C0F7FF470AF084676E793EA0C0FF0
S3150800356004D14B023FF44CAF08466EE730F0004CEE
S3150800357018BF31F0004CCAD130F000427FF45CAF7E
S3150800358031F000437FF43CAF5FE700BF42000ED244
S31508003590B2F1FE4F0BD34FF09E03B3EB126209D480
S315080035A04FEA002343F0004323FA02F070474FF036
S315080035B00000704712F1610F01D1420202D14FF0AB
S315080035C0FF3070474FF00000704700BF0000000052
S315080035D053544D3332483734332D4E75636C656F0B
S315080035E0313434204D6F6E69746F722076312E3007
S315080035F0330D0A436F707972696768742028432906
S3150800360020313939392D323030342043534520544E
S315080036106F6D616B6F6D6169204E43540D0A436F80
S3150800362070797269676874202843292032303136E8
S315080036302D3230313920544F505045525320505274
S315080036404F4A4543542E002D2D2D2D2D2D2D2D2D34
S315080036502D2D2D2D2D2D2D2D2D2D2D2D2D2D2D2D8C
S315080036602D2D2D2D2D2D2D2D2D2D2D2D2D2D2D2D7C
S315080036702D2D2D2D2D2D2D2D2D2D2D2D2D2D2D2D6C
S315080036802D2D2D2D2D2D2D2D2D2D2D2D2D2D2D2D5C
S315080036902D2D2D006C642020202020202020202085
S315080036A02020206C6F61642070726F6772616D20D4
S315080036B02020202020202020207C20676F5B3C6172
S315080036C0643E5D20202020202020676F2070726FC6
S315080036D06772616D0064625B3C61643E5B3C6C6E64
S315080036E03E5D5D2064756D702062797465202020CA
S315080036F0202020202020202020207C2064775B3C6E
S3150800370061643E5B3C6C6E3E5D5D2064756D702049
S31508003710776F726400646C5B3C61643E5B3C6C6E04
S315080037203E5D5D2064756D70206C6F6E6720776FE7
S31508003730726420202020202020207C2065625B3CAB
S3150800374061643E5D20202020202020656E7465720D
S3150800375020627974650065775B3C61643E5B3C6C0E
S315080037606E3E5D5D20656E74657220776F726420AB
S3150800377020202020202020202020207C20656C5B13
S315080037803C61643E5D20202020202020656E746503
S3150800379072206C6F6E6720776F72640066625B3C9E
S315080037A061643E5B3C6C6E3E5B3C696E3E5B3C69AD
S315080037B0633E5B3C72703E5D5D5D5D5D2066696C77
S315080037C06C2062797465003F20202020202020206C
S315080037D020202020202068656C7000000000000072
S315080037E06C65776562656C64776462646266646C4E
S315080037F06F67003F000000002D070008F10600086B
S31508003800B50600080109000841080008690700080C
S31508003810190B0008E9030008A1030008790300084A
S3150800382053746172742041646472657373203D2019
S31508003830253038780A000000456E6420202041644F
S315080038406472657373203D20253038780A000000BD
S31508003850456E7472792041646472657373203D20E5
S31508003860253038780A0000004572726F72203D20B4
S31508003870253038780A00000000000000000000002B
S31508003880257800002530386C783A253032783A00A9
S315080038902530386C783A2530386C783A00000000C4
S315080038A02530386C783A253034783A002530386C2B
S315080038B07800000025303278000000002530347882
S315080038C000000000253032780A0000000048004059
S315080038D0270000004E4D4920457863657074696F6E
S315080038E06E206F63637572732E20210A0000000034
S315080038F048617264204661756C742045786365700A
S3150800390074696F6E206F63637572732E20210A00C7
S315080039104D656D6F7279204D616E616765722045E0
S315080039207863657074696F6E206F63637572732E42
S3150800393020210A00427573204661756C742045780B
S3150800394063657074696F6E206F63637572732E207A
S31508003950210A00005573616765204661756C7420FD
S31508003960457863657074696F6E206F6363757273EB
S315080039702E20210A000000004465627567204D6FFD
S315080039806E69746F7220457863657074696F6E200E
S315080039906F63637572732E20210A000050656E648A
S315080039A020535620457863657074696F6E206F637F
S315080039B0637572732E20210A0000000030313233FD
S315080039C03435363738390000303132333435363706
S315080039D0383961626364656600000000303132334D
S315080039E034353637383941424344454600000000ED
S315080039F00000000001020304010203040607080987
S70508000300EF
