S00E0000726F6D6D6F6E2E737265637E
S315080000004C360000E5010008E10F0008F10F000872
S315080000100110000811100008211000080000000057
S315080000200000000000000000000000005102000867
S3150800003031100008000000004110000851020008B5
S315080000405102000851020008510200085102000836
S315080000505102000851020008510200085102000826
S315080000605102000851020008510200085102000816
S315080000705102000851020008510200085102000806
S3150800008051020008510200085102000851020008F6
S3150800009051020008510200085102000851020008E6
S315080000A051020008510200085102000851020008D6
S315080000B051020008510200085102000851020008C6
S315080000C051020008510200085102000851020008B6
S315080000D051020008DD12000851020008510200080A
S315080000E05102000851020008510200085102000896
S315080000F05102000851020008510200085102000886
S315080001005102000851020008510200085102000875
S315080001105102000851020008510200085102000865
S315080001205102000851020008510200085102000855
S315080001305102000851020008510200085102000845
S315080001405102000851020008510200085102000835
S315080001505102000851020008510200085102000825
S315080001605102000851020008510200085102000815
S315080001705102000851020008510200080000000060
S3150800018051020008510200085102000851020008F5
S3150800019051020008510200085102000851020008E5
S315080001A051020008510200085102000851020008D5
S315080001B051020008510200085102000851020008C5
S30D080001C0510200085102000873
S315080001C8000000000000000060240008003000005D
S315080001D800300000003000004C320000DFF850D034
S315080001E8002100F004B8134B5B58435004311248F9
S315080001F8124B42189A42FFF4F6AF114A00F003B8B8
S31508000208002342F8043B0F4B9A42FFF4F9AF01F07A
S3150800021867FC00F00FF97047A0F16400002800F3A6
S3150800022801807047A0F1090000283FF7FBAF704727
S315080002384C3600006024000800300000003000003A
S31508000248003000004C320000FFF7FEBF38B5084CF6
S315080002582078254601F062F914F8010F0028F8D12C
S315080002680A2001F05BF9A878AC1C0028F1D138BD42
S315080002783020000838B50C4608468021256800F065
S3150800028841FC2368AB420ABF084B04465C6800F089
S3150800029893FE064801F0A2F8A04700F08DFE044830
S315080002A801F09CF8BDE8384000F08EBE000000203A
S315080002B8000000082DE9F04F504BDFF85481612201
S315080002C84FF0000B1A5483B004465F46D946DA46FF
S315080002D8204600F055FC4FF0FF30214600F062FC3E
S315080002E800900028F7D010F8013B532B0090EFD167
S315080002F8431C022101A8019300F004FC019B023B60
S31508000308054601930026022101A800F0FBFB013DE2
S315080003180644F8D5013EF6B2FD2E0AD818F8043078
S31508000328D94633B943F21802C0F20002F12313552D
S31508000338D946009B13F8016B02216846009300F022
S31508000348E1FB312E054623D0322E3CD0332E3ED043
S31508000358372E40D0382E44D0392E48D0373EF6B2FC
S31508000368022EB5D83946264801F050FB5946254885
S3150800037801F04CFB2448514601F048FB18F80430B4
S315080003881BB12248494601F041FB03B0BDE8F08F8E
S315080003986FF0010B0421684600F0B4FB6B1E5B4442
S315080003A8002F08BF0746002B8346D7DD03EB000B53
S315080003B805460221684600F0A5FB05F8010B5D45D0
S315080003C8F7D1AB46CAE76FF0020B0621E3E76FF0F1
S315080003D8030B0821DFE76846042100F093FB8246F1
S315080003E8BCE76846062100F08DFB8246B6E76846F4
S315080003F8082100F087FB8246B0E700BF14300000EA
S315080004088022000898220008B0220008C82200089E
S315080004181830000010B5044600F06AF843F21803CD
S31508000428C0F20003002220461A55BDE8104000F025
S31508000438A7BB00BF08B5134800F0D0FF124B1B68CE
S3150800044803B19847002000F023FC1049104B4FF0E1
S3150800045800520A600F491B680A600F4A6121117029
S3150800046803B1984700F0B0FD002001F07BF80B486F
S3150800047801F03CF80020FFF7CDFF002000F042FA13
S31508000488FBE700BF00000008DC2200081030000067
S31508000498D82200081C30000014300000302000085C
S315080004A8F8B50C4605460846164600F04BFB80216B
S315080004B82046276800F026FB30602368BB420DD02B
S315080004C8204600F03FFB20468021256800F01AFBED
S315080004D823689D4208BF4FF48070F8BD034B53F854
S315080004E825304FF480703360F8BD00BF1C3000001B
S315080004F808B5154B1B5C652B01460ED1134B1B5CC7
S31508000508012B18D0042B124B53F820100DD00A884B
S315080005181048BDE8084001F079BA0F4801F076FAA4
S315080005283A20BDE8084000F0F9BF0A680B48BDE85C
S31508000538084001F06BBA064B53F8201008480A78A9
S31508000548BDE8084001F062BA143000000030000027
S3150800055810300000FC220008E0220008F0220008FB
S31508000568E422000870B50D460446802128462E6800
S3150800057800F0C8FA2B68B342064B08BF53F82400A4
S3150800058843F82400044B65221A55044B01221A55D0
S3150800059870BD00BF103000001430000000300000A5
S315080005A870B50D460446802128462E6800F0AAFA3A
S315080005B82B68B342064B08BF53F8240043F82400B7
S315080005C8044B65221A55044B02221A5570BD00BF02
S315080005D810300000143000000030000070B50D46D9
S315080005E80446802128462E6800F08CFA2B68B34208
S315080005F8064B08BF53F8240043F82400044B652229
S315080006081A55044B04221A5570BD00BF1030000055
S3150800061814300000003000002DE9F04782B001AA26
S315080006280446FFF73DFF0028054670DD01993F4B54
S3150800063843F8241001F00F0A21F00F013C4801F095
S31508000648E5F90AEB4A010131202000F08DFA002D60
S31508000658CAF11008D4BF00230123B8F1000FD4BF8C
S31508000668002303F00103DDF80490002B58D0474611
S315080006782E4613E02D2100F00FFC19F8011B2D4812
S3150800068801F0C4F9013F013E002FD4BF002301231E
S31508000698002ED4BF002303F0010383B1A7F1080293
S315080006A8534243EB0203AE420CBF002303F0010397
S315080006B82046002BDED1202100F0EEFBDDE70AF10B
S315080006C80201202000F050FA019B13F8011BA1F142
S315080006D82002D2B25E2A88BF2E212046019308F14D
S315080006E8FF3800F0D9FB013DB8F1000FD4BF00234D
S315080006F80123002DD4BF002303F00103002BE3D107
S315080007080A2000F00BFF15B10199C24694E70A4B77
S3150800071864221A55094B01221A5502B0BDE8F0871A
S315080007280AF10201202000F01FFAE9E71C30000050
S3150800073808230008102300081430000000300000C1
S31508000748F0B583B001AA0446FFF7AAFE002855DDCE
S31508000758019D2E4B25F00101013020F0010743F8D1
S315080007682410019105F00E053E4621F00F01284890
S3150800077801F04CF905EBD571491001EB81010131FE
S31508000788202000F0F1F9002EC5F11005D4BF00238A
S315080007980123002DD4BF002303F00103BBB926E0CB
S315080007A82D2000F0BBFE019B1A48198801F02EF986
S315080007B8023D023E019A002DD4BF00230123002ED4
S315080007C8D4BF002303F00103023201927BB1A5F1DD
S315080007D808014B4243EB0103BE420CBF002303F05A
S315080007E80103002BDCD1202000F098FEDBE70A2065
S315080007F800F094FE002E01DD0199B6E7064B642247
S315080008081A55064B02221A5503B0F0BD1C300000D3
S3150800081808230008182300081430000000300000D8
S31508000828F0B583B001AA0446FFF73AFE002859DD59
S31508000838019D304B25F00301033020F0030743F8E8
S315080008482410019105F00C053E4621F00F012A48AF
S3150800085801F0DCF8E91C11EA250138BF2946891098
S3150800086801EBC1010131202000F07EF9002EC5F107
S315080008781005D4BF00230123002DD4BF002303F09D
S315080008880103BBB927E02D2100F006FB019B1A4896
S31508000898196801F0BBF8043D043E019A002DD4BF3F
S315080008A800230123002ED4BF002303F001030432DA
S315080008B8019283B1A5F10800434243EB0003BE4207
S315080008C80CBF002303F001032046002BDBD12021AF
S315080008D800F0E2FADAE70A2000F020FE002E01DD31
S315080008E80199B2E7054B64221A55054B04221A5595
S315080008F803B0F0BD1C3000000823000814300000BF
S315080009080030000070B5044682B0214600F04AF966
S31508000918009090B1037893B94A4B1B5D642B4AD073
S31508000928652B07D1484B494A53F82410125D8A1893
S3150800093843F824202046FFF76DFD02B070BD414AF2
S31508000948115D652944D0421C00924178D1B9404AC4
S31508000958108860B141EA03210025814202D114E0DA
S31508000968994213D032F8023F0135002BF8D13F20BF
S3150800097800F0D4FD0121374801F048F82046FFF772
S3150800098849FDDAE702300090E1E70025684600F0FD
S31508000998D9F8314B204653F82530694698472F4BE6
S315080009A81D5D002DC6D03F2000F0B8FD2946294810
S315080009B801F02CF8BEE7254B1B5D012B2BD0022B2B
S315080009C82ED0042BB6D120466946FFF729FFB1E792
S315080009D82E2B14D01D4B01901B5D1B4D012B24D0CB
S315080009E88021042B01A855F824600BD000F08AF85A
S315080009F855F824303080023345F824309AE76123C5
S31508000A08135597E700F07EF855F82430306004331C
S31508000A1845F824308EE720466946FFF7FDFD89E745
S31508000A2820466946FFF78CFE84E701A8802155F819
S31508000A38246000F067F8307055F82430013345F81B
S31508000A48243077E71430000010300000003000002A
S31508000A584022000820230008582200081830000001
S31508000A682DE9F04182B001AA0C46FFF719FD0746A1
S31508000A78204600F067F880212046256800F042F8ED
S31508000A88266803462046AE4214BF1E46002600F0D6
S31508000A9859F880212046256800F034F8226803466C
S31508000AA82046AA4214BF1D46002500F04BF88021AF
S31508000AB82046D4F8008000F025F82368434517D067
S31508000AC8002812DD7C1E05FB04F4002F0ADD019BB5
S31508000AD83246D91903F8012B8B422A440193F9D1D6
S31508000AE8AE19361901380028EFDC02B0BDE8F081E6
S31508000AF80120E7E700F00F00092801D957307047A9
S31508000B0830307047F0B403460468002014F8012B07
S31508000B18602A01D9203AD2B2A2F13005EEB2A2F182
S31508000B284107092EFFB205D9052F01D9F0BC704730
S31508000B38A2F137050029F9DD05EB00101C6001391B
S31508000B48E4E700BF03681A7862B1202A08BF194685
S31508000B5802D007E0202A05D10133036011F8012FD6
S31508000B68002AF7D1704700BF002938B50C46054654
S31508000B7804DD284600F0D2FC013CFAD138BD00BF96
S31508000B8843F20403C0F2000343F2200203EB800198
S31508000B98C0F2000210B402EBC01200241C544A60CA
S31508000BA810BC70472DE9F84F2E4F4FEA81090D46BC
S31508000BB87B5C2D4907EB0902824601EBC518566886
S31508000BC8002B4BD108F17F0B284600F099F9082825
S31508000BD8044619D0B0F10D0318BF01230A280CBF23
S31508000BE8002303F001032BB1F0B94F4400207E60BF
S31508000BF8BDE8F88F0D281FD0002CF6D0284600F03F
S31508000C087FF908280446E5D14645DDD90146504608
S31508000C1800F042F95046202100F03EF95046214698
S31508000C2800F03AF9013ECFE75046214600F034F97C
S31508000C3806F8014B5E45DFD30D21504600F02CF926
S31508000C4850460A2100F028F9C8EB06037B554F449D
S31508000C580023337040467E60BDE8F88F4046BDE8FD
S31508000C68F88F00BF0430000020300000002A10B4B6
S31508000C780CDD013A031D22F003029A1800E004333A
S31508000C8851F8044B934204601846F8D110BC7047D3
S31508000C982DE9F00F43F2A4058AB0C601C0F2000593
S31508000CA80396049543F2A00643F2C815C0F2000657
S31508000CB8C0F2000505960795431C039D43F2B40147
S31508000CC843F2481243F23416DB01C0F20001C0F2BF
S31508000CD80002C0F200060993089643F238136E1804
S31508000CE8AD180295C0F20003099D019343F2CC1989
S31508000CF843F2A80C43F2B0046918AA18C0F200090E
S31508000D08019D49F82060C0F2000CC0F2000443F2C5
S31508000D18D01B43F23C1345F8206044F82010C0F273
S31508000D28000B04994CF82060C0F20003029E059C4B
S31508000D38069343F2441A43F2401843F2AC0741F8C3
S31508000D482060C0F2000AC0F20008C0F200074BF89B
S31508000D58206044F82060069D079E089945F82020DB
S31508000D6800230AF80030335408F800303B540B5473
S31508000D780AB0BDE8F00F00F067B900BF10B5044621
S31508000D8800F0F6FA10F47F4F23D0C0B2132821D00A
S31508000D9811282BD0194A1A4952F8243003F8010B9E
S31508000DA851F8241042F824308B4222BF154B53F8C9
S31508000DB8243042F82430144B1A5D120603D41A5DFF
S31508000DC80132D2B21A551B5D532B02D90F4B1A5D45
S31508000DD81AB110BD0E4B185510BD13221A550D4BD6
S31508000DE820461A55BDE8104000F0CEBA084B002236
S31508000DF820461A55BDE8104000F0C6BA383100003A
S31508000E08B0300000CC31000044310000AC3000009E
S31508000E1834310000C831000038B5194B195C04464E
S31508000E28002927D1174D2B5C4BB92B5D13B1164BEF
S31508000E381B5DF3B12046BDE8384000F0B1BA134A45
S31508000E48134952F8203051F8200013F8011B834241
S31508000E5842F8243024BF0F4B53F82430204628BFC5
S31508000E6842F8243000F0A8FA2B5D013BDBB22B557B
S31508000E78DBE738BD00221A55024D00F09DFAD4E783
S31508000E88C83100004031000034310000A4300000A9
S31508000E983C310000D0310000002838B504461FDB75
S31508000EA8124D2B5D1806FCD4114A52F8243003F863
S31508000EB8011B104942F8243051F824108B4222BFEE
S31508000EC80D4B53F8243042F8243000F075F82B5DA2
S31508000ED80133DBB22B5500F077F8084B1B5D03B1DD
S31508000EE838BD2046BDE8384000F04EBA403100000B
S31508000EF8A03000003C310000D03100003431000039
S31508000F0838B5184D0446285C00B938BD00F054F8C1
S31508000F182B5D013BDBB22B5500F056F82B5D2A2BCF
S31508000F280ED8114B1A5D5AB100221A5500F044F82A
S31508000F380E4B11221A55204600F026FA00F044F8FE
S31508000F480B4A0C4952F8243051F8241013F8010BAF
S31508000F588B4242F8243022BF074B53F8243042F814
S31508000F68243038BD44310000AC300000C8310000D8
S31508000F78A8300000B0300000CC31000041F21C0354
S31508000F8841F2280230B4C4F20103C4F201020D2565
S31508000F9810F8014B6CB119684906FCD50A2C14607F
S31508000FA8F6D119684906FCD5156010F8014B002CCE
S31508000FB8F1D130BC704700BF4EF28413CEF200035D
S31508000FC820221A60704700BF4EF20413CEF20003BF
S31508000FD820221A60704700BF08B50248FFF7CEFFFF
S31508000FE8FEE700BF3023000808B50248FFF7C6FF2A
S31508000FF8FEE700BF4C23000808B50248FFF7BEFF06
S31508001008FEE700BF6C23000808B50248FFF7B6FFDD
S31508001018FEE700BF9023000808B50248FFF7AEFFB1
S31508001028FEE700BFB023000808B50248FFF7A6FF89
S31508001038FEE700BFD423000808B50248FFF79EFF5D
S31508001048FEE700BFF823000830B583B0002840F053
S315080010581C8143F63003C4F2020343F6900219686A
S3150800106841F00101196019680191196841F00201F6
S3150800107819601B68C4F202020193116843F6440317
S3150800108821F00301C4F2020341F0010111601A6854
S3150800109842F010021A601B682422C4F20202019365
S315080010A8019B1168002321F0F001C4F2020341F004
S315080010B8700111601968082221F44021C4F202025D
S315080010C841F40021196011680423C4F2020341F4AB
S315080010D84021116019680C22C4F2020221F4007139
S315080010E8196011684FF4846321F44021C4F202039D
S315080010F841F48021116019684FF4806221F070412B
S31508001108C4F2020241F0E041196011684FF48163A4
S3150800111821F44041C4F2020341F400411160196800
S3150800112840F20442C4F2020241F4404119601168CF
S3150800113840F20C43C4F2020321F0800111601968D9
S315080011484EF60C52CEF2000221F4404141F4804199
S3150800115819601368C3F302231A1D062A08D9033B24
S31508001168012000FA03F0013800F001000001C0B2BE
S315080011784EF29441CEF200014EF20412CEF200026B
S315080011884FF480530860C4F20103202111601A68DD
S3150800119822F001021A60196846F6F312CEF6FF72B3
S315080011A80A4041F20401C4F2010142F00C021A6035
S315080011B80A6841F20803C4F2010322F440520A609D
S315080011C8196843F6900221F43061C4F202021960E4
S315080011D8136803F00303022B59D0032B61D0012BA4
S315080011E85CD000F001FF4BF2C532C9F2A21241F2F7
S315080011F80C03A2FB0012C4F20103120C1A6041F296
S315080012080403C4F2010341F208021968C4F2010290
S3150800121821F49041196011684FF48053C4F2010310
S3150800122821F02A0111601A6841F21C0542F00102F0
S31508001238C4F201051A602B6803F4C003B3F5C00F9E
S3150800124818BF6FF07E4402D10BE0013C30D04FF452
S315080012587A70FEF7E1FF2B6803F4C003B3F5C00FF5
S31508001268F3D14FF48053C4F2010341F20802196816
S31508001278C4F2010241F480711960116841F0010154
S3150800128811601A6842F020021A6003B030BD41F2B4
S315080012980C03C4F201038A221A60B0E700F03EFE86
S315080012A8A1E741F20C03C4F2010300221A60A6E77B
S315080012B84FF48052C4F2010241F208031168C4F2DD
S315080012C8010321F4D07111601A6822F001021A602C
S315080012D8DBE700BF38B54FF4805141F2080341F205
S315080012E81C02C4F20102C4F20101C4F201030D682A
S315080012F81B681468E20701D5D80729D4A10701D5C0
S31508001308DA071ED4600701D5D90713D4220701D5F1
S31508001318D80708D4A10601D5AA0625D4230601D5D7
S3150800132828061CD438BD4FF48153C4F20103082299
S315080013381A60EFE74FF48152C4F2010204211160E2
S31508001348E4E74FF48152C4F2010202211160D9E799
S315080013584FF48152C4F2010201211160CEE7002040
S31508001368BDE83840FFF758BD0020FFF707FDD5E769
S3150800137842F22833C0F6000353F83030586A60F052
S31508001388FF0080B2704700BF42F22833C0F6000358
S3150800139853F830301A6842F080021A60704700BF66
S315080013A842F22833C0F6000353F830301A6822F0A0
S315080013B880021A60704700BF42F22833C0F600035D
S315080013C853F8303099627047034B53F830201C3273
S315080013D813685906FCD57047282300084EF60853A3
S315080013E8CEF200031860704700207047F8B50C461F
S315080013F80546174649B100231E46F95C2868013692
S31508001408FFF74AFDA6423346F7D12046F8BD00BF86
S315080014180068C9B2FFF740BD10B504462068FFF753
S315080014286FFD0028FAD010BD2DE9F0410C46054697
S31508001438904651B100273E462846FFF7EDFF01368C
S31508001448A64208F807003746F6D12046BDE8F081D7
S315080014580A2838B505460C4605D0A069E368294622
S315080014689847012038BD8869CB680D219847A06937
S31508001478E36829469847012038BD00BF08B543F2F6
S31508001488D4130246C0F20003002808BF1A4690691A
S315080014985368984708BD00BF43F2D413C0F2000347
S315080014A8002A08BF1A4610B504469368906922466A
S315080014B8984710BD38B543F2D414C0F20004002B7F
S315080014C808BF234604469D699B6801FB02F1284626
S315080014D82246984738BD00BF38B59D691B6904463A
S315080014E801FB02F128462246984738BD38B5054615
S315080014F843F2D41400F08AFDC0F200042A460146D5
S31508001508E36A606B9847A36A05460D21606B98479E
S31508001518606BA36A0A219847284638BD0A2838B551
S315080015280546094C05D0606BA36A294698470120E9
S3150800153838BD606BA36A0D219847606BA36A294674
S315080015489847012038BD00BFD4310000044A08B5C1
S315080015580346002808BF134618465B69984708BD1E
S31508001568F0310000F0B4E0B90F4A104BDFF850C06C
S315080015780F4F104E104D114C106003F154014FF0E7
S31508001588FF3023F8160C43F814CC43F8107C43F8BC
S315080015980C6C43F8085C43F8044C43F81C2B8B4244
S315080015A8EDD1F0BC704700BF0C300000EC310000EC
S315080015B83114000819140008F5130008F113000877
S315080015C82114000843F2D413C0F20003C0EBC0008C
S315080015D803EB8000704700BF2DE9F04F87B000265F
S315080015E8109F129C139D0DF10C08B0FBF1FE01FB30
S315080015F81E0C704612F80CE008F806E001360028BA
S31508001608F3D1002FD4BF002201220092119A019625
S31508001618002AC7EB0309009BD4BF4FF0000A4FF016
S31508001628010A01271AEA030F834628D1B14511DDB5
S315080016383746BAF1000F0CBF20203020294601375B
S31508001648A0474F45F5D1F343DF190BF1010BBB440E
S315080016580BF10107009B119A002ACCBF002303F05F
S3150800166801039BB9013E294618F80600A047002E33
S31508001678F8D1019B0BEB030007B0BDE8F08F2D20CE
S315080016882946A04702274FF0010BCFE72D20294608
S31508001698A047BB46E6E700BFFFF740BF2DE9F04F76
S315080016A800250746107885B014460E469846AA4679
S315080016B850B125280CD03146B847607804F101099D
S315080016C801354C460028F4D1284605B0BDE8F08F08
S315080016D86378302B00F0AA8002344FF0000CA3F18F
S315080016E83002092A88BF4FF000090FD822464FF062
S315080016F8000909EB890903EB490912F8013BA3F12B
S3150800170830010929A9F130091446F2D9782B00F2D3
S315080017188B80DFE813F0D2008900890089008900E8
S31508001728890089008900890089008900890089005B
S31508001738890089008900890089008900890089004B
S31508001748890089008900890089008900890089003B
S31508001758890089008900890089008900890089002B
S31508001768CC008900890089008900890089008900D8
S31508001778890089008900890089008900890089000B
S3150800178889008900890089008900890089008900FB
S3150800179889008900890089008900890089008900EB
S315080017A889008900890089008900890089008900DB
S315080017B889008900890089008900890089008900CB
S315080017C8890089008900C80089008900890089007C
S315080017D8890089008900890089008900BF00F70007
S315080017E8890089008900D600F70089008900030165
S315080017F889008900B8008900890089009A0089004B
S315080018089000890089007900D8F800007C4ACDF84C
S3150800181800A010214B4608F10408CDF804C0029729
S315080018280396FFF7D9FE2D18207841E7A3784FF0DD
S31508001838010C033453E7734AD8F80000CDF800A022
S315080018480A214B4608F10408E7E7D8F80030187863
S3150800185808F1040848B19B463146B8471BF8010FFA
S31508001868013509F1FF390028F6D1B9F1000FC8BFCB
S31508001878CB46D9DD20203146B847BBF1010BF9D153
S315080018884D44207814E7D8F800005E4ACDF800A041
S315080018980821D6E798F800003146B84708F1040841
S315080018A80135207804E7D8F80000574AAFE725201D
S315080018B83146B84701352078FAE614F8010C013C98
S315080018C8F6E62378692B04F1010B42D03DD9752B2E
S315080018D800F08580782B7FD06F2B2BD1B8F80000C5
S315080018E8484ACDF800A008214B4608F10408CDF867
S315080018F804C002970396FFF76FFE0346ED18607853
S315080019085C46D5E6D8F80000002808F1040838DB54
S315080019180A213C4ACDF800A04B467EE72378692B76
S3150800192804F1010B21D008D9752B3ED0782B32D07B
S315080019386F2B2DD060785C46BAE6582B49D0642BB5
S3150800194813D0002B3FF4C0AEF4E7582B37D0642BDE
S31508001958F7D1B8F90000002808F1040849DB0A217C
S31508001968284ACDF800A04B46C1E7D8F80000002859
S3150800197808F1040836DB0A21224ACDF800A04B46AE
S31508001988B5E70123009340420A211E4A4B4644E71D
S31508001998D8F80000A4E7D8F80000194ACDF800A03E
S315080019A810214B4608F10408A1E7D8F80000154AA3
S315080019B8CDF800A00A214B4608F1040897E7B8F8BD
S315080019C80000114ACDF800A010214B4608F104087A
S315080019D88DE7D8F80000F4E7B8F80000DDE7B8F8AE
S315080019E80000E4E70123009340420A21054A4B46D2
S315080019F87DE70123009340420A21024A4B4676E7CF
S31508001A082424000818240008382400080FB410B540
S31508001A1882B004AC41F2A16054F8042B0021234695
S31508001A28C0F600000194FFF739FE02B0BDE8104081
S31508001A3804B0704743F69002C4F20202F8B5146877
S31508001A484FF46053C4F2020344F0006414601A6841
S31508001A5822F080521A601A68044690000F460ED57E
S31508001A6848F2A165C0F201051E4601E0013D2FD0E6
S31508001A784FF47A70FEF7D0FB33689900F6D443F62C
S31508001A888803C4F202034FF460551A6802F0FE424E
S31508001A9842EA8414C4F2020544EA07471F602B6821
S31508001AA843F080532B602B689A000DD448F2A16442
S31508001AB8C0F2010401E0013C0DD04FF47A70FEF73C
S31508001AC8ABFB2B689B00F6D5044B01221A60F8BDC0
S31508001AD8024B1D60F8BD014B1C60F8BD443200007E
S31508001AE84FF46053C4F2020343F608011868C4F2B7
S31508001AF80201002240F00100F0B518600A601C686F
S31508001B0843F60401C4F2020124F0847443F2100077
S31508001B1824F48034C2F200401C6008601C6843F64E
S31508001B280C00C4F202004EF62451CEF2000124F449
S31508001B3880241C60026008684EF69453CEF20003AF
S31508001B4820F480300860D3F800E04EF698574EF631
S31508001B589C554EF6A050CEF20007CEF20005CEF2FE
S31508001B680000164623242EF0010EC2F20106C0F222
S31508001B780234C3F800E03A602E6004600520186055
S31508001B880B6843F480330B6083B0BFF34F8FBFF302
S31508001B986F8F4EF65071CEF200014EF61453CEF200
S31508001BA800030A60196841F400311960BFF34F8FC2
S31508001BB8BFF36F8F4EF68451CEF200014EF680536E
S31508001BC8CEF200030A601B68C3F3C907C3F34E368F
S31508001BD8B7FA87F5BFF34F8F4EF6607403F007031D
S31508001BE805F01F0503F1040ECEF2000406FA0EF0FE
S31508001BF83B4600E00B4603FA05F20243591E2260EB
S31508001C08002BF7D1731E0EB11E46EFE7BFF34F8FB1
S31508001C184EF61453CEF200031A6842F480321A605C
S31508001C28BFF34F8FBFF36F8F4EF60C52CEF20002FA
S31508001C384FF6FF0110684FF440730140C0F2FA539B
S31508001C484FF46055C4F202050B4313602B6823F45E
S31508001C5880232B602B6823F480332B602B689B0327
S31508001C680ED544F64134C0F24C0402E0013C00F0BB
S31508001C78C9804FF47A70FEF7CFFA2B689E03F5D41D
S31508001C884FF46055C4F202052B6823F480332B60A1
S31508001C982B6823F480232B602B6843F480332B604E
S31508001CA82B689C030ED444F64134C0F24C0402E077
S31508001CB8013C00F0A8804FF47A70FEF7ADFA2B685D
S31508001CC89803F5D54FF46055C4F202052B6823F03E
S31508001CD880732B602B6899010ED548F2A164C0F26F
S31508001CE8010402E0013C00F08F804FF47A70FEF799
S31508001CF893FA2B689A01F5D443F60403C4F202034F
S31508001D0846F619424FF46055C4F20205C2F6401267
S31508001D181A602B6843F080732B602B689B010DD4DF
S31508001D2848F2A164C0F2010401E0013C6DD04FF409
S31508001D387A70FEF771FA2B689E01F6D54FF461534F
S31508001D48C4F202034FF4E042196841F08051196061
S31508001D581B68C4F2000203F080530193019B1368C1
S31508001D6847F2040543F48033C4F2000513602B6870
S31508001D78DC030DD444F24124C0F20F0401E0013C0F
S31508001D8844D04FF47A70FEF747FA2B68D803F6D58D
S31508001D984FF4E043C4F2000347F204061A68C4F293
S31508001DA8000642F400321A60336813F4003302BF9F
S31508001DB844F241251C46C0F20F0502D064E0AC4245
S31508001DC825D04FF47A70FEF727FA33680134990359
S31508001DD8F5D5C0200121FFF72DFE4FF47053C4F244
S31508001DE802031A6802F00F02062A11DC1A6822F0A2
S31508001DF80F0242F007021A601B6803F00F03072B4D
S31508001E0845D0FEE7FEE7FEE7FEE7FEE7FEE7FEE764
S31508001E1843F60806C4F202064FF460533268C4F261
S31508001E28020322F0F00232601B689B012ED5336844
S31508001E3803F00C03082B17D044F64033C0F24C03C2
S31508001E489C429CBF44F64135C0F24C0502D963E072
S31508001E58AC4261D04FF47A70FEF7DEF9336803F0C6
S31508001E680C030134082BF3D14FF47053C4F2020360
S31508001E781A6822F00F0242F007021A601B6803F07C
S31508001E880F03072B35D0FEE70024A2E7FEE743F643
S31508001E980806C4F202064FF460533268C4F2020315
S31508001EA822F0F00232601B689A0134D5336823F0B1
S31508001EB8030343F002033360336803F00C03082B6B
S31508001EC817D044F64033C0F24C039C429CBF44F6F4
S31508001ED84135C0F24C0502D91FE0AC421DD04FF47B
S31508001EE87A70FEF799F9336803F00C030134082B66
S31508001EF8F3D143F60803C4F202031A6822F4E0523F
S31508001F0842F4A0521A601A6822F4604242F4004267
S31508001F181A6003B0F0BDFEE7FEE7FEE743F60803DE
S31508001F28C4F202031B6803F00C03042B06D0082B23
S31508001F3809D04FF41050C0F2F400704747F6400035
S31508001F48C0F27D10704743F60403C4F2020318680A
S31508001F581A6812F4800F1A6815BF47F640034FF43B
S31508001F681053C0F27D13C0F2F40300F03F01B3FB2F
S31508001F78F1F043F60403C4F20203C2F388121B689D
S31508001F88C3F30143013300FB02F05B00B0FBF3F037
S31508001F98704700BF08B5FFF7C1FF43F60803C4F248
S31508001FA8020342F24C421968C0F60002C1F3031153
S31508001FB843F24823525CC0F2000320FA02F0186084
S31508001FC808BD00BF08B5FFF7E5FF43F60802C4F2E7
S31508001FD8020242F24C431268C0F60003C2F3822298
S31508001FE89B5C20FA03F008BD08B5FFF7D3FF43F654
S31508001FF80802C4F2020242F24C431268C0F6000311
S31508002008C2F342329B5C20FA03F008BD0023C25C87
S315080020180133002AFBD1581E7047C046000000004D
S31508002028000000000000000053544D333246372D97
S31508002038446973636F76657279204D6F6E69746F3C
S31508002048722076312E30310D0A436F7079726967BE
S3150800205868742028432920313939392D32303034EB
S315080020682043534520546F6D616B6F6D6169204E2F
S3150800207843540D0A436F7079726967687420284358
S315080020882920323030362D32303136205249434FE6
S315080020984820434F4D50414E592C4C54442E002D40
S315080020A82D2D2D2D2D2D2D2D2D2D2D2D2D2D2D2D4A
S315080020B82D2D2D2D2D2D2D2D2D2D2D2D2D2D2D2D3A
S315080020C82D2D2D2D2D2D2D2D2D2D2D2D2D2D2D2D2A
S315080020D82D2D2D2D2D2D2D2D2D2D2D2D2D2D2D2D1A
S315080020E82D2D2D2D2D2D2D2D2D2D2D006C642020DB
S315080020F820202020202020202020206C6F616420AA
S3150800210870726F6772616D202020202020202020A1
S31508002118207C20676F5B3C61643E5D202020202080
S315080021282020676F2070726F6772616D0064625B4A
S315080021383C61643E5B3C6C6E3E5D5D2064756D700B
S315080021482062797465202020202020202020202045
S3150800215820207C2064775B3C61643E5B3C6C6E3E69
S315080021685D5D2064756D7020776F726400646C5BC2
S315080021783C61643E5B3C6C6E3E5D5D2064756D70CB
S31508002188206C6F6E6720776F7264202020202020CD
S3150800219820207C2065625B3C61643E5D202020200F
S315080021A8202020656E7465722062797465006577EB
S315080021B85B3C61643E5B3C6C6E3E5D5D20656E749F
S315080021C8657220776F726420202020202020202026
S315080021D82020207C20656C5B3C61643E5D202020C5
S315080021E820202020656E746572206C6F6E672077D4
S315080021F86F72640066625B3C61643E5B3C6C6E3E73
S315080022085B3C696E3E5B3C69633E5B3C72703E5D57
S315080022185D5D5D5D2066696C6C2062797465003F5A
S31508002228202020202020202020202020202068650B
S315080022386C700000000000006C65776562656C6468
S31508002248776462646266646C6F67003F000000002A
S31508002258E5050008A90500086D050008290800080D
S315080022684907000821060008690A0008BD0200088F
S315080022787D0200085502000853746172742041648F
S315080022886472657373203D20253038780A0000008B
S31508002298456E6420202041646472657373203D206E
S315080022A8253038780A000000456E74727920416432
S315080022B86472657373203D20253038780A0000005B
S315080022C84572726F72203D20253038780A00000062
S315080022D80000000000000000257800002530386C52
S315080022E8783A253032783A002530386C783A2530ED
S315080022F838783A002530386C783A253034783A00F8
S315080023082530386C78000000253032780000000047
S315080023182530347800000000253032780A0000009D
S3150800232800100140250000004E4D49204578636598
S315080023387074696F6E206F63637572732E20210A35
S315080023480000000048617264204661756C74204577
S315080023587863657074696F6E206F63637572732E20
S3150800236820210A004D656D6F7279204D616E61678F
S31508002378657220457863657074696F6E206F63634C
S315080023887572732E20210A00427573204661756C92
S315080023987420457863657074696F6E206F6363751A
S315080023A872732E20210A00005573616765204661FD
S315080023B8756C7420457863657074696F6E206F63F1
S315080023C8637572732E20210A000000004465627541
S315080023D867204D6F6E69746F7220457863657074EF
S315080023E8696F6E206F63637572732E20210A000069
S315080023F850656E6420535620457863657074696F16
S315080024086E206F63637572732E20210A0000000020
S3150800241830313233343536373839000030313233D3
S3150800242834353637383961626364656600000000FA
S3150800243830313233343536373839414243444546E4
S315080024480000000000000000010203040102030462
S30D08002458060708090000000050
S705080001C829
