S00B00006173702E73726563D5
S3152000000088A1022001020020399201203992012084
S31520000010399201203992012039920120399201200A
S31520000020399201203992012039920120AD93012085
S31520000030399201203992012039920120B79201206C
S31520000040B7920120B7920120B7920120B7920120E2
S31520000050B7920120B7920120B7920120B7920120D2
S31520000060B7920120B7920120B7920120B7920120C2
S31520000070B7920120B7920120B7920120B7920120B2
S31520000080B7920120B7920120B7920120B7920120A2
S31520000090B7920120B7920120B7920120B792012092
S315200000A0B7920120B7920120B7920120B792012082
S315200000B0B7920120B7920120B7920120B792012072
S315200000C0B7920120B7920120B7920120B792012062
S315200000D0B7920120B7920120B7920120B792012052
S315200000E0B7920120B7920120B7920120B792012042
S315200000F0B7920120B7920120B7920120B792012032
S31520000100B7920120B7920120B7920120B792012021
S31520000110B7920120B7920120B7920120B792012011
S31520000120B7920120B7920120B7920120B792012001
S31520000130B7920120B7920120B7920120B7920120F1
S31520000140B7920120B7920120B7920120B7920120E1
S31520000150B7920120B7920120B7920120B7920120D1
S31520000160B7920120B7920120B7920120B7920120C1
S31520000170B7920120B7920120B7920120B7920120B1
S31520000180B7920120B7920120B7920120B7920120A1
S31520000190B7920120B7920120B7920120B792012091
S315200001A0B7920120B7920120B7920120B792012081
S315200001B0B7920120B7920120B7920120B792012071
S315200001C0B7920120B7920120B7920120B792012061
S315200001D0B7920120B7920120B7920120B792012051
S315200001E0B7920120B7920120B7920120B792012041
S315200001F0B7920120B7920120000000000000000005
S3152000020071B64FF0000080F31488BFF36F8F174844
S31520000210016881F3088816481649026842EA0102F5
S315200002200260154815490860154800B180474FF00F
S3152000023000001449144A914204D2086001F10401D5
S315200002409142FAD31149124A914208D2114B0868B9
S31520000250186001F1040103F104039142F7D30E481B
S3152000026000B1804719F070FCFEE7000044310220FF
S3152000027088ED00E00000F000000000C034EF00E050
S315200002800000000020420220BC490320A839022099
S315200002901C420220A83902200000000080B584B04C
S315200002A000AF786001F01AFB0346002B02D06FF0F6
S315200002B005030FE07B68002B01D101237B60786862
S315200002C000F082FFF860FB68002B02D06FF0050378
S315200002D000E0002318461037BD4680BD80B500AF2C
S315200002E001F0FAF80346184680BD00BF80B588B0F5
S315200002F000AFF860B9607A6001F0F0FA0346002B8F
S3152000030001D0002323E07B68002B01D000231EE0D0
S31520000310FB68002B01D1002319E0BB68002B01D11B
S31520000320002314E0BB6803339B089B00FB61FB6939
S315200003309BB27B82FB689BB23B8200237B610023BE
S31520000340BB6107F11003184600F0EAFD0346184684
S315200003502037BD4680BD00BF80B586B000AF78602F
S3152000036000237B617B683B6101F0B8FA0346002BD2
S3152000037002D06FF0050325E03B69002B02D16FF018
S3152000038003031FE001F08CFA3B691B89002B13D174
S315200003903B691B8B002B0FD13B691B8C002B0BD190
S315200003A0786800F033FEF860FB68002B03D06FF00E
S315200003B003037B6103E002E06FF002037B6101F03F
S315200003C05DFA7B6918461837BD4680BD80B588B072
S315200003D000AFF860B9607A603B603B68FB616FF004
S315200003E00303BB61FB687B6101F078FA0346002BAF
S315200003F005D03B68002B02D06FF0030329E07B6910
S31520000400002B02D16FF0030323E07B68002B02D080
S315200004106FF003031DE03B68002B03D16FF002034E
S31520000420BB6109E03B68B3F1FF3F02D14FF0FF33D8
S31520000430FB616FF00103BB617869B9687A68FB6973
S3152000044000F0FEFD38613B69002B01D10023BB6122
S31520000450BB6918462037BD4680BD00BF80B485B035
S3152000046000AF78607B68FB60FB68002B01D100231E
S3152000047001E0FB681B8918461437BD465DF8047BEE
S31520000480704700BF80B588B000AFF860B9603B60A8
S315200004901346FB713B68FB616FF00303BB61FB688E
S315200004A07B6101F01BFA0346002B05D03B68002B2D
S315200004B002D06FF003032AE07B69002B02D16FF094
S315200004C0030324E0FB79002B02D06FF003031EE028
S315200004D03B68002B03D16FF00203BB6109E03B6848
S315200004E0B3F1FF3F02D14FF0FF33FB616FF0010301
S315200004F0BB61FB797869B9681A46FB6900F0FAFD99
S3152000050038613B69002B01D10023BB61BB691846CA
S315200005102037BD4680BD00BF80B582B000AF786071
S3152000052039607B68002B01D1002307E07B681B68BC
S31520000530184604210022FFF7D9FE0346184608373D
S31520000540BD4680BD90B58BB000AFF860B9607A60CB
S3152000055007F11403B868194600227B68FFF736FFB7
S3152000056078627B6A13F1020F0DD0002B03D013F1B2
S31520000570030F05D00AE01023BB617B69FB6108E00D
S315200005800023BB6105E04023BB6102E07B6ABB61BF
S3152000059000BFFB681C4607F1180393E8070084E8B0
S315200005A00700F8682C37BD4690BD00BF80B584B0E3
S315200005B000AFF860B9607A6007F10803F868194659
S315200005C000227B68FFF75EFF034618461037BD46BC
S315200005D080BD00BF80B584B000AF78600023FB608B
S315200005E001F07CF90346002B01D0002332E01420D1
S315200005F000F076FBF860FB68002B01D1002329E090
S3152000060001200121002200F027F90246FB68DA606A
S31520000610FB68DB68002B04D1F86800F07DFB002323
S3152000062018E0FB680D4A9A60FB6800221A60FB6896
S3152000063000225A60FB6800221A617B68002B08D0D2
S315200006407B685B6803F00103002B02D0FB68012264
S315200006501A61FB6818461037BD4680BDEBEEADDE4D
S3152000066080B586B000AF7860396000237B6101F0E9
S3152000067035F938617B68002B02D16FF003033FE028
S315200006803B69002B02D06FF0050339E07B68FB60E5
S31520000690FB689B681C4A934202D06FF003032FE04D
S315200006A007F10803184600F09FFF01F0F9F8FB68F0
S315200006B01B69002B0ED0FB685B68002B0AD0FB68F9
S315200006C01A68BB689A4205D1FB685B685A1CFB68AE
S315200006D05A6012E0FB68DA68BB68104639681A4629
S315200006E03B6900F079F978617B69002B05D1BA68FE
S315200006F0FB681A60FB6801225A6001F0BFF87B692B
S3152000070018461837BD4680BDEBEEADDE80B586B007
S3152000071000AF786000237B6101F0E0F838617B68E8
S31520000720002B02D16FF003033FE03B69002B02D080
S315200007306FF0050339E07B68FB60FB689B681D4A08
S31520000740934202D06FF003032FE007F10803184607
S3152000075000F04AFF01F0A4F8FB681A68BB689A42C9
S315200007601DD1FB681B69002B09D0FB685B68012B38
S3152000077005D9FB685B685A1EFB685A6012E0FB6865
S31520000780DB68184600F066F978617B69002B09D191
S31520000790FB6800221A60FB6800225A6002E06FF0B4
S315200007A002037B6101F06AF87B6918461837BD465B
S315200007B080BD00BFEBEEADDE80B584B000AF7860C3
S315200007C00023FB6001F08AF80346002B02D06FF06D
S315200007D0050328E07B68002B02D16FF0030322E09B
S315200007E07B68BB60BB689B68114A934202D06FF05E
S315200007F0030318E001F054F8BB685B68002B0CD1AA
S31520000800BB68DB68184600F0B3F8F860FB68002B7D
S3152000081006D1B86800F080FA02E06FF00203FB60B0
S3152000082001F02CF8FB6818461037BD4680BD00BF86
S31520000830EBEEADDE80B582B000AF78607B68002B32
S3152000084001D0002303E00020FFF7C4FE034618462C
S315200008500837BD4680BD00BF80B586B000AFF860C2
S31520000860B9607A6000237B6101F038F80346002BDB
S3152000087001D000231DE07B68002B01D0002318E067
S31520000880142000F02DFA78617B69002B01D100231A
S315200008900FE07B69BA685A607B69FA681A607B69DF
S315200008A0064A9A607B6900229A817B6900221A6136
S315200008B07B6918461837BD4680BD00BFEDBEADDE4C
S315200008C080B586B000AF7860396000237B6101F087
S315200008D005F838617B68002B02D16FF003031BE01B
S315200008E07B68FB60FB689B680D4A934202D06FF0E1
S315200008F0030311E007F10803184600F075FE00F027
S31520000900CFFFBB68F86839681A463B6900F064F87F
S31520000910786100F0B3FF7B6918461837BD4680BD65
S31520000920EDBEADDE80B584B000AF78600023FB60FD
S315200009307B68002B02D16FF0030312E07B68BB605B
S31520000940BB689B68094A934202D06FF0030308E014
S3152000095000F0A6FFB86800F07DF8F86000F08EFF82
S31520000960FB6818461037BD4680BD00BFEDBEADDE24
S3152000097080B584B000AF78600023FB6000F0AEFF46
S315200009800346002B02D06FF005031FE07B68002B87
S3152000099002D16FF0030319E07B68BB60BB689B68DC
S315200009A00C4A934202D06FF003030FE000F078FF69
S315200009B0BB689B89002B03D1B86800F0ADF902E033
S315200009C06FF00203FB6000F059FFFB6818461037F2
S315200009D0BD4680BDEDBEADDE80B586B000AFF86009
S315200009E0B9607A603B6000237B61FB685B68002B03
S315200009F005D0FB685B685A1EFB685A6025E0BB6819
S31520000A00002B03D16FF002037B611EE03B68002BB5
S31520000A1003D06FF002037B6117E0BB68B3F1FF3FA1
S31520000A2002D14FF0FF33BB60FB6803F10C0207F1E4
S31520000A3010031046B9681A467B6800F0F3FB3B6941
S31520000A40002B02D06FF001037B617B6918461837B3
S31520000A50BD4680BD80B584B000AF78600023FB60C2
S31520000A607B689B89002B07D07B680C3318460021B6
S31520000A70002200F019FC0EE07B685A687B681B6830
S31520000A809A4205D27B685B685A1C7B685A6002E0F2
S31520000A906FF00203FB60FB6818461037BD4680BD29
S31520000AA080B582B000AF786039607B68002B01D0BA
S31520000AB0002307E03A683B68104619460022FFF7F4
S31520000AC0CBFE034618460837BD4680BD80B586B0A6
S31520000AD000AFF860B9607A60F868B96800F02EFF58
S31520000AE078617B69002B01D0002316E007F1100303
S31520000AF0F868194600F050FF78617B69002B01D019
S31520000B0000230AE03B69184600F092FD78617B6974
S31520000B10002B01D0002300E03B6918461837BD465C
S31520000B2080BD00BF80B584B000AF786000F0D6FEEF
S31520000B300346002B02D06FF0050314E007F10803EB
S31520000B40184600F051FDF860FB68002B02D06FF0CC
S31520000B50030308E07B68002B02D06FF0030302E05A
S31520000B6000F084FD002318461037BD4680BD00BF27
S31520000B7080B582B000AF786039607B68002B03D0E7
S31520000B807B681B68002B01D1002307E07B681B686C
S31520000B90184639680022FFF799FF0346184608379A
S31520000BA0BD4680BD80B485B000AF78600C4B1A6816
S31520000BB07B6813440B4A934202D94FF0FF3309E076
S31520000BC0074B1B68FB60064B1A687B681344044A74
S31520000BD01360FB6818461437BD465DF8047B7047E2
S31520000BE0A8390220BC49032080B400AFBD465DF879
S31520000BF0047B704780B400AFBD465DF8047B704728
S31520000C0080B483B000AF786039604FF0FF33184668
S31520000C100C37BD465DF8047B704700BF80B485B0B5
S31520000C2000AFF860B9607A603B604FF0FF3318463A
S31520000C301437BD465DF8047B704700BF80B485B08D
S31520000C4000AFF860B9607A603B604FF0FF3318461A
S31520000C501437BD465DF8047B704700BF80B485B06D
S31520000C6000AFF860B9607A603B604FF0FF331846FA
S31520000C701437BD465DF8047B704700BF80B485B04D
S31520000C8000AFF860B9607A603B604FF0FF331846DA
S31520000C901437BD465DF8047B704700BF80B483B02F
S31520000CA000AF786039604FF0FF3318460C37BD46E9
S31520000CB05DF8047B704700BF80B483B000AF7860D6
S31520000CC04FF0FF3318460C37BD465DF8047B70475E
S31520000CD080B400AF00231846BD465DF8047B7047FC
S31520000CE080B584B000AF78600023FB6000F0F6FD8D
S31520000CF00346002B01D0002309E000F0D1FD7868DF
S31520000D001DF036F80346FB6000F0B8FDFB68184678
S31520000D101037BD4680BD00BF80B582B000AF786079
S31520000D2000F0DCFD0346002B00D00AE07B68002B98
S31520000D3006D000F0B5FD78681DF022F800F09EFD83
S31520000D4000BF0837BD4680BD80B483B000AF786051
S31520000D507B687A685A607B687A681A600C37BD4669
S31520000D605DF8047B704700BF80B483B000AF786025
S31520000D7039607B685A683B685A603B687A681A60B3
S31520000D807B685B683A681A607B683A685A600C37F9
S31520000D90BD465DF8047B704780B483B000AF7860B1
S31520000DA07B685B687A6812681A607B681B687A6859
S31520000DB052685A600C37BD465DF8047B704700BF09
S31520000DC080B582B000AF786039603868FFF7BCFF25
S31520000DD07B685B68002B03D17B683A685A6005E024
S31520000DE07B685B6818463968FFF7BEFF7B681B88FF
S31520000DF001339AB27B681A8000BF0837BD4680BD92
S31520000E0080B584B000AF786039607B685B68002B62
S31520000E101BD03B681B68FB603868FFF7BDFF7B680B
S31520000E201B88013B9AB27B681A807B681B88002B43
S31520000E3003D17B6800225A6007E07B685A683B68CA
S31520000E409A4202D17B68FA685A6000BF1037BD46C5
S31520000E5080BD00BF80B584B000AF78607B685B68DA
S31520000E60FB60FB68002B03D07868F968FFF7C8FFA2
S31520000E70FB6818461037BD4680BD00BF80B588B0D8
S31520000E8000AFF860B9607A603B60FB681B887B61C5
S31520000E90FB685B68BB610023FB6116E0BB691B68CE
S31520000EA03B617B68B869396898470346002B07D0B1
S31520000EB0F868B969FFF7A4FFB868B969FFF780FF3A
S31520000EC03B69BB61FB690133FB61FA697B699A4225
S31520000ED0E4D300BF2037BD4680BD00BF80B588B0B3
S31520000EE000AFF860B9607A60FB681B887B61FB689D
S31520000EF05B68BB610023FB610BE0BB691B683B6140
S31520000F00BB68B869796898473B69BB61FB6901335F
S31520000F10FB61FA697B699A42EFD32037BD4680BDD3
S31520000F2080B58AB000AF78607B681B881B01FB61A7
S31520000F307B685B881A467B681B8803FB02F3BB61D0
S31520000F40FA69BB69134428331846FFF7C9FE78614E
S31520000F507B69002B01D1002352E07B693B617B68D2
S31520000F605A883B695A807B681A883B691A803B6994
S31520000F70254A5A603B6900221A823B6900225A613F
S31520000F803B6900221A813B690022DA603B69002214
S31520000F901A833B690022DA613B6900221A843B6985
S31520000FA000225A627B692833FB60FA68FB69134486
S31520000FB0BB60FB683B6200237B621AE03B6A00222F
S31520000FC01A813B695B881A467B6A03FB02F3BA687F
S31520000FD01A443B6ADA603B6903F110023B6A104609
S31520000FE01946FFF7EDFE3B6A10333B627B6A0133FD
S31520000FF07B623B691B881A467B6A9A42DED83B692C
S3152000100018462837BD4680BDADBEAFDE80B582B05E
S3152000101000AF78607B68002B01D103230AE07B6850
S315200010205B68064A934201D0032303E07868FFF702
S3152000103073FE002318460837BD4680BDADBEAFDE21
S3152000104080B588B000AFF860B9607A603B60002355
S31520001050FB610023BB61FB685B68254A934201D094
S31520001060032340E007F11403184600F0BDFA00F010
S3152000107017FCFB6808331846FFF7ECFEB861BB691E
S31520001080002B0CD13B68002B09D0FB6803F118021A
S315200010907B6910463968002200F0C4F8B861BB6944
S315200010A0002B1BD0BB69DA68FB685B88B8681146E1
S315200010B01A461DF02DF9FB6820331846B96900221F
S315200010C000F0F2F80346002B0AD1FB6803F1100268
S315200010D0BB6910461946FFF773FE01E00423FB6146
S315200010E000F0CCFBFB6918462037BD4680BD00BF0B
S315200010F0ADBEAFDE80B588B000AFF860B9603B60AA
S315200011001346FB710023FB610023BB61FB685B6810
S31520001110244A934201D0032340E007F114031846E2
S3152000112000F062FA00F0BCFBFB6810331846FFF7AC
S3152000113091FEB861BB69002B0CD13B68002B09D00E
S31520001140FB6803F120027B6910463968002200F013
S3152000115069F8B861BB69002B1BD0BB69DA68FB68EC
S315200011605B881046B9681A461DF0D2F8FB6818331A
S315200011701846B969002200F097F80346002B0AD1D9
S31520001180FB6803F10802BB6910461946FFF718FEF3
S3152000119001E00423FB6100F071FBFB691846203750
S315200011A0BD4680BDADBEAFDE80B483B000AF7860F3
S315200011B07B687A685A607B687A681A600C37BD4605
S315200011C05DF8047B704700BF80B58AB000AF7860B9
S315200011D007F10803184600F007FABB6807F10C026E
S315200011E0104679681A4600F0FDF87B6A002B01D07C
S315200011F07B6A10E000F054FB07F10C0308481946FF
S31520001200FFF7DEFD00F03AFB012000F0BBFA0120DB
S3152000121000F06EFA002318462837BD4680BD00BF71
S315200012205442022080B58EB000AFF860B9607A6073
S315200012303B600023BB6107F110030C331846B968E5
S315200012403A6800F0CFF8FB68002B05D007F11003B1
S31520001250F8681946FFF7B4FD07F110030C3311485F
S315200012601946FFF7ADFD00F009FB012000F08AFAD0
S31520001270012000F03DFA00F013FBFB68002B05D09F
S3152000128007F11003F8681946FFF7BAFD7B68002BB3
S3152000129002D07A6B7B681A60BB6918463837BD4620
S315200012A080BD00BF5442022080B588B000AFF860F0
S315200012B0B9607A60FB685B68FB61FB69002B20D014
S315200012C00023BB820023BB61FB69BA689A607A68F7
S315200012D0FB695A62FB69143307F114020B48114665
S315200012E00B4AFFF7CBFD00F0C9FA07F114023B1DAC
S315200012F0104608491A46FFF7F1FD00F0D1FA0123FE
S3152000130000E0002318462037BD4680BD5442022007
S31520001310A91400207914002080B584B000AF78602D
S31520001320396000233B810023FB6000F0B9FA07F106
S3152000133008023B1D09481146094AFFF79FFD00F0A8
S315200013409DFA07F108023B46104606491A46FFF762
S31520001350C5FD002318461037BD4680BD54420220E5
S31520001360A91400207914002080B584B000AF04238E
S31520001370BB6000233B8000237B6000F0B9F8104B54
S315200013805B68002B00D118E000F0A6F80346FB604E
S3152000139000F086FA3A4607F10C0309481146094A35
S315200013A0FFF76CFD00F06AFA3A4607F1080310468B
S315200013B005491A46FFF792FD00BF1037BD4680BD8E
S315200013C054420220311400207914002080B582B0C6
S315200013D000AF7860FFF7C8FF00F048F900BF083774
S315200013E0BD4680BD80B584B000AFF860B9607A6034
S315200013F0FB68BA68DA6000F06FF80246FB681A618B
S31520001400FB681B691846B96800F080F80246FB683D
S315200014105A61FB681846FFF7C7FEFB687A689A6030
S31520001420FB6800229A6100BF1037BD4680BD00BF11
S3152000143080B584B000AF786039603B681B68FB607C
S315200014407B68BB60BB68DB68B3F1FF3F01D100233B
S315200014500EE0BB681A69BB685B69F86811461A46D4
S3152000146000F06CF80346002B01D0012300E0002396
S3152000147018461037BD4680BD80B584B000AF786071
S3152000148039607B68FB603B681B68BB60FB68BA6899
S315200014909A61FB689B681846012100F0EFF800BFAF
S315200014A01037BD4680BD00BF80B485B000AF7860E0
S315200014B039603B681B68FB607B68BB60BB689A68C9
S315200014C0FB689A4201D1012300E000231846143715
S315200014D0BD465DF8047B704780B400AF034B1B68A4
S315200014E01846BD465DF8047B704700BF6042022067
S315200014F080B400AF044B1B680133034A136000BF5E
S31520001500BD465DF8047B70476042022080B485B0FA
S3152000151000AF786039607A683B681344FB60FA68EC
S315200015207B689A4201D3FB6802E07A683B681344E1
S3152000153018461437BD465DF8047B704780B485B0E5
S3152000154000AFF860B9607A60BA687B689A420BD8B7
S31520001550FA68BB689A4205D3FA687B689A4201D238
S3152000156000230CE001230AE0FA687B689A4205D33F
S31520001570FA68BB689A4201D2012300E0002318468C
S315200015801437BD465DF8047B704700BF80B483B036
S3152000159000AFEFF311837B607B68102B09D0084ADC
S315200015A07B68136010237B607B6883F3118800239C
S315200015B000E0012318460C37BD465DF8047B7047D2
S315200015C06442022080B483B000AF78607B68002B31
S315200015D003D1044B1B6883F311880C37BD465DF895
S315200015E0047B70476442022080B586B002AF7860E3
S315200015F007F1080318461BF029FCF860FB68002B4E
S3152000160009D0FB68009305200749084A0D2315F0E9
S3152000161057FA022303E0BA687B681A60002318464B
S315200016201037BD4680BD00BF9CEA0120C8EA0120D4
S3152000163080B586B002AF7860786819F04DFAF86008
S31520001640FB68002B09D0FB68009305200549064A54
S31520001650172315F035FA032300E000231846103728
S31520001660BD4680BD9CEA0120D4EA012080B500AFAA
S3152000167019F032FB0023184680BD00BF80B586B026
S3152000168002AF7860396007F108037868194600F0E0
S315200016902DF9F860FB68002B0BD07B680093FB6864
S315200016A0019305200F49104A272315F009FAFB68F4
S315200016B014E0BA683B68104619461AF093FDF860A4
S315200016C0FB68002B09D0FB68009305200749064AD2
S315200016D02C2315F0F5F9032300E0002318461037D4
S315200016E0BD4680BDACEA0120E4EA01209CEA012047
S315200016F080B588B002AF786007F10C0318461BF05E
S31520001700A5FB78617B69002B09D07B6900930520B6
S315200017101A491B4A382315F0D3F902232AE0FA681E
S3152000172007F110031046194600F0E0F878617B694E
S31520001730002B09D07B69009305201049104A3D23D0
S3152000174015F0BEF97B6915E03A697B68DB431046E4
S3152000175019461AF027FE78617B69002B09D07B6930
S31520001760009305200549064A422315F0A9F90323CB
S3152000177000E0002318461837BD4680BD9CEA0120AC
S31520001780F0EA012080B588B002AF786007F10C033B
S3152000179018461BF05BFB78617B69002B09D07B69BF
S315200017A0009305201B491C4A4F2315F089F9022373
S315200017B02CE0FA6807F110031046194600F096F857
S315200017C078617B69002B09D07B690093052011493C
S315200017D0114A542315F074F97B6917E039697A6840
S315200017E007F108030846114601221AF015FE786112
S315200017F07B69002B09D07B69009305200549064AA1
S31520001800592315F05DF9032300E000231846183705
S31520001810BD4680BD9CEA0120FCEA012080B500AFD0
S31520001820084B1B78013BDAB2064B1A70054B1B7826
S31520001830002B04D1044B1B681846FFF7C3FE00BFDC
S3152000184080BD00BF684202206C42022080B500AFF6
S31520001850084B1B78002B04D1FFF798FE0246064B57
S315200018601A60044B1B780133DAB2024B1A7000BFA0
S3152000187080BD00BF684202206C42022080B500AFC6
S31520001880064B1B78013BDAB2044B1A70034B1B78CC
S31520001890002B01D11BF068FB00BF80BD69420220EE
S315200018A080B500AF064B1B78002B01D11BF028FB1F
S315200018B0034B1B780133DAB2014B1A7000BF80BD8F
S315200018C06942022080B582B000AF7860022019F00C
S315200018D061F900BF0837BD4680BD00BF80B500AFA7
S315200018E01BF0D4FB0346184680BD00BF80B485B0EC
S315200018F000AF786039600023FB6012E00E4AFB6877
S3152000190052F833207B689A4208D10B4AFB68DB00E9
S3152000191013445A683B681A60002306E0FB680133CB
S31520001920FB60FB68022BE9D9032318461437BD4612
S315200019305DF8047B704700BF08EB012080B485B0BA
S3152000194000AF786039600023FB6019E01149FA681E
S3152000195013465B0013449B000B445A687B689A42EB
S315200019600BD10C49FA6813465B0013449B000B44C9
S3152000197008333A681A60002306E0FB680133FB60EF
S31520001980FB68002BE2D0032318461437BD465DF8CA
S31520001990047B7047AC39022080B485B000AF7860F4
S315200019A039600023FB6019E01149FA6813465B0091
S315200019B013449B000B445A687B689A420BD10C490E
S315200019C0FA6813465B0013449B000B441A683B6875
S315200019D01A60002306E0FB680133FB60FB68002BDE
S315200019E0E2D0032318461437BD465DF8047B7047C2
S315200019F0AC39022080B586B000AF786007F10C03C1
S31520001A001846FFF7F1FD38613B69002B01D03B6991
S31520001A1022E000237B611BE011497A6913465B00B3
S31520001A2013449B000B441A68FB689A420DD17868D0
S31520001A300B497A6913465B0013449B00CA18034678
S31520001A4007CA83E80700002306E07B6901337B6130
S31520001A507B69002BE0D0032318461837BD4680BD8E
S31520001A60AC39022080B58EB000AF0A233B630C232D
S31520001A70FB6205204E494F4A15F022F800237B636E
S31520001A802CE0FB6A18461CF073F903461A467B6B5A
S31520001A909B0007F138010B4443F8342C7B6B9B00E9
S31520001AA007F13802134453F8343C002B04D10520A7
S31520001AB0414915F005F80BE07B6B9B0007F13802D6
S31520001AC0134453F8343C05203C491A4614F0F8FFD9
S31520001AD00120FEF7E3FB7B6B01337B637A6B3B6B69
S31520001AE09A42CEDB00237B630CE07B6B9B0007F1E5
S31520001AF03802134453F8343C18461CF041F97B6BEA
S31520001B0001337B637A6B3B6B9A42EEDB00237B636C
S31520001B102CE0FB6A18461CF02BF903461A467B6B11
S31520001B209B0007F138010B4443F8342C7B6B9B0058
S31520001B3007F13802134453F8343C002B04D1052016
S31520001B401D4914F0BDFF0BE07B6B9B0007F13802AB
S31520001B50134453F8343C052018491A4614F0B0FFB4
S31520001B600120FEF79BFB7B6B01337B637A6B3B6B20
S31520001B709A42CEDB00237B630CE07B6B9B0007F154
S31520001B803802134453F8343C18461CF0F9F87B6BA2
S31520001B9001337B637A6B3B6B9A42EEDB0520084967
S31520001BA0044A14F08DFF00BF3837BD4680BD00BF04
S31520001BB020EB012068F101202CEB01204CEB0120C9
S31520001BC068EB012080B584B000AF0A23BB604FF4D8
S31520001BD000537B6005201849184A14F071FF002332
S31520001BE0FB601BE07B6818461CF0C2F803463B608E
S31520001BF03B68002B04D10520114914F061FF07E052
S31520001C00052010493A6814F05BFF38681CF0B8F8D4
S31520001C100120FEF743FBFB680133FB60FA68BB68D3
S31520001C209A42DFDB05200849044A14F049FF00BF29
S31520001C301037BD4680BD00BF20EB012078F1012082
S31520001C402CEB01204CEB012068EB012080B590B0F5
S31520001C5002AF0A233B6340F26663FB6205205D49BF
S31520001C605D4A14F02DFF00237B633BE0FB6A184698
S31520001C701CF07EF803461A467B6B9B0007F1380161
S31520001C800B4443F8342C7B6B9B0007F1380213443A
S31520001C9053F8343C002B13D17B6B062B06DD052035
S31520001CA04E497A6B3B6B14F00BFF15E03B6B013B07
S31520001CB0009305204A497A6B3B6B14F001FF0BE039
S31520001CC07B6B9B0007F13802134453F8343C052004
S31520001CD044491A4614F0F4FE0120FEF7DFFA7B6B26
S31520001CE001337B637A6B3B6B9A42BFDB00237B63BA
S31520001CF00CE07B6B9B0007F13802134453F8343C0D
S31520001D0018461CF03DF87B6B01337B637A6B3B6B8B
S31520001D109A42EEDB00237B633BE0FB6A18461CF00D
S31520001D2027F803461A467B6B9B0007F138010B44C4
S31520001D3043F8342C7B6B9B0007F13802134453F88D
S31520001D40343C002B13D17B6B062B06DD0520234963
S31520001D507A6B3B6B14F0B4FE15E03B6B013B0093B2
S31520001D6005201F497A6B3B6B14F0AAFE0BE07B6BB8
S31520001D709B0007F13802134453F8343C05201949D7
S31520001D801A4614F09DFE0120FEF788FA7B6B01337C
S31520001D907B637A6B3B6B9A42BFDB00237B630CE051
S31520001DA07B6B9B0007F13802134453F8343C1846EA
S31520001DB01BF0E6FF7B6B01337B637A6B3B6B9A42AE
S31520001DC0EEDB05200849044A14F07AFE00BF3837B6
S31520001DD0BD4680BD20EB012088F1012070EB01205B
S31520001DE094EB01204CEB012068EB012080B500AF7D
S31520001DF0FFF738FE0120FEF751FAFFF7E3FE012038
S31520001E00FEF74CFAFFF722FF00BF80BD80B586B0F3
S31520001E1002AF0023FB60FEF761FAB86005200D498A
S31520001E20BA6814F04DFEFEF759FA78606420FEF782
S31520001E3035FAF860FEF752FA38603B6800930520C1
S31520001E400549FA687B6814F03BFE00BF1037BD4693
S31520001E5080BD00BFC0EB0120E4EB012080B582B03D
S31520001E6000AF05204C4914F02BFE0220042100224D
S31520001E70FEF73CFA0246494B1A60484B1B68002B7A
S31520001E8004D10520464914F01BFE81E04548464909
S31520001E900022FEF71BFE01233B60404B1A683B469F
S31520001EA01046194600224FF47A73FEF7EBFA786053
S31520001EB07B68002B05D005203C497A6814F000FE8B
S31520001EC005E03B6805203A491A4614F0F9FD02233D
S31520001ED03B60324B1A683B461046194600224FF4A7
S31520001EE07A73FEF7CFFA78607B68002B05D0052041
S31520001EF02E497A6814F0E4FD05E03B6805202C495C
S31520001F001A4614F0DDFD03233B60244B1A683B463A
S31520001F101046194600224FF47A73FEF7B3FA78601A
S31520001F207B68002B05D0052020497A6814F0C8FD6F
S31520001F3005E03B6805201E491A4614F0C1FD4FF402
S31520001F407A70FEF7ABF904233B60144B1A683B46C4
S31520001F501046194600224FF47A73FEF793FA7860FA
S31520001F607B68002B05D0052010497A6814F0A8FD5F
S31520001F7005E03B6805200E491A4614F0A1FD4FF4F2
S31520001F807A70FEF78BF905200A4914F099FD00BFF7
S31520001F900837BD4680BD00BF20EC01207C420220D0
S31520001FA030EC0120C924002058EC01206CEC0120E3
S31520001FB094EC0120B8EC012080B582B000AF00235C
S31520001FC03B6005204C4914F07BFD4C4B1A683B4680
S31520001FD01046194600224FF47A73FEF7F7F9786017
S31520001FE07B68002B02D13B68012B06D03B6805207D
S31520001FF043497A6814F064FD05E03B6805204149B1
S315200020001A4614F05DFD3D4B1A683B4610461946AC
S3152000201000224FF47A73FEF7D9F978607B68002B9B
S3152000202002D13B68022B06D03B68052034497A68EA
S3152000203014F046FD05E03B68052032491A4614F0A7
S315200020403FFD2E4B1A683B461046194600224FF498
S315200020507A73FEF7BBF978607B68002B02D13B6868
S31520002060032B06D03B68052025497A6814F028FD05
S3152000207005E03B68052023491A4614F021FD1F4B35
S315200020801A683B461046194600224FF47A73FEF72B
S315200020909DF978607B68002B02D13B68042B06D023
S315200020A03B68052016497A6814F00AFD05E03B686E
S315200020B0052014491A4614F003FD104B1B681846D8
S315200020C0FEF74AF978607B68002B05D005200E497B
S315200020D07A6814F0F5FC04E005200C497A6814F0BF
S315200020E0EFFC064B00221A600520094914F0E8FC93
S315200020F000BF0837BD4680BDC8EC01207C420220C7
S31520002100D8EC01200CED012030ED012054ED01200A
S3152000211078ED012080B582B000AF0520334914F058
S31520002120CFFC022002210022FEF796FB0246304B0E
S315200021301A602F4B1B68002B04D105202D4914F063
S31520002140BFFC4FE02C482D490022FEF7BFFC284B50
S315200021501B6818464FF47A71FEF7B2FB78607B68ED
S31520002160002B05D0052026497A6814F0A9FC03E047
S315200021700520244914F0A4FC1D4B1B6818464FF477
S315200021807A71FEF79DFB78607B68002B05D00520D1
S315200021901D497A6814F094FC03E005201B4914F0CD
S315200021A08FFC134B1B6818464FF47A71FEF788FB99
S315200021B078607B68002B05D0052015497A6814F0D5
S315200021C07FFC03E00520134914F07AFC4FF47A7063
S315200021D0FEF764F8064B00221A6005200E4914F01B
S315200021E06FFC00BF0837BD4680BD00BF88ED0120CB
S315200021F0804202209CED0120C9240020BCED012054
S31520002200CCED0120F4ED012010EE012038EE012066
S3152000221054EE01207CEE012098EE012080B582B09C
S3152000222000AF05202B4914F04BFC2B4B1B6818469E
S31520002230FEF778FB78607B68002B05D005202749C0
S315200022407A6814F03DFC03E00520254914F038FC9B
S31520002250214B1B681846FEF765FB78607B68002BD0
S3152000226005D005201F497A6814F02AFC03E00520D2
S315200022701D4914F025FC184B1B681846FEF752FB27
S3152000228078607B68002B05D0052018497A6814F001
S3152000229017FC03E00520164914F012FC0E4B1B68B0
S315200022A01846FEF73FFB78607B6813F1030F05D0D5
S315200022B0052010497A6814F003FC03E005200E4936
S315200022C014F0FEFB05200D4914F0FAFB00BF083779
S315200022D0BD4680BDACEE012080420220C0EE01202A
S315200022E0E8EE012004EF01202CEF012048EF012029
S315200022F070EF01208CEF0120B4EF0120E0EF0120E8
S3152000230080B58AB002AF786039607B68002B26D111
S315200023100520494914F0D4FB3B68012B0ADD012333
S31520002320FB6007F108031846FEF754F90246434BB3
S315200023301A6005E00020FEF74DF902463F4B1A6071
S315200023403E4B1B68002B04D105203D4914F0B8FBF9
S315200023506EE03C483C490022FEF7B8FB03E005202E
S315200023603A4914F0ADFB0023FB611CE0334B1B689C
S3152000237018464FF4FA61FEF773F9B861BB69002B72
S3152000238008D0BB690093052031497A68FB6914F0AF
S3152000239097FB05E005202F497A68FB6914F090FB2E
S315200023A0FB690133FB61FA693B689A42DEDB7B6895
S315200023B0002B02D10120FDF771FF0023FB611AE0FB
S315200023C01E4B1B681846FEF7A1F9B861BB69002BA6
S315200023D008D0BB69009305201F497A68FB6914F071
S315200023E06FFB05E005201D497A68FB6914F068FB40
S315200023F0FB690133FB61FA693B689A42E0DB7B6843
S31520002400002B08D14FF47A70FDF748FF05201449B8
S3152000241014F056FB0BE00520124914F051FB074B34
S315200024201B681846FEF7C8F9044B00221A6000BF45
S315200024302037BD4680BD00BFF4EF01208442022034
S315200024400CF00120C924002028F0012034F00120BE
S315200024504CF0012078F0012094F00120C0F00120FA
S31520002460DCF00120F4F0012080B582B000AF786066
S315200024700520124914F024FBFFF7B8FCFFF7C6FC31
S31520002480FFF7ECFCFFF746FE0D4B01221A600C4BC2
S315200024901B6800201946FFF733FF094B02221A60FA
S315200024A0074B1B6800201946FFF72AFF0520054920
S315200024B014F006FB00BF0837BD4680BD0CF1012095
S315200024C0B83902201CF1012080B582B000AF7860B7
S315200024D0052012497A6814F0F3FA114B1B68002B79
S315200024E002D0FFF769FD10E00E4B1B68002B02D0CF
S315200024F0FFF794FE09E00C4B1B68002B05D00B4B15
S315200025001B6801201946FFF7FBFE0520084914F039
S31520002510D7FA00BF0837BD4680BD00BF2CF1012089
S315200025207C4202208042022084420220B8390220C6
S315200025304CF1012080B582B000AF78600020FFF713
S3152000254093FFFFF793F800BF0837BD4680BD00BF55
S3152000255080B586B000AF786007F108031846FFF70C
S3152000256049FA78617B69002B03D1FB683A691046EA
S3152000257098470020FEF7D6FA00BF1837BD4680BD23
S3152000258080B582B000AF786039603B681846042178
S315200025900022FDF7ABFE02467B681A607B681B684B
S315200025A0002B01D1FF2300E000235BB21846083739
S315200025B0BD4680BD80B582B000AF78607B681B6861
S315200025C01846FDF74BFF7B681B681846FDF7C4FECF
S315200025D00837BD4680BD00BF80B582B000AF7860A9
S315200025E0396000BF7B681A683B46104619460022B0
S315200025F04FF0FF33FDF746FF0346002BF2D1083795
S31520002600BD4680BD80B584B000AF786039607B68F8
S315200026101A683B461046194600220023FDF732FF72
S315200026200346002B02D10023FB7301E0FF23FB733B
S31520002630FB7B5BB218461037BD4680BD80B582B0A5
S3152000264000AF7860396078683968FFF7DBFF0346AA
S3152000265018460837BD4680BD80B586B000AFF86005
S31520002660B9607A60FDF73AFE78617B68002B14D05A
S31520002670FB681B681846B96800227B68FDF7A6FE32
S3152000268038613B69002B05D1FDF728FE02467B69A0
S31520002690D31A10E04FF0FF330DE0FB681B68184695
S315200026A0B96800224FF0FF33FDF790FEFDF716FEC6
S315200026B002467B69D31A18461837BD4680BD00BF2F
S315200026C080B582B000AF786039607B681B68184699
S315200026D0396800220023FDF779FE0346002B01D13D
S315200026E0002301E04FF0FF3318460837BD4680BD72
S315200026F080B483B000AF78607B681B68002B01D163
S31520002700002300E0012318460C37BD465DF8047B04
S31520002710704700BF80B483B000AF78607B6800222A
S315200027201A600C37BD465DF8047B704780B582B0D1
S3152000273000AF78600B46FB70FB784FF6FF701946AA
S315200027400022FEF789F802467B681A607B681B68C0
S31520002750002B01D1FF2309E0FB78002B05D17B68F4
S315200027601B6818460021FEF7ABF800235BB218461B
S315200027700837BD4680BD00BF80B584B000AF786005
S315200027803960FDF7ABFDF8603B68002B11D07B6804
S315200027901B6818463968FEF793F80346002B05D1C7
S315200027A0FDF79CFD0246FB68D31A12E04FF0FF337B
S315200027B00FE000BF7B681B6818464FF0FF31FEF71D
S315200027C07FF80346002BF5D1FDF788FD0246FB680E
S315200027D0D31A18461037BD4680BD00BF80B582B0DB
S315200027E000AF78607B681B681846FEF79BF80837B1
S315200027F0BD4680BD80B582B000AF78607B681B681F
S315200028001846FEF7B5F80837BD4680BD80B483B0BC
S3152000281000AF78607B681B68002B01D1002300E0A5
S31520002820012318460C37BD465DF8047B704700BF70
S3152000283080B483B000AF78607B6800221A600C37C2
S31520002840BD465DF8047B704780B500AF0020FDF7DC
S31520002850C1FE0246014B1A6080BD00BF00A20220C5
S3152000286080B582B000AF78600020FDF7B3FE024647
S315200028707B681A607B681B68002B01D1FF2300E070
S3152000288000235BB218460837BD4680BD80B582B0AE
S3152000289000AF78607B681B681846FDF78DFF083708
S315200028A0BD4680BD80B582B000AF78607B681B686E
S315200028B018464FF0FF31FDF7D3FE0837BD4680BDE1
S315200028C080B582B000AF78607B681B681846FDF73C
S315200028D01DFF0837BD4680BD80B58EB000AFF860BD
S315200028E0B9607A603B6007F1140300221A60043352
S315200028F000221A60043300221A60043300221A6070
S31520002900043300221A60043300221A6004330022A2
S315200029101A60043300221A60043300221A6004333A
S31520002920FB687B613B68BB623B6CFB6207F114036F
S31520002930B86879681A46FEF7C9F803461846383744
S31520002940BD4680BD80B500AF044B1B6818464FF0CE
S31520002950FF31FDF785FE0123184680BD00A2022027
S3152000296080B582B000AF7860034B1B681846FDF730
S31520002970CDFE0837BD4680BD00A2022080B586B0B8
S3152000298000AF786039600E23FB827B685B890E2B53
S3152000299000D872E07B68DB7B002B06D13B6893F87E
S315200029A034300133DAB27B68DA737B685B683B616B
S315200029B03B691A7B5B7B1B021343FB813B691B78BC
S315200029C003F00103002B23D03B691B78012B0FD189
S315200029D03B695B78002B1BD13B699B785E2B17D11B
S315200029E07B685B7B43F01003DAB27B685A730FE097
S315200029F03B691846254906221BF058FC0346002B46
S31520002A0006D17B685B7B43F00803DAB27B685A7396
S31520002A10FB89082B03D0B3F5C16F16D02DE03B6898
S31520002A2093F8313003F00803002B00D125E0FB8A10
S31520002A307868194603F0A0FD0346002B00D01CE061
S31520002A407868396810F084FD15E03B6893F83130DA
S31520002A5003F00803002B00D10FE0FB8A78681946A3
S31520002A6003F08AFD0346002B00D006E0786839681B
S31520002A700FF0FEFE00BF002303E0786803F04CFE53
S31520002A8000235BB218461837BD4680BD98F1012059
S31520002A9080B588B002AFF860B9607A603B603B8C45
S31520002AA0184607F0D3FC0346FB82B8680E2103F0D4
S31520002AB043FD0346002B02D000BFFE2326E0BB6861
S31520002AC05B683B613B69FA8A9A813B69184639689B
S31520002AD006221BF01DFC3B69063318467968062240
S31520002AE01BF016FCFB6893F83030062B08D00A4BF7
S31520002AF00093052009490A4A40F2331313F0E0FFF8
S31520002B00FB689B69F868B968984703465BB2184624
S31520002B101837BD4680BD00BF04F20120A8F1012070
S31520002B20D0F1012080B584B000AF786039600AF01A
S31520002B3045FDF860FB68B3F1FF3F0BD11348FFF763
S31520002B40BFFE786839680022FFF786FD0F48FFF739
S31520002B50A9FE18E0FB68002B02D10AF0D5FCE6E7B7
S31520002B600A48FFF7ADFE78683968FA68FFF774FD02
S31520002B70B8600648FFF796FEBB68B3F1FF3F02D167
S31520002B800AF0C2FCD3E71037BD4680BD04A202205E
S31520002B9080B586B002AF78601148FFF783FE114BEF
S31520002BA01B68002B05D00F4B1B680F4A1268104676
S31520002BB0984707F10C030D481946FFF7B3FFFB684A
S31520002BC0002B08D10A4B009305200A490A4A912373
S31520002BD013F076FF03E0FB68184600F00FF8E8E7ED
S31520002BE004A2022094420220984202209C42022003
S31520002BF06CF2012024F201204CF2012080B584B031
S31520002C0002AF78607B681B78012B19D0022B22D06B
S31520002C10002B27D17B68DB687A6851687A689268CE
S31520002C200846114698470346002B04D07B685B680C
S31520002C30184603F071FD092079680CF077FD1AE03B
S31520002C407B685B687A68926810469847082079689E
S31520002C500CF06CFD0FE07B685B687A689268104622
S31520002C60984708E0054B009305200549054ACF23E0
S31520002C7013F026FF00BF0837BD4680BD6CF2012049
S31520002C8024F201204CF2012080B588B002AFF86012
S31520002C90B9607A601A48FFF72BFD0346002B07D14F
S31520002CA0184B009305201849184AFC2313F008FFF7
S31520002CB009200CF0BFFC78617B69002B01D1FF2332
S31520002CC019E07B6900221A707B69FA685A607B6971
S31520002CD0BA689A607B697A68DA6009487969FFF789
S31520002CE091FC0346002B05D0092079690CF01EFDC6
S31520002CF0FF2300E000235BB218461837BD4680BD8F
S31520002D009C4202206CF2012024F2012088F201204C
S31520002D1080B582B000AF786039603B6893F8313077
S31520002D2003F01803002B06D078683968074AFFF7A6
S31520002D30ABFF034605E078683968054AFFF7A4FF2C
S31520002D4003465BB218460837BD4680BD7D29002064
S31520002D505135012080B586B002AF786039601548BC
S31520002D60FFF7C6FC0346002B08D1134B0093052022
S31520002D701249134A40F2391313F0A2FE08200CF030
S31520002D8059FCF860FB68002B01D1FF230DE0FB689E
S31520002D9001221A70FB687A685A60FB683A689A6062
S31520002DA00448F968FFF718FC00235BB21846103771
S31520002DB0BD4680BD9C4202206CF2012024F20120F7
S31520002DC088F2012080B586B002AF786039601A4853
S31520002DD0FFF78EFC0346002B08D1184B00930520E5
S31520002DE01749184A40F25D1313F06AFE08200CF0CA
S31520002DF021FCF860FB68002B01D1FF2316E0FB685D
S31520002E0001221A70FB687A685A60FB683A689A60F1
S31520002E100948F968FFF7F6FB0346002B05D0082082
S31520002E20F9680CF083FCFF2300E000235BB2184610
S31520002E301037BD4680BD00BF9C4202206CF20120A7
S31520002E4024F2012088F2012080B584B000AFF8601A
S31520002E50B9607A600748FFF725FDFB68B868984790
S31520002E600448FFF72DFD00235BB218461037BD46F8
S31520002E7080BD00BF04A2022080B584B000AF786078
S31520002E8039600848FFF70EFD7B6838689847034687
S31520002E90FB730448FFF714FDFB7B5BB21846103723
S31520002EA0BD4680BD04A2022080B584B000AF786004
S31520002EB0396008200CF0BEFBF860FB68002B01D1BE
S31520002EC0002309E0FB6802221A70FB687A685A60C0
S31520002ED0FB683A689A60FB6818461037BD4680BD85
S31520002EE080B582B000AF7860082079680CF01EFCAF
S31520002EF00837BD4680BD00BF80B584B002AF78607C
S31520002F000B48FFF7F5FB0346002B08D1094B00932E
S31520002F1005200949094A40F2392313F0D1FD044816
S31520002F207968FFF76FFB034618460837BD4680BD14
S31520002F309C4202206CF2012024F2012088F201201A
S31520002F4080B584B002AF78600B48FFF7D1FB03460B
S31520002F50002B08D1094B009305200949094A4FF453
S31520002F60137313F0ADFD04487968FFF767FB03463A
S31520002F7018460837BD4680BD9C4202206CF20120CF
S31520002F8024F2012088F2012080B584B002AF786057
S31520002F9039600AF049FB184A7B681360174A3B6878
S31520002FA0136017480621FFF7EBFA0346002B08D0DB
S31520002FB0144B009305201449144A40F2612313F060
S31520002FC07FFD1348FFF74CFC0346002B08D00D4B22
S31520002FD0009305200C490F4A40F2652313F070FD3B
S31520002FE0282300930C480D4900224FF47A73FFF7EB
S31520002FF073FC0837BD4680BD9442022098420220C9
S315200030009C4202206CF2012024F2012098F2012039
S3152000301004A20220BCF20120E0F20120912B002024
S3152000302080B584B000AF78607B68FB60F86803F0F9
S3152000303073FB1037BD4680BD80B582B000AF786087
S3152000304004487968FFF7BEFE034618460837BD4692
S3152000305080BD00BF2130002080B582B000AF7860EF
S3152000306004487968FFF7AEFE034618460837BD4682
S3152000307080BD00BF3976002080B582B000AF062023
S315200030800CF0D8FA78607B68002B04D07868002191
S3152000309010221BF03BFA7B6818460837BD4680BDD8
S315200030A080B582B000AF78607B68002B13D07B6838
S315200030B01B68002B0BD07B681B68184603F02CFB83
S315200030C07B6800225A607B685A687B681A600620F3
S315200030D079680CF02BFB0837BD4680BD80B584B0DF
S315200030E002AF78600B467B807B68002B09D11E4B94
S315200030F0009305201D491E4A682313F0E1FC002396
S315200031002DE07B681B68002B04D07B681B68184663
S3152000311003F002FB7B88362019464FF4207202F01A
S31520003120ADFF02467B681A607B681B68002B01D1C5
S31520003130002314E07B681B685B897A889A4207D94A
S31520003140094B0093052009490A4A732313F0B8FC5A
S315200031507B681A687B685A607B681B685B681846C0
S315200031600837BD4680BD00BF2CF30120E8F20120C0
S3152000317010F3012048F3012080B584B002AF7860B7
S315200031807B68002B08D10E4B009305200D490E4A73
S31520003190812313F095FC0FE07B681B68002B04D07D
S315200031A07B681B68184603F0B7FA7B6800225A60D2
S315200031B07B685A687B681A600837BD4680BD00BFA9
S315200031C02CF30120E8F201206CF3012080B586B0B3
S315200031D002AFF860B9601346FB80FB68002B09D16B
S315200031E01C4B009305201C491C4A992313F068FCAC
S315200031F0F0232AE0FB681B68002B04D0FB681B68C1
S31520003200184603F089FA36200021412202F036FFC3
S315200032100246FB681A60FB681B68002B04D1FB681A
S3152000322000225A60FF2310E0FB681B68BA685A60C8
S31520003230FB681A68FB681B68F98819811B8953810A
S31520003240FB681A68FB685A6000235BB21846103781
S31520003250BD4680BD2CF30120E8F2012088F3012031
S3152000326080B584B002AF786039607B68002B08D1C6
S31520003270134B009305201349134AB22313F020FC65
S315200032801BE03B68002B08D10D4B009305200D4910
S315200032900E4AB32313F014FC0FE07B681A683B68D0
S315200032A01B681046194603F00FFB7B681A687B687B
S315200032B05A60062039680CF039FA0837BD4680BDB9
S315200032C02CF30120E8F20120A0F30120BCF3012019
S315200032D080B586B002AFF860B9607A60FB68002BD3
S315200032E009D11D4B009305201C491D4AC62313F006
S315200032F0E7FBF0232AE0BB68002B09D1164B00938D
S3152000330005201649174AC72313F0DAFBF0231DE0E0
S315200033107B68002B09D1104B009305200F49124AD8
S31520003320C82313F0CDFBF02310E0FB685B68002B6D
S3152000333001D1FE230AE0FB685B685A68BB681A6005
S31520003340FB685B685A897B681A8000235BB2184643
S315200033501037BD4680BD00BF2CF30120E8F20120C6
S31520003360D8F30120F4F3012014F4012080B584B0B1
S3152000337002AF78607B68002B09D1114B00930520A2
S315200033801049114AE02313F09BFBFF2313E07B68CF
S315200033905B681B68002B01D1FF230CE07B685B6810
S315200033A01A687B685A607B685B681B68002B01D1B2
S315200033B0012300E000235BB218460837BD4680BDD6
S315200033C02CF30120E8F2012030F4012080B584B0EE
S315200033D002AF78607B68002B08D1084B009305204C
S315200033E00749084AF62313F06BFB03E07B681A684B
S315200033F07B685A600837BD4680BD00BF2CF301208C
S31520003400E8F201204CF4012080B483B000AF0346DB
S31520003410FB7197F90730002B04DC97F907305B42E4
S31520003420102B01DD052305E097F907305B42044A9E
S3152000343052F8233018460C37BD465DF8047B70479A
S3152000344068F4012080B584B002AF0346FB7197F97A
S31520003450073013F10E0F08D013F10D0F03D013F11F
S315200034600F0F04D005E00B4B10E00B4B0EE00B4B7F
S315200034700CE097F90730002B07D0094B0093052065
S315200034800849094A7D2313F01BFB002318460837F9
S31520003490BD4680BDACF40120ADF40120AEF4012080
S315200034A0E8F40120B0F40120D8F4012080B584B0DE
S315200034B002AF786039603B68002B07D1134B00932D
S315200034C005201349134A852313F0FAFA7B68124A1A
S315200034D0934204D13B68F3221A70012312E07B68E1
S315200034E00E4A934204D13B68F2221A70012309E066
S315200034F07B680B4A934204D13B68F1221A70012360
S3152000350000E0002318460837BD4680BDE8F40120B8
S31520003510B0F4012008F50120ACF40120ADF401201F
S31520003520AEF4012080B58AB002AFF860B9607A6047
S315200035303B60BB68002B07D1374B009305203749EA
S31520003540374AE52313F0BCFAFB68002B07D1324B30
S31520003550009305203149334AE62313F0B1FAFB687C
S31520003560FB61FB69002B03D1786803F0D5F84FE0A7
S31520003570FB695A68BB689A4207D0274B00930520FF
S315200035802649294AEE2313F09BFAFB691033184685
S31520003590FFF7AEF80346002B03D1786803F0BCF89A
S315200035A036E006200CF046F8B861BB69002B03D143
S315200035B0786803F0B1F82BE0BB697A681A60BB69BA
S315200035C07A685A603B68002B02D03B681B6800E093
S315200035D00023BA699360BB693A8D9A817B681B89FF
S315200035E0FB82FB6910331846B969FFF70BF80346CF
S315200035F0002B03D0B869FFF753FD09E0FB691B6A6E
S31520003600002B05D0FB691B6AFA8AF86900219847C6
S315200036102037BD4680BD00BFE8F40120B0F401206C
S3152000362014F5012038F5012058F5012080B58AB01F
S3152000363002AFF860B9607A60FB70BB68002B08D1D6
S315200036403A4B009305203A493A4A4FF4967313F0C1
S3152000365037FAFB68002B08D1344B009305203449F8
S31520003660354A40F22D1313F02BFA97F90330002B2D
S3152000367008D02E4B009305202D49304A4FF49773DE
S3152000368013F01EFAFB687B617B69002B01D1FA23BC
S3152000369046E07B695A68BB689A4208D0234B009360
S315200036A005202349264A40F2351313F009FA7B698F
S315200036B010331846FFF71CF80346002B0DD17B6804
S315200036C0002B08D07B681B89B868194608F01AFBBE
S315200036D0786803F021F8002322E07B68002B05D0D0
S315200036E07B68BB617B681B89FB8303E0154BBB6151
S315200036F00023FB837B6910331846B969FEF782FFE6
S315200037000346002B01D0FF230AE07B691B6A002BAE
S3152000371005D07B691B6AFA8B7869002198470023BC
S315200037205BB218462037BD4680BD00BFE8F40120B5
S31520003730B0F4012078F501209CF50120BCF501208C
S31520003740D4F50120AEF4012080B586B002AF7860B2
S3152000375039607B68FB60FB68002B08D12B4B0093FC
S3152000376005202B492B4A4FF4B57313F0A9F9FB68B2
S315200037705B78012B04D1F868012101F08BF916E062
S31520003780FB685B78042B12D1FB68DB69002B0AD01F
S31520003790FB68DB695B7A002B05D0FB68DB695A7A0C
S315200037A0013AD2B25A72F868012100F001FCFB6896
S315200037B01B7E03F01003002B22D0FB685B68002BD6
S315200037C01ED0FB685B68B3F8643040F669329342DA
S315200037D016D9FB685B68B3F86630042B10D8FB68F3
S315200037E01B7E23F01003DAB2FB681A76FB681B6A8D
S315200037F0002B05D0FB681B6AF86802210022984737
S3152000380000235BB218461037BD4680BDE8F4012080
S31520003810B0F40120F4F5012080B588B002AFF8603D
S31520003820B9601346FB80FB687B617B69002B08D15E
S31520003830224B009305202249224A40F2931313F08B
S315200038403FF97B69002B33D07B695B78012B04D150
S315200038507869012101F01EF907E07B695B78042B6A
S3152000386003D17869012100F0A3FB7B695B68002BFB
S315200038701ED07B695B68B3F8643040F669329342A8
S3152000388016D97B695B68B3F86630042B10D87B6940
S315200038901B7E23F01003DAB27B691A767B691B6ADA
S315200038A0002B05D07B691B6AFA8878690221984724
S315200038B000235BB218461837BD4680BDE8F40120C8
S315200038C0B0F40120F4F5012080B58AB002AF78600B
S315200038D00B46FB707B68FB61FB69002B08D1614BB3
S315200038E0009305206049614A4FF4DC7313F0E8F831
S315200038F0FFF728F8B861FB6900225A60FB69FA785D
S315200039001A72FB691B7E43F00103DAB2FB691A7651
S31520003910FB695B78FB75FB6900225A70B869FFF773
S315200039201FF8FB691B6A002B05D0FB691B6AF86927
S31520003930042100229847FB691B6A002B05D0FB69EE
S315200039401B6AF869002100229847FB691B6A002B35
S3152000395005D0FB691B6AF86902210022984797F96E
S3152000396003301846FFF76EFD3861FB6910331846A1
S31520003970FEF7BEFE0346002B05D0FB691033184622
S315200039803969FEF73FFEFB6914331846FEF7B0FE91
S315200039900346002B05D0FB69143318463969FEF718
S315200039A031FEFB7D012B05D0FB7D042B02D0FB7D58
S315200039B0032B47D1FB691B7E03F00403002B14BFA6
S315200039C001230023DBB2FB60FB691B7E23F004038B
S315200039D0DAB2FB691A76FB68002B32D1FB69DB6908
S315200039E0002B08D11F4B009305201F49204A4FF476
S315200039F0F37313F065F8FB7D042B04D1FB69DB69B7
S31520003A0000221A7103E0FB69DB69FA781A71FB69F7
S31520003A10DB691B680C33BB60B868FEF7F7FE03460C
S31520003A20002B08D10F4B009305200F49114A40F275
S31520003A30EF1313F045F8FB690022DA61B868FEF748
S31520003A40CDFE0CE0FB69DB69002B08D0054B00930B
S31520003A5005200549084A40F2F71313F031F82037BC
S31520003A60BD4680BDE8F40120B0F40120F4F5012024
S31520003A7004F6012020F601203CF6012080B584B012
S31520003A8000AF78607B685B68FB60F868796809F04E
S31520003A902FF9F868094909F03BF9F868084909F04F
S31520003AA059F9F8680749022209F0AEF9F86806497B
S31520003AB009F072F91037BD4680BD00BF2D360020B3
S31520003AC01938002049370020C938002090B58BB01E
S31520003AD002AFF860B9601346FB71FB68FB61FB69B6
S31520003AE0002B01D1FA239FE0FB6914331846FEF719
S31520003AF0FFFD0346002B01D1FA2395E0BB68002B7E
S31520003B001AD1FB6903F114046FF00C00FFF79AFC3D
S31520003B10034620461946FEF775FD0346002B09D1BC
S31520003B20FB691B6A002B05D0FB691B6AF86900211B
S31520003B3000229847FA2377E097F90730002B08D020
S31520003B403C4B009305203C493C4A40F22A2312F084
S31520003B50B7FFFB691A78FB691B6A1046194600F005
S31520003B60EFF8B861BB69002B1AD1FB6903F1140485
S31520003B706FF00C00FFF766FC034620461946FEF759
S31520003B8041FD0346002B09D1FB691B6A002B05D09A
S31520003B90FB691B6AF869002100229847FF2343E04E
S31520003BA0BB69BA685A60B869FFF768FFFB691433C6
S31520003BB01846B969FEF726FD0346002B29D0BB69B6
S31520003BC05B687B617869002109F092F878690021A9
S31520003BD009F09EF87869002109F0BCF8786900217F
S31520003BE0002209F011F97869002109F0D5F8BB699E
S31520003BF000225A60BB6910331846FEF7DBFCBB690E
S31520003C0010331846FEF786FDB86900F005F9FF2344
S31520003C100AE0FB691B6A002B05D0FB691B6AF86961
S31520003C2000210022984700235BB218462437BD4660
S31520003C3090BD00BFE8F40120B0F4012058F6012021
S31520003C4090B587B002AF78600023FB737B681B6852
S31520003C505B68002B08D02C4B009305202B492C4A5F
S31520003C6040F2652312F02CFF7B681B681B7803F05B
S31520003C70F003102B24D0202B36D17B681C68FB7BCD
S31520003C80184607F0AFFA034663607B681B685B68DB
S31520003C90002B14D07B681B681B78222B04D17B68F1
S31520003CA01B685B6801221A747B681B685A687B68EC
S31520003CB01B68104617491A4607F016FA18E017E04F
S31520003CC07B681C68FB7B184609F004F80346636092
S31520003CD07B681B685B68002B05D07B681B681846D1
S31520003CE0FFF7CCFE04E003E07B68FA221A7107E0B6
S31520003CF07B681B685B68002B02D17B68FF221A71E8
S31520003D001437BD4690BD00BFE8F40120B0F4012071
S31520003D1080F601202535002080B584B000AF78607C
S31520003D207B68FB60FB6800221A71FB681B685B6876
S31520003D30002B02D1F868FFF783FF1037BD4680BD00
S31520003D4080B588B002AF03463960FB710023FB744F
S31520003D5007200BF06FFCF860FB68002B01D10023D5
S31520003D6050E0FB6800221A72FB68FA791A70FB6829
S31520003D7000225A60FB7903F0F003102B04D0202B8D
S31520003D8005D106237B610CE006237B6109E01F4BEE
S31520003D90009305201E491F4A40F2E52312F090FEAB
S31520003DA02BE0FB68103318467969FEF7E9FB0346DA
S31520003DB0002B00D021E0FB680C3318460021FEF7CB
S31520003DC0B5FC0346002B05D0FB6810331846FEF7DA
S31520003DD0F1FB12E0FB6814331846FEF79BFCFB68E8
S31520003DE000225A70FB683A681A62FB680022DA6180
S31520003DF0FB68FA7C1A76FB6804E00720F9680BF06A
S31520003E0095FC002318461837BD4680BDE8F40120EE
S31520003E10B0F40120A0F6012080B584B002AF78600E
S31520003E207B685B68002B08D01D4B009305201D493D
S31520003E301D4A4FF4477312F043FE7B681033184631
S31520003E40FEF756FC0346002B08D0154B00930520A1
S31520003E501449164A4FF4497312F032FE7B68143324
S31520003E601846FEF745FC0346002B08D00C4B009362
S31520003E7005200C490E4A40F2273312F021FE7B68BA
S31520003E800C331846FEF7B6FC7B680C331846FEF753
S31520003E90CFFC072079680BF049FC0837BD4680BD6A
S31520003EA0E8F40120B0F40120C8F60120F8F601203C
S31520003EB034F7012080B586B000AF78607B68103378
S31520003EC01846FEF715FC0346002B30D018E07B6819
S31520003ED01B7803F0F003102B0ED13A6907F10F037C
S31520003EE010461946FFF7E2FA0346002B03D13B6939
S31520003EF0184602F011FC03E03B691846FFF7D0F89C
S31520003F007B6803F1100207F1100310461946FEF7ED
S31520003F10D7FB0346B3F1FF3FD9D17B681033184650
S31520003F20FEF748FB7B6810331846FEF7F3FB7B68E9
S31520003F3014331846FEF7DCFB0346002B35D01DE074
S31520003F403A6907F10E0310461946FFF7AFFA034602
S31520003F50002B13D13B697B617869FFF7ABFF7B6947
S31520003F605B68002B07D07B695B68184607F0CAFCA4
S31520003F707B6900225A607869FFF74EFF7B6803F160
S31520003F80140207F1100310461946FEF799FB034663
S31520003F90B3F1FF3FD4D17B6814331846FEF70AFBF2
S31520003FA07B6814331846FEF7B5FB1837BD4680BD2F
S31520003FB080B588B002AF78600B46FB7000237B7516
S31520003FC07B68002B08D1A84B00930520A749A84A57
S31520003FD040F2A23312F074FD7B681B7803F0F003E5
S31520003FE0102B08D0A04B00930520A049A14A40F2EF
S31520003FF0A33312F065FD7B685B78042B08D09A4BBF
S315200040000093052099499C4A4FF4697312F058FD94
S315200040107B685B68002B08D1934B0093052093495E
S31520004020964A40F2A53312F04BFD7B68DB69002BE4
S3152000403008D18D4B009305208C49914A40F2A63336
S3152000404012F03EFD7B685B683B617B68DB691B7A0F
S31520004050FB73FB7B03F00103BB73FB7B03F00203C3
S315200040607B73FB7B032B02D10123BB751FE0BB7B3C
S31520004070002B0ED03B691B7D052B07D03B691B7D92
S31520004080062B03D03B691B7D082B02D10123BB7570
S315200040900DE07B7B002B08D03B695B8B03F0100384
S315200040A0002B02D00123BB7501E00023BB75BB7D2D
S315200040B0002B03D03869002108F01AFE3B691B7DCE
S315200040C0012B04D13869002108F088FE1DE0BB7B56
S315200040D0002B07D03869002108F01AFE3869002124
S315200040E008F07CFE7B7B002B03D03869002108F08A
S315200040F031FEBB7D002B08D038690021002208F054
S3152000410083FE3869002108F047FEBB7D002B05D0D1
S31520004110386907F0B7FA0346FB7508E0BA7B7B7B64
S31520004120386911461A4607F0DBFA0346FB7597F9FC
S315200041301730002B02D101237B7516E097F9173033
S31520004140B3F1FF3F0FD17B68DB695B7A002B0CD183
S3152000415001237B75BB7D002B07D0386907F0D2FB86
S315200041600023FB7501E001237B757B7D002B44D06A
S315200041707B68DB691B680C33BB607B68DB69FA7D77
S315200041801A717B680022DA617B6800225A7097F9DF
S315200041901730002B29D1BB7D002B0CD07B68002249
S315200041A05A607B681B6A002B05D07B681B6A78687F
S315200041B0042100229847BB7B002B09D07B681B6A11
S315200041C0002B05D07B681B6A78680021002298475F
S315200041D07B7B002B09D07B681B6A002B05D07B6874
S315200041E01B6A7868022100229847FB78002B02D0B0
S315200041F0B868FEF7F3FA002331E07B7D002B20D14F
S315200042003B691B7D012B08D1174B009305201749CD
S315200042101C4A40F2414312F053FC7B7B002B03D017
S315200042203869194908F096FD38691849012208F0BD
S31520004230EBFD3869164908F0AFFD3869796808F052
S3152000424057FD97F91730002B08D1074B009305200F
S315200042500649104A40F24D4312F032FCFB7D5BB218
S3152000426018461837BD4680BDE8F40120B0F4012079
S3152000427070F7012080F70120A0F70120C4F7012064
S3152000428004F60120D8F701201938002049370020EC
S31520004290C9380020FCF7012080B586B002AF7860CF
S315200042A07B68FB60FB681B685B78FB72FB7A002BE4
S315200042B00FD0FB681B681B7803F0F003102B08D087
S315200042C0654B009305206549654A40F25F4312F02D
S315200042D0F7FBFB7A002B05D0FB7A022B02D0FB7A68
S315200042E0032B09D1FB7A032B0AD1FB681B681B7EA3
S315200042F003F00403002B03D1FB68FB221A71A2E012
S31520004300FB7A032B0FD1FB681B681B7E03F004038B
S31520004310002B08D1504B009305205049514A40F2BA
S315200043207B4312F0CDFBFB6800221A71FB681B68E9
S315200043301846FFF7BFFDFB681B685B68002B66D03D
S31520004340FB681B681B7803F0F003102B0ED0202B84
S3152000435000D058E0FB681B685B680022DA61FB68C6
S315200043601B685B68184606F0E1FE4CE0FB681B689C
S31520004370DB69002B08D0384B0093052037493A4A91
S3152000438040F2944312F09CFBFB681B6804225A708F
S31520004390FB6803221A72FB681B68FA68DA61FB68FD
S315200043A01B6818460021FFF703FE0346002B29D081
S315200043B0FB681B685B78042B08D0274B00930520ED
S315200043C026492A4A40F29A4312F07AFB2848FEF7F9
S315200043D077FAFB681B680C3318460021FEF7CCF9E8
S315200043E02348FEF75FFAFB681B685B78002B09D031
S315200043F0194B0093052019491C4A40F29E4312F09E
S315200044005FFB26E025E0FB681B6800225A60FB68FC
S315200044101B681B6A002B08D0FB681B681B6AFA689E
S3152000442012681046002100229847FB681B681B6A09
S31520004430002B08D0FB681B681B6AFA6812681046B6
S31520004440022100229847FB681B680C331846FEF7AA
S31520004450DDF91037BD4680BDE8F40120B0F4012017
S315200044600CF8012020F8012040F801205CF80120FA
S3152000447004A2022080B584B000AF78607B68BB6060
S31520004480BB681B685B68002B2AD0BB681B681B783F
S3152000449003F0F003102B10D0202B1DD1BB681B6816
S315200044A05968BB689A68BB689B89084611461A46B4
S315200044B006F0DEFC0346FB7311E0BB681B685968F7
S315200044C0BB689A68BB689B89084611461A4607F05E
S315200044D025FA0346FB7302E0FA23FB7300BF01E0D3
S315200044E0FA23FB73BB68FA7B1A711037BD4680BD71
S315200044F080B586B000AF78607B683B613B699B7B6B
S31520004500184603F0E1FFF860FB68002B23D03B69D7
S315200045101B685B68002B1ED00023FB753B691B685C
S315200045201B7803F0F003102B09D0202B0FD13B6909
S315200045301B685B681846F96806F022FD0AE03B69AD
S315200045401B685B681846F96807F082FA02E0FA23CE
S31520004550FB7500BF01E0FA23FB753B69FA7D1A71F2
S315200045601837BD4680BD00BF80B58AB002AFF8605F
S31520004570B9601346FB710023FB61FB68BB61BB6915
S31520004580002B01D1FA2376E0BB695B78032B08D098
S315200045903B4B009305203B493B4A40F2235312F004
S315200045A08FFABB69DB69002B0ED1BB691B7E03F03A
S315200045B00403002B08D1324B009305203149334A9E
S315200045C040F2255312F07CFABB69DB69002B08D038
S315200045D0BB69DB69FA791A71BB69DB691B680C3325
S315200045E0FB61BB691B7803F0F003102B06D197F90A
S315200045F00730002B02D1B869FFF740FABB691B7E52
S3152000460003F00403002B0CBF01230023DBB27B61E4
S31520004610BB691B7E23F00403DAB2BB691A767B6979
S31520004620002B02D0FB69002B0ED17B69002B02D117
S31520004630FB69002B08D0124B009305201149144A20
S3152000464040F2325312F03CFABB690022DA61BB69B0
S3152000465000225A70BB691B6A002B05D0BB691B6AF6
S31520004660B8690221002298477B69002B02D0F8699D
S31520004670FEF7B4F800235BB218462037BD4680BD4E
S31520004680E8F40120B0F4012064F8012084F8012028
S31520004690C4F8012080B588B002AF78607B683B61A2
S315200046A03B691B685B68002B02D1F123FB75A7E0F1
S315200046B03B691B681B7803F0F003102B11D0202BCD
S315200046C040F092803B691B6859683B699A683B6950
S315200046D09B89084611461A4606F06AFC0346FB7576
S315200046E08EE03B691B685B78032B02D1F723FB75B1
S315200046F079E03B691B685B78002B02D0F623FB75BB
S3152000470071E03B691B681846FFF7B8F93B691B68DF
S3152000471059683B699A683B699B89084611461A463F
S315200047203A4B07F08DFB0346FB7597F91730002BA4
S3152000473059D13B691B681B7E03F00203002B14BF73
S3152000474001230023DBB2FB733B691B6803225A70EB
S31520004750FB7B002B09D03B691B683A691268127EE5
S3152000476042F00402D2B21A7608E03B691B683A6925
S315200047701268127E22F00402D2B21A76FB7B002B3C
S3152000478002D0FB23FB752EE03B691B683A69DA6190
S315200047903B691B685B78032B08D01D4B00930520D3
S315200047A01C491D4A4FF4AE6312F08AF91B48FEF7E6
S315200047B087F83B691B680C3318460021FDF7DCFFA0
S315200047C01648FEF76FF83B691B685B78032B09D107
S315200047D00F4B009305200F490F4A40F2745312F0F5
S315200047E06FF910E00FE00BE0094B00930520094913
S315200047F00B4A40F27F5312F063F9FA23FB7500BF90
S315200048003B69FA7D1A711837BD4680BD694500207F
S31520004810E8F40120B0F401205CF8012004A2022073
S31520004820E4F8012080B584B000AF78607B68FB6037
S31520004830FB681B681B7803F0F003202B09D1FB686B
S315200048401B685B68184606F025FCFB6800221A7177
S3152000485002E0FB68FA221A711037BD4680BD00BF00
S3152000486080B586B000AF78607B687B617B691B680A
S315200048705B68002B00F082807B691B681B7803F045
S31520004880F003102B77D17B691B685B78002B67D1EF
S315200048907B691B685B681B7D002B02D0FA23FB72A9
S315200048A05DE0FF23FB747B691B685968FA7C07F17E
S315200048B00B03084611461A4607F016F9F860FB68FE
S315200048C0002B4CD07B691B6810331846FDF710FF70
S315200048D00346002B0BD07B691B6810331846FDF767
S315200048E069FE7B691B6810331846FDF713FF00230A
S315200048F0FB727B691B6814331846FDF7F9FE0346E5
S31520004900002B08D17B691B68143318460621FDF756
S3152000491037FE0346FB72FB7A002B18D17B691B6896
S3152000492002225A707B691B68FA685A607B691B6889
S315200049305A687B691B681046194608F0D9F97B69C5
S315200049401B685B681846114908F048FA07E0F868C2
S3152000495006F098FE7B691B6800225A6010E00FE083
S315200049607B691B685B78022B02D10023FB7207E070
S31520004970F523FB7204E0F023FB7201E0F523FB72C2
S31520004980FA7A7B691A711837BD4680BDCD3A002068
S3152000499080B584B000AF78607B68BB60BB681B685D
S315200049A0184601F005FB0346FB7397F90F30002BE1
S315200049B035D1BB681B685B68002B2ED0BB681B6893
S315200049C01B7803F0F003202B23D1BB689B689B68E0
S315200049D0002B0CD1BB681B685A68BB689B681B6898
S315200049E01046194606F04AF80346FB7314E0BB68E6
S315200049F01B685868BB689B681968BB689B6803F18D
S31520004A000802BB689B689B8906F070F80346FB7317
S31520004A1002E0F523FB7300BF01E0F523FB73BB68BF
S31520004A20FA7B1A711037BD4680BD00BF80B586B0AF
S31520004A3000AF78607B683B613B6900221A713B6955
S31520004A401B685B68002B22D03B691B681B7803F030
S31520004A50F003102B1BD13B699B687B617B69B3F507
S31520004A60803F02D27B699BB201E04FF6FF73FB8148
S31520004A703B691B685A68FB891046194607F042F9BC
S31520004A80FB897A69D31A7B617B69002BE6D11837BB
S31520004A90BD4680BD80B58AB002AF78600B46FB70FC
S31520004AA00023FB767B68002B08D19D4B00930520C5
S31520004AB09C499D4A40F2736312F002F87B685B784A
S31520004AC0012B08D0964B009305209649974A40F231
S31520004AD0746311F0F5FF7B68DB69002B08D1904BDE
S31520004AE0009305208F49924A40F2756311F0E8FF42
S31520004AF07B685B68002B08D1894B00930520894988
S31520004B008C4A40F2766311F0DBFF7B68DB699A6999
S31520004B107B68DB695B699A4208D3814B0093052049
S31520004B208049854A4FF4CF6311F0CAFF7B68DB6961
S31520004B309B89002B08D17A4B0093052079497F4A1F
S31520004B4040F2796311F0BCFF7B68DB691B7FBB7683
S31520004B507B681B7E03F00203002B04D1BB7E03F08F
S31520004B600403002B01D0012300E000233B767B6861
S31520004B70DB699B681A687B68DB691B6913447B6168
S31520004B807B68DB699B685A687B68DB691B69D31A7B
S31520004B903B613B69B3F5803F07D34FF6FF73BB8379
S31520004BA0BB7E43F00203BB7601E03B69BB837B6897
S31520004BB05B68B3F86430FB81FA89BB8B9A4215D2C5
S31520004BC0FB89BB833B7E002B0CD0BB8B002B0DD1EE
S31520004BD07B68DB699B69002B01D1F92300E0002368
S31520004BE0FB777FE0BB7E43F00203BB767B68DB6905
S31520004BF01A69BB8B1A447B68DB699B685B689A429F
S31520004C0008D9474B0093052046494D4A40F2A463F4
S31520004C1011F056FFBB8B4FF6FF72934203D13B69CF
S31520004C20B3F5803F09D23B699BB2BA8B9A420BD12E
S31520004C307B68DB699B89012B06D901237B76BB7EAA
S31520004C4043F00203BB7601E000237B767B6859683C
S31520004C50BA8BBB7E0846796908F0BCFE0346FB7713
S31520004C6097F91F30002B2CD17B68DB697A68D269D3
S31520004C709169BA8B0A449A617B68DB697A68D26942
S31520004C801169BA8B0A441A617B68DB691A697B68E9
S31520004C90DB699B685B689A4213D17B68DB699A89DA
S31520004CA0013A92B29A817B68DB699B89002B08D0F6
S31520004CB07B68DB699A6808329A607B68DB69002228
S31520004CC01A617B7E002B04D097F91F30002B3FF40E
S31520004CD04EAF97F91F30002B04D097F91F30B3F150
S31520004CE0FF3F47D13B7E002B2CD07B68DB699A693E
S31520004CF07B68DB695B699A4224D27B681B6A002B3E
S31520004D0005D07B681B6A78680321002298477B6858
S31520004D101B7E43F01003DAB27B681A762AE000BFC6
S31520004D20E8F40120B0F40120F4F50120FCF801207C
S31520004D3004F601201CF9012034F9012074F9012020
S31520004D409CF901207B685B68B3F8643040F66932D1
S31520004D50934205D97B685B68B3F86630042B09D982
S31520004D607B681B6A002B05D07B681B6A7868032149
S31520004D700022984797F91F30002B1ED17B68DB69EC
S31520004D809A697B68DB695B699A4202D03B7E002B7D
S31520004D9001D00123FB767B685B68184609F036FC58
S31520004DA003467B7397F90D3013F1040F04D17B7BF7
S31520004DB0FB770123FB7628E027E097F91F30B3F134
S31520004DC0FF3F20D17B685B68184609F01FFC03462D
S31520004DD03B7397F90C3013F1040F04D13B7BFB771F
S31520004DE00123FB760EE03B7E002B0BD07B68DB6934
S31520004DF09B69002B01D1F92300E00023FB770123D7
S31520004E00FB7602E001E00123FB76FB7E002B16D029
S31520004E107B68DB691B680C33BB607B68DB69FA7FC8
S31520004E201A717B680022DA617B6800225A70FB784F
S31520004E30002B03D0B868FDF7D1FC02E001E0FF2388
S31520004E4000E000235BB218462037BD4680BD00BF78
S31520004E5080B586B002AF78607B68BB60BB681B6894
S31520004E60184601F0A5F80346FB7397F90F30002B7F
S31520004E706FD1BB681B681B7803F0F003102B66D13B
S31520004E80BB681B685B78002B02D0FB23FB7360E0BA
S31520004E90BB681B685B68002B56D0BB681B68012269
S31520004EA05A70BB681B68DB69002B08D02C4B00931B
S31520004EB005202C492C4A40F2237311F001FEBB68D1
S31520004EC05B69002B08D1264B009305202549274AEC
S31520004ED040F2247311F0F4FDBB681B68BA68DA61EE
S31520004EE0BB681B6818460021FFF7D4FD0346002B3C
S31520004EF029D0BB681B685B78012B08D0184B009320
S31520004F00052018491A4A4FF4E56311F0D9FD1948CE
S31520004F10FDF7D6FCBB681B680C3318460021FDF74D
S31520004F202BFC1448FDF7BEFCBB681B685B78012B85
S31520004F3009D10B4B009305200A490D4A40F22C73E8
S31520004F4011F0BEFD08E007E0F523FB7301E0FA232C
S31520004F50FB73BB68FA7B1A711037BD4680BD00BF54
S31520004F60E8F40120B0F4012040F80120C8F901201E
S31520004F705CF8012004A2022080B586B002AF7860DA
S31520004F807B68FB60FB681B685B68002B6FD0FB6847
S31520004F901B7C002B07D0FB689B68FA681268526856
S31520004FA012681A6006E0FB689B68FA681268526805
S31520004FB052681A60FB6800221A71FB681B681B780E
S31520004FC003F0F003102B22D0202B45D1FB681B7C4D
S31520004FD0002B07D0FB68DB68FA6812685268528A91
S31520004FE01A8013E0FB681B685B681B7C03F00403D4
S31520004FF0002B03D1FB68F5221A7107E0FB68DB68FA
S31520005000FA6812685268928A1A802FE02EE0FB68AE
S315200050101B7C002B0FD1FB681B685B681B7D002B5C
S3152000502005D0FB681B685B681B7D012B03D1FB68E1
S31520005030F5221A711AE0FB68DA68FB681B7C002BE4
S3152000504004D0FB681B685B68DB8A03E0FB681B688F
S315200050505B681B8B138009E0084B009305200849E9
S31520005060084A40F27D7311F02BFD00BF02E0FB6879
S31520005070F5221A711037BD4680BD00BFE8F4012025
S31520005080B0F40120DCF9012080B586B002AF78604B
S315200050907B68FB60FB681B685B78FB72FB681B68A0
S315200050A05B68002B71D0FB681B681B7803F0F0034C
S315200050B0102B6AD1FB681B7A032B02D0FB7A022BBA
S315200050C063D0FB7A032B03D1FB68F5221A715BE0D0
S315200050D0FB7A012B03D1FB68FB221A7154E0FB6893
S315200050E01B7A03F00103002B04D0FB681B681846CB
S315200050F0FEF7E0FEFB681B68DB69002B08D0264B19
S31520005100009305202549264A40F2BD7311F0D8FCAC
S31520005110FB681B6804225A70FB681B68FA68DA6110
S31520005120FB681B6818460021FEF742FF0346002B4A
S3152000513029D0FB681B685B78042B08D0164B00939C
S3152000514005201649174A40F2C27311F0B9FC1648D9
S31520005150FDF7B6FBFB681B680C3318460021FDF7EC
S315200051600BFB1148FDF79EFBFB681B685B78002B49
S3152000517009D0094B0093052008490A4A40F2C67314
S3152000518011F09EFC04E003E002E0FB68F5221A71B0
S315200051901037BD4680BD00BFE8F40120B0F40120E1
S315200051A040F801205CF8012004A2022080B584B0DA
S315200051B000AF786039603B681B680C3378683968C3
S315200051C01A46FDF741FE0346FB7397F90F30002B75
S315200051D002D13B681B7900E0FB7B5BB21846103797
S315200051E0BD4680BD80B58EB002AF03463A60FB71E6
S315200051F00B46BB71FB7918463968FEF7A1FDF862AC
S31520005200FB6A002B5CD0BB793B74FB6ABB6007F161
S3152000521008032E481946FFF7C9FF034687F82B30A7
S3152000522097F92B30002B4BD0FB6A5B68002B07D0FD
S31520005230274B009305202749274AA32311F040FC3A
S31520005240FB6A10331846FDF753FA0346002B07D1A5
S315200052501F4B009305201F49204AA42311F030FC40
S31520005260FB6A14331846FDF743FA0346002B07D092
S31520005270174B009305201749194AA62311F020FC45
S31520005280FB6A0C331846FDF7C1FA0346002B07D1FB
S315200052900F4B009305200F49124AA92311F010FC49
S315200052A0FB6A0C331846FDF7A5FAFB6A103318463D
S315200052B0FDF780F90720F96A0AF038FA002300E0A2
S315200052C0FB6A18463037BD4680BD00BF193D002019
S315200052D040FA0120F4F901201CFA012060FA01208D
S315200052E078FA01209CFA012080B58CB000AF786056
S315200052F07B68002B01D1002314E07B68FB60292307
S315200053007B7507F10C030A481946FFF74FFF034642
S3152000531087F82F3097F92F30002B02D097F82F30AF
S3152000532000E000235BB218463037BD4680BD00BF83
S315200053309942002080B584B000AF78607B68002B4E
S3152000534001D100230CE07868FFF7CEFF0346FB73FC
S3152000535097F90F30002B02D17868FEF75DFDFB7BB5
S315200053605BB218461037BD4680BD00BF80B590B0F1
S3152000537002AFF860B9607A60FB70FB68002B0AD137
S315200053801F4B009305201F491F4A4FF4897311F0C4
S3152000539097FBF0232FE0BB68002B0AD1184B009314
S315200053A005201849194A40F2131311F089FBF023FE
S315200053B021E07B68002B0AD1114B0093052011496F
S315200053C0134A4FF48A7311F07BFBF02313E0FB683A
S315200053D07B61FB7887F82430BB68FB617B683B6286
S315200053E007F114030B481946FFF7E0FE034687F83A
S315200053F0373097F837305BB218463837BD4680BD10
S3152000540040FA0120F4F90120B8FA0120D8FA012047
S31520005410F8FA0120794F002080B590B002AFF860ED
S31520005420B9601346FB80FB68002B0AD1124B009310
S3152000543005201249124A4FF49C7311F041FBF023C8
S3152000544015E0BB68002B01D10E4BBB60FB687B616E
S31520005450BB68FB61FB883B8407F114030A481946A5
S31520005460FFF7A4FE034687F8373097F837305BB24C
S3152000547018463837BD4680BD40FA0120F4F9012090
S3152000548018FB01204C2002207544002080B58EB0E8
S3152000549002AF78600B46FB707B68002B0AD10F4B5E
S315200054A0009305200E490F4A4FF4B27311F008FB02
S315200054B0F0230EE07B68FB60FB78BB7607F10C03DC
S315200054C009481946FFF772FE034687F82F3097F8EA
S315200054D02F305BB218463037BD4680BD40FA0120DA
S315200054E0F4F9012034FB0120F144002080B590B06E
S315200054F002AFF860B9601346FB80FB68002B0AD127
S31520005500124B009305201249124A4FF4BF7311F033
