S00F00006173702E656C662E737265636C
S31520000000C089032001020020156E0220156E0220F1
S31520000010156E0220156E0220156E0220156E022026
S31520000020156E0220156E0220156E02208B6F02209F
S31520000030156E0220156E0220156E0220936E022088
S31520000040936E0220936E0220936E0220936E0220FE
S31520000050936E0220936E0220936E0220936E0220EE
S31520000060936E0220936E0220936E0220936E0220DE
S31520000070936E0220936E0220936E0220936E0220CE
S31520000080936E0220936E0220936E0220936E0220BE
S31520000090936E0220936E0220936E0220936E0220AE
S315200000A0936E0220936E0220936E0220936E02209E
S315200000B0936E0220936E0220936E0220936E02208E
S315200000C0936E0220936E0220936E0220936E02207E
S315200000D0936E0220936E0220936E0220936E02206E
S315200000E0936E0220936E0220936E0220936E02205E
S315200000F0936E0220936E0220936E0220936E02204E
S31520000100936E0220936E0220936E0220936E02203D
S31520000110936E0220936E0220936E0220936E02202D
S31520000120936E0220936E0220936E0220936E02201D
S31520000130936E0220936E0220936E0220936E02200D
S31520000140936E0220936E0220936E0220936E0220FD
S31520000150936E0220936E0220936E0220936E0220ED
S31520000160936E0220936E0220936E0220936E0220DD
S31520000170936E0220936E0220936E0220936E0220CD
S31520000180936E0220936E0220936E0220936E0220BD
S31520000190936E0220936E0220936E0220936E0220AD
S315200001A0936E0220936E0220936E0220936E02209D
S315200001B0936E0220936E0220936E0220936E02208D
S315200001C0936E0220936E0220936E0220936E02207D
S315200001D0936E0220936E0220936E0220936E02206D
S315200001E0936E0220936E0220936E0220936E02205D
S315200001F0936E0220936E0220000000000000000093
S3152000020071B64FF0000080F31488BFF36F8F184843
S31520000210016881F3088817484FF47001026842EAA2
S31520000220010202604FF0404013490860134800B1B4
S3152000023080474FF000001249124A914204D20860CA
S3152000024001F104019142FAD30F49104A914208D292
S315200002500F4B0868186001F1040103F10403914271
S31520000260F7D30C4800B1804727F0E8FAFEE70000F4
S315200002702C16032088ED00E034EF00E0000000009B
S31520000280A0270320F8350420181F0320A0270320C9
S31520000290181F03200000000080B584B000AF7860EE
S315200002A001F0F9FD0346002B02D06FF005030AE0AA
S315200002B0786801F041FAF860FB68002B02D06FF0F5
S315200002C0050300E0002318461037BD4680BD80B5E3
S315200002D000AF01F0C3FB0346184680BD80B58AB047
S315200002E002AFF860B9607A6001F0D5FD0346002BB5
S315200002F001D000233BE07B68002B09D01323009319
S315200003001D4B1E4A1E49032024F0B4F900232EE07B
S31520000310FB68002B09D117230093174B174A19495D
S31520000320032024F0A7F9002321E0BB68002B09D184
S315200003301B230093104B114A1349032024F09AF9EA
S31520000340002314E0BB68033323F00303FB61FB693E
S315200003509BB27B82FB689BB23B8200237B6100239E
S31520000360BB6107F11003184601F01EF80346184634
S315200003702037BD4680BD00BF98CD0220E4CB0220A9
S315200003801CCC022040CC02206CCC022080B588B048
S3152000039002AF786000237B617B683B6101F07BFDC7
S315200003A00346002B02D06FF0050330E03B69002B9B
S315200003B00CD17B68019330230093174B174A1849B9
S315200003C0032024F057F96FF0030320E001F046FDE7
S315200003D03B691B89002B12D13B691B8B002B0ED14D
S315200003E03B691B8C002B0AD1786801F065F8F86010
S315200003F0FB68002B07D06FF003037B6103E06FF0EF
S3152000040002037B6100E000BF01F014FD7B69184602
S315200004101837BD4680BD00BFACCD0220E4CB0220FC
S3152000042098CC022080B58AB002AFF860B9607A60B5
S315200004303B603B68FB616FF00303BB61FB687B613C
S3152000044001F029FD0346002B05D03B68002B02D086
S315200004506FF0030352E07B69002B0CD1FB680193FC
S315200004604F230093274B284A2849032024F002F9DA
S315200004706FF0030342E0BB68002B0CD1BB680193ED
S31520000480532300931F4B204A2149032024F0F2F8DE
S315200004906FF0030332E07B68002B0AD057230093CA
S315200004A0184B194A1B49032024F0E4F86FF0030384
S315200004B024E03B68002B03D16FF00203BB6109E007
S315200004C03B68B3F1FF3F02D14FF0FF33FB616FF082
S315200004D00103BB61FB697A68B968786901F00AF89B
S315200004E038613B69002B02D10023BB6105E03B69E3
S315200004F0032B02D16FF00303BB61BB69184620377B
S31520000500BD4680BDC4CD0220E4CB022098CC02207B
S31520000510C8CC0220FCCC022080B586B002AF786021
S315200005207B68FB60FB68002B0BD17B6801937423EF
S315200005300093104B104A1149032024F09BF8002306
S3152000054014E0F86801F054F80346002B0CD1FB6840
S315200005505B68019378230093064B074A08490320DA
S3152000056024F088F8002301E0FB681B891846103721
S31520000570BD4680BDD8CD0220E4CB022098CC0220F7
S3152000058024CD022080B58AB002AFF860B9603B6006
S315200005901346FB713B68FB616FF00303BB61FB688D
S315200005A07B6101F078FC0346002B05D03B68002BCD
S315200005B002D06FF003035DE07B69002B0CD1FB6852
S315200005C001938D2300932D4B2D4A2E49032024F091
S315200005D051F86FF003034DE0BB68002B0CD1BB68CC
S315200005E0019391230093254B254A2749032024F084
S315200005F041F86FF003033DE0FB79002B0AD09523E9
S3152000060000931E4B1E4A2149032024F033F86FF035
S3152000061003032FE03B68002B03D16FF00203BB617D
S3152000062009E03B68B3F1FF3F02D14FF0FF33FB6196
S315200006306FF00103BB61FA79FB69B968786900F04C
S31520000640EBFF38613B69002B02D10023BB6110E030
S315200006503B69032B03D16FF00303BB6109E03B69C0
S315200006600193A9230093054B054A0949032024F049
S3152000067001F8BB6918462037BD4680BDF0CD022063
S31520000680E4CB022098CC0220C8CC0220FCCC02204D
S315200006904CCD022080B584B002AF786039607B688B
S315200006A0002B09D1B5230093094B0A4A0A49032096
S315200006B023F0E0FF002307E07B681B68002204216B
S315200006C01846FFF70BFE034618460837BD4680BD81
S315200006D004CE0220E4CB022068CD022090B58BB058
S315200006E000AFF860B9607A6007F114017B680022D8
S315200006F0B868FFF797FE78627B6A0433042B1DD80F
S3152000070001A252F823F000BF270700202F07002060
S31520000710370700203D0700201D0700201023BB615E
S315200007207B69FB610EE06FF00303BB610AE06FF0AB
S315200007300203BB6106E04023BB6103E04FF0FF33B9
S31520000740BB6100BFFB681C4607F1180393E807004E
S3152000075084E80700F8682C37BD4690BD80B584B084
S3152000076000AFF860B9607A6007F108017B68002263
S31520000770F868FFF707FF034618461037BD4680BDC9
S3152000078080B586B002AF78600023FB6001F083FB62
S315200007900346002B01D000233CE0142000F0E2FCAD
S315200007A0F860FB68002B0BD11423019317230093C9
S315200007B01A4B1B4A1B49032023F05CFF002329E028
S315200007C000220121012000F0B3F90246FB68DA601D
S315200007D0FB68DB68002B04D1F86800F0DEFC002300
S315200007E018E0FB68104A9A60FB6800221A60FB68D2
S315200007F000225A60FB6800221A617B68002B08D011
S315200008007B685B6803F00103002B02D0FB680122A2
S315200008101A61FB6818461037BD4680BD28CF0220D6
S3152000082014CE022048CE0220EBEEADDE80B58AB093
S3152000083002AF786039600023FB6101F02CFBB861C0
S31520000840BB69002B02D06FF0050361E07B68002BAB
S315200008500AD137230093304B304A3149032023F005
S3152000086009FF6FF0030353E07B687B617B699B681C
S315200008702C4A93420DD07B699B6801933C230093BD
S31520000880254B264A2849032023F0F4FE6FF0030364
S315200008903EE007F10C03184601F078F938613B6910
S315200008A0002B0CD03B690193412300931A4B1B4A22
S315200008B01E49032023F0DEFE6FF0020328E001F03C
S315200008C0CDFA7B691B69002B0ED07B695B68002BF8
S315200008D00AD07B691A68FB689A4205D17B695B68F6
S315200008E05A1C7B695A6010E07B69DB68FA683968B4
S315200008F0184600F025FAF861FB69002B05D1FA6845
S315200009007B691A607B6901225A6001F093FAFB69C0
S3152000091018462037BD4680BD34CF022014CE022093
S315200009207CCE0220EBEEADDEA8CE0220D0CE022079
S3152000093080B58AB002AF78600023FB6101F0ABFA84
S31520000940B861BB69002B02D06FF0050363E07B68BA
S31520000950002B0AD15F230093314B324A32490320C0
S3152000096023F088FE6FF0030355E07B687B617B698B
S315200009709B682E4A93420DD07B699B680193642322
S315200009800093274B274A2A49032023F073FE6FF052
S31520000990030340E007F10C03184601F0F7F838612D
S315200009A03B69002B0CD03B690193692300931C4BB8
S315200009B01C4A2049032023F05DFE6FF002032AE043
S315200009C001F04CFA7B691A68FB689A421DD17B6953
S315200009D01B69002B09D07B695B68012B05D97B69D4
S315200009E05B685A1E7B695A6012E07B69DB68184691
S315200009F000F0DAF9F861FB69002B09D17B69002246
S31520000A001A607B6900225A6002E06FF00203FB61E4
S31520000A1001F010FAFB6918462037BD4680BD00BF9D
S31520000A2044CF022014CE02207CCE0220EBEEADDE97
S31520000A30A8CE0220D0CE022080B586B002AF786044
S31520000A400023FB6001F027FA0346002B02D06FF04B
S31520000A5005033EE07B68002B0AD1882300931F4BB9
S31520000A601F4A2049032023F005FE6FF0030330E0E0
S31520000A707B68BB60BB689B681B4A93420DD0BB68F2
S31520000A809B6801938D230093144B154A1749032025
S31520000A9023F0F0FD6FF003031BE001F0DFF9BB68E4
S31520000AA05B68002B0FD1BB68DB68184600F0F4F8B2
S31520000AB0F860FB68002B09D1BB6800229A60B868F1
S31520000AC000F06BFB02E06FF00203FB6001F0B2F96D
S31520000AD0FB6818461037BD4680BD00BF54CF0220A4
S31520000AE014CE02207CCE0220EBEEADDEA8CE022074
S31520000AF080B584B002AF78607B68002B09D0A5232F
S31520000B000093084B084A0949032023F0B3FD00232C
S31520000B1003E00020FFF734FE034618460837BD469B
S31520000B2080BD00BF64CF022014CE0220F8CE022062
S31520000B3080B588B002AFF860B9607A6000237B6127
S31520000B4001F0A9F90346002B01D000232FE07B6892
S31520000B50002B09D00E230093174B184A184903205F
S31520000B6023F088FD002322E0142000F0FBFA7861B0
S31520000B707B69002B0BD114230193132300930E4B77
S31520000B800E4A1049032023F075FD00230FE07B69F0
S31520000B90BA685A607B69FA681A607B690A4A9A6061
S31520000BA07B6900229A817B6900221A617B6918463B
S31520000BB01837BD4680BD00BF98D0022074CF0220D2
S31520000BC0ACCF0220D0CF0220EDBEADDE80B588B0FE
S31520000BD000AF7860396001F05EF9F8617B68002B20
S31520000BE002D16FF003032AE07B68BB61BB699B6877
S31520000BF0154A934202D06FF0030320E0FB69002BD5
S31520000C000BD107F10C03184600F0C0FF78617B6911
S31520000C10002B08D06FF0020311E03B68002B02D0B6
S31520000C206FF002030BE001F019F9FB681A463968E8
S31520000C30B86900F085F8386101F0FCF83B69184680
S31520000C402037BD4680BD00BFEDBEADDE80B584B089
S31520000C5000AF78600023FB607B68002B02D16FF029
S31520000C60030312E07B68BB60BB689B68094A93421A
S31520000C7002D06FF0030308E001F0F0F8B86800F046
S31520000C8093F8F86001F0D6F8FB6818461037BD4691
S31520000C9080BD00BFEDBEADDE80B586B002AF786008
S31520000CA00023FB6001F0F7F80346002B02D06FF01B
S31520000CB0050337E07B68002B0CD17B680193592311
S31520000CC000931A4B1A4A1B49032023F0D3FC6FF0DA
S31520000CD0030327E07B68BB60BB689B68164A934288
S31520000CE00DD0BB689B6801935E2300930F4B104A7F
S31520000CF01249032023F0BEFC6FF0030312E001F03B
S31520000D00ADF8BB689B89002B06D1BB6800229A6090
S31520000D10B86800F042FA02E06FF00203FB6001F0CF
S31520000D2089F8FB6818461037BD4680BDA8D002203A
S31520000D3074CF022004D00220EDBEADDE3CD00220CE
S31520000D4080B586B000AFF860B9607A6000237B6119
S31520000D50FB685B68002B05D0FB685B685A1EFB6846
S31520000D605A601CE0BB68002B03D16FF002037B6145
S31520000D7015E0BB68B3F1FF3F02D14FF0FF33BB60F4
S31520000D80FB6803F10C0007F110027B68B96800F0DC
S31520000D9011FD3B69002B02D06FF001037B617B695B
S31520000DA018461837BD4680BD80B584B000AF786040
S31520000DB00023FB607B689B89002B07D07B680C3364
S31520000DC000220021184600F037FD0EE07B685A68A5
S31520000DD07B681B689A4205D27B685B685A1C7B68D5
S31520000DE05A6002E06FF00203FB60FB68184610377A
S31520000DF0BD4680BD80B584B002AF786039607B681F
S31520000E00002B09D09C230093094B0A4A0A49032048
S31520000E1023F030FC002306E03B68396800221846A0
S31520000E20FFF786FE034618460837BD4680BD00BF3D
S31520000E30BCD0022074CF022064D0022080B588B0B6
S31520000E4000AF786039607B68FB6101F024F8B861F7
S31520000E50BB69002B02D04FF0FF332EE07B68002BBE
S31520000E6002D14FF0FF3328E07B68FB61FB699B686A
S31520000E70144A934202D04FF0FF331EE007F10C03D1
S31520000E80184600F083FE78617B69002B02D04FF074
S31520000E90FF3312E000F0E2FFFB681A463968F86972
S31520000EA0FFF74EFF386100F0C5FF3B69002B01D0EC
S31520000EB0002302E0FB695B68013318462037BD46F4
S31520000EC080BD00BFEDBEADDE80B588B002AFF86054
S31520000ED0B9607A6000F0DFFF0346002B01D00023C3
S31520000EE02AE0B968F86801F01FF878617B69002B61
S31520000EF00BD0FB6801930F230093114B114A124923
S31520000F00032023F0B7FB002316E007F11003194650
S31520000F10F86801F039F878617B69002B01D000234D
S31520000F200AE03B69184600F055FE78617B69002B84
S31520000F3001D0002300E03B6918461837BD4680BD26
S31520000F40F0D10220D0D0022004D1022080B586B074
S31520000F5002AF786000F09FFF0346002B02D06FF0AF
S31520000F60050326E007F10803184600F00FFEF86097
S31520000F70FB68002B0CD0FB680193272300930F4BB3
S31520000F800F4A1049032023F075FB6FF0030310E08E
S31520000F907B68002B0AD02B230093084B084A0A496A
S31520000FA0032023F067FB6FF0030302E000F030FE1E
S31520000FB0002318461037BD4680BD00BFFCD1022055
S31520000FC0D0D0022030D1022058D1022080B584B062
S31520000FD002AF786039607B68002B09D138230093F3
S31520000FE00F4B104A1049032023F044FB002313E043
S31520000FF07B681B68002B07D13C230093084B094ACA
S315200010000A49032023F036FB7B681B6800223968D7
S315200010101846FFF759FF034618460837BD4680BDD8
S3152000102010D20220D0D0022084D10220B4D10220B6
S3152000103080B485B000AF78600C4B1A687B68134487
S315200010400B4A934202D94FF0FF3309E0074B1B6846
S31520001050FB60064B1A687B681344044A1360FB68DE
S3152000106018461437BD465DF8047B7047181F0320C9
S31520001070F835042080B400AF00BFBD465DF8047B80
S31520001080704780B400AF00BFBD465DF8047B704753
S3152000109080B483B000AF786039604FF0FF331846D4
S315200010A00C37BD465DF8047B704780B485B000AF31
S315200010B0F860B9607A603B604FF0FF33184614370A
S315200010C0BD465DF8047B704780B485B000AFF860FC
S315200010D0B9607A603B604FF0FF3318461437BD463F
S315200010E05DF8047B704780B485B000AFF860B960C6
S315200010F07A603B604FF0FF3318461437BD465DF8E3
S31520001100047B704780B485B000AFF860B9607A6020
S315200011103B604FF0FF3318461437BD465DF8047B1D
S31520001120704780B483B000AF786039604FF0FF33EA
S3152000113018460C37BD465DF8047B704780B483B0F3
S3152000114000AF78604FF0FF3318460C37BD465DF888
S31520001150047B704780B400AF00231846BD465DF877
S31520001160047B704780B584B000AF78600023FB60B5
S3152000117000F091FE0346002B01D0002309E000F089
S315200011806DFE78682AF0A6FC0346FB6000F052FE4E
S31520001190FB6818461037BD4680BD80B582B000AFCB
S315200011A0786000F078FE0346002B0BD17B68002B7D
S315200011B00AD000F053FE78682AF094FC00F03AFE3C
S315200011C000BF01E000BF00E000BF0837BD4680BD7C
S315200011D080B483B000AF78607B687A685A607B6899
S315200011E07A681A6000BF0C37BD465DF8047B7047ED
S315200011F080B483B000AF786039607B685A683B68FA
S315200012005A603B687A681A607B685B683A681A603D
S315200012107B683A685A6000BF0C37BD465DF8047B90
S31520001220704780B483B000AF78607B685B687A686B
S3152000123012681A607B681B687A6852685A6000BF19
S315200012400C37BD465DF8047B704780B582B000AF91
S31520001250786039603868FFF7BBFF7B685B68002BD6
S3152000126003D17B683A685A6005E07B685B68396819
S315200012701846FFF7BDFF7B681B8801339AB27B684F
S315200012801A8000BF0837BD4680BD80B584B000AF48
S31520001290786039607B685B68002B1CD03B681B68D4
S315200012A0FB603868FFF7BDFF7B681B88013B9AB25D
S315200012B07B681A807B681B88002B03D17B68002201
S315200012C05A6008E07B685A683B689A4203D17B687B
S315200012D0FA685A6000BF00BF1037BD4680BD80B592
S315200012E084B000AF78607B685B68FB60FB68002B8E
S315200012F003D0F9687868FFF7C8FFFB6818461037EF
S31520001300BD4680BD80B588B000AFF860B9607A6010
S315200013103B60FB681B887B61FB685B68BB610023C5
S31520001320FB6116E0BB691B683B617B683968B8695D
S3152000133098470346002B07D0B969F868FFF7A5FF41
S31520001340B969B868FFF781FF3B69BB61FB69013367
S31520001350FB61FA697B699A42E4D300BF2037BD4618
S3152000136080BD80B588B000AFF860B9607A60FB6850
S315200013701B887B61FB685B68BB610023FB610BE01C
S31520001380BB691B683B61BB687968B86998473B694C
S31520001390BB61FB690133FB61FA697B699A42EFD332
S315200013A000BF2037BD4680BD80B58CB002AF7860C7
S315200013B07B681B881B01FB617B685B881A467B6800
S315200013C01B8803FB02F3BB61FA69BB69134428330C
S315200013D01846FFF7C7FE78617B69002B0ED1FA69A4
S315200013E0BB69134428330193162300932E4B2F4AAF
S315200013F02F49032023F03EF9002351E07B693B610E
S315200014007B685A883B695A807B681A883B691A80B0
S315200014103B69284A5A603B6900221A823B690022AE
S315200014205A613B6900221A813B690022DA603B69D6
S3152000143000221A833B690022DA613B6900221A8462
S315200014403B6900225A627B692833FB60FA68FB6994
S315200014501344BB60FB683B6200237B6219E03B6A56
S3152000146000221A813B695B881A467B6A03FB02F3DA
S31520001470BA681A443B6ADA603B6910333A6A114605
S315200014801846FFF7E2FE3B6A10333B627B6A013364
S315200014907B623B691B881A467B6A9A42DFD83B6986
S315200014A018462837BD4680BDE8D2022020D2022029
S315200014B064D20220ADBEAFDE80B582B000AF7860C8
S315200014C07B68002B01D103230DE07B685B68084A0B
S315200014D0934201D0032306E07B6800225A60786895
S315200014E0FFF75BFE002318460837BD4680BD00BFC8
S315200014F0ADBEAFDE80B58AB002AFF860B9607A6063
S315200015003B600023FB610023BB61FB685B68334AB9
S3152000151093420CD0FB685B68019348230093304BC1
S31520001520304A3149032023F0A5F8032352E000F086
S31520001530B2FC0346002B14D107F11403184600F021
S3152000154025FBF861FB69002B0BD0FB6901934E2329
S315200015500093234B234A2549032023F08BF8FB696C
S3152000156038E000F07BFCFB6808331846FFF7B7FE2F
S31520001570B861BB69002B0BD13B68002B08D0FB68F8
S3152000158003F118007B690022396800F013F9B8616D
S31520001590BB69002B19D0BB69D968FB685B881A46E2
S315200015A0B8682AF081FDFB6820330022B969184605
S315200015B000F042F90346002B09D1FB681033BA69C3
S315200015C011461846FFF741FE01E00423FB6100F0B7
S315200015D031FCFB6918462037BD4680BDADBEAFDE67
S315200015E000D3022020D2022098D20220C0D202208C
S315200015F080B483B000AF78607B685B68054A93420D
S315200016000CBF01230023DBB218460C37BD465DF81C
S31520001610047B7047ADBEAFDE80B58AB002AFF860FE
S31520001620B9603B601346FB710023FB610023BB615D
S31520001630FB685B68334A93420CD0FB685B68019376
S3152000164075230093304B314A3149032023F012F899
S31520001650032352E000F01FFC0346002B14D107F1B0
S315200016601403184600F092FAF861FB69002B0BD0A0
S31520001670FB6901937B230093234B244A25490320AE
S3152000168022F0F8FFFB6938E000F0E8FBFB68103336
S315200016901846FFF724FEB861BB69002B0BD13B68C7
S315200016A0002B08D0FB6803F120007B6900223968F3
S315200016B000F080F8B861BB69002B19D0BB69D868E7
S315200016C0FB685B881A46B9682AF0EEFCFB6818337B
S315200016D00022B969184600F0AFF80346002B09D15D
S315200016E0FB680833BA6911461846FFF7AEFD01E0DC
S315200016F00423FB6100F09EFBFB6918462037BD469C
S3152000170080BD00BFADBEAFDE14D3022020D20220A2
S3152000171098D20220C0D2022080B483B000AF786075
S315200017207B687A685A607B687A681A6000BF0C37D3
S31520001730BD465DF8047B704780B58EB002AF7860F9
S3152000174007F10C03184600F021FAF862FB6A002B19
S315200017500BD0FB6A019322230093124B124A1349A2
S31520001760032022F087FFBB6A17E0FA6807F110030F
S315200017707968184600F0FAF800F070FB07F11003BC
S3152000178019460B48FFF761FD00F054FB012000F0DD
S31520001790D7FA012000F08AFA002318463037BD46D2
S315200017A080BD00BF88D3022028D3022068D3022020
S315200017B0CC27032080B58EB000AFF860B9607A6080
S315200017C03B600023BB6107F110030C333A68B9680C
S315200017D0184600F0CBF8FB68002B05D007F1100364
S315200017E01946F868FFF731FD07F110030C33194647
S315200017F01048FFF72AFD00F01DFB012000F0A0FA9B
S31520001800012000F053FA00F029FBFB68002B05D0DD
S3152000181007F110031946F868FFF737FD7B68002BA0
S3152000182002D07A6B7B681A60BB6918463837BD468A
S3152000183080BD00BFCC27032080B588B000AFF860FC
S31520001840B9607A60FB685B68FB61FB69002B1ED080
S315200018500023BB820023BB61FB69BA689A607A6861
S31520001860FB695A62FB69143307F114010A4A0B48D3
S31520001870FFF748FD00F0DEFA3A1D07F11403084988
S315200018801846FFF76EFD00F0E9FA012300E0002379
S3152000189018462037BD4680BD2B1A0020CC270320B2
S315200018A0FD19002080B584B000AF78603960002330
S315200018B03B810023FB6000F0D1FA3B1D07F10801B4
S315200018C0084A0948FFF71EFD00F0B4FA3A4607F128
S315200018D0080306491846FFF744FD0023184610372B
S315200018E0BD4680BD2B1A0020CC270320FD190020E1
S315200018F080B584B000AF0423BB6000233B80002367
S315200019007B6000F0B7F8104B5B68002B17D000F017
S31520001910A5F80346FB6000F0A1FA07F10C0339464F
S315200019200A4A0948FFF7EEFC00F084FA07F108029C
S315200019303B4607491846FFF714FD00BF00E000BFED
S315200019401037BD4680BD00BFCC270320B719002025
S31520001950FD19002080B582B000AF7860FFF7C8FF80
S3152000196000F056F900BF0837BD4680BD80B584B06B
S3152000197000AFF860B9607A60FB68BA68DA6000F098
S315200019806DF80246FB681A61FB681B69B968184640
S3152000199000F07EF80246FB685A61FB681846FFF79E
S315200019A0BBFEFB687A689A60FB6800229A6100BFDA
S315200019B01037BD4680BD80B584B000AF78603960F1
S315200019C03B681B68FB607B68BB60BB68DB68B3F168
S315200019D0FF3F01D100230DE0BB681969BB685B6935
S315200019E01A46F86800F06CF80346002B01D0012354
S315200019F000E0002318461037BD4680BD80B584B070
S31520001A0000AF786039607B68FB603B681B68BB6011
S31520001A10FB68BA689A61FB689B680121184600F04A
S31520001A20FEF800BF1037BD4680BD80B485B000AF3C
S31520001A30786039603B681B68FB607B68BB60BB686D
S31520001A409A68FB689A4201D1012300E000231846D8
S31520001A501437BD465DF8047B704700BF80B400AFE5
S31520001A60034B1B681846BD465DF8047B704700BFD4
S31520001A70D827032080B400AF044B1B680133034AE8
S31520001A80136000BFBD465DF8047B7047D82703204E
S31520001A9080B485B000AF786039607A683B681344BB
S31520001AA0FB60FA687B689A4201D3FB6802E07A6899
S31520001AB03B68134418461437BD465DF8047B7047CF
S31520001AC080B485B000AFF860B9607A60BA687B6888
S31520001AD09A420BD8FA68BB689A4205D3FA687B68A3
S31520001AE09A4201D200230CE001230AE0FA687B68BF
S31520001AF09A4205D3FA68BB689A4201D2012300E0D4
S31520001B00002318461437BD465DF8047B704780B421
S31520001B1083B000AF7860044A7B68136000BF0C373F
S31520001B20BD465DF8047B7047D827032080B483B078
S31520001B3000AFEFF311837B607B68102B09D0084A36
S31520001B407B68136010237B607B6883F311880023F6
S31520001B5000E0012318460C37BD465DF8047B70472C
S31520001B60DC27032080B483B000AF78607B68002B2D
S31520001B7003D1054B1B6883F3118800BF0C37BD4684
S31520001B805DF8047B704700BFDC27032080B586B054
S31520001B9002AF786007F10803184628F0FDFFF860C9
S31520001BA0FB68002B09D0FB6800930D23074A0849E0
S31520001BB0052022F05FFD022303E0BA687B681A60E5
S31520001BC0002318461037BD4680BD00BFC8D302206B
S31520001BD09CD3022080B586B002AF7860786826F064
S31520001BE015FEF860FB68002B09D0FB6800931723CD
S31520001BF0054A0649052022F03DFD032300E0002387
S31520001C0018461037BD4680BDD4D302209CD302206F
S31520001C1080B500AF26F0FAFE0023184680BD80B5B9
S31520001C2086B002AF7860396007F1080319467868F4
S31520001C3000F038F9F860FB68002B0BD0FB680193A5
S31520001C407B6800932823164A1649052022F012FDA8
S31520001C50FB6821E000F01FF90346002B07D0BB6884
S31520001C603A681146184628F0CFF9F86006E0BB68B6
S31520001C703A681146184628F054F9F860FB68002B9C
S31520001C8009D0FB6800933523054A0749052022F031
S31520001C90F1FC032300E0002318461037BD4680BD23
S31520001CA0E4D30220ACD302209CD3022080B588B096
S31520001CB002AF786007F10C03184628F06DFF7861B3
S31520001CC07B69002B09D07B69009341231A4A1B4963
S31520001CD0052022F0CFFC02232AE0FB6807F1100240
S31520001CE01146184600F0DEF878617B69002B09D092
S31520001CF07B6900934623104A1049052022F0BAFC3E
S31520001D007B6915E03A697B68DB431946104628F063
S31520001D10E9F978617B69002B09D07B6900934B2315
S31520001D20054A0649052022F0A5FC032300E00023EE
S31520001D3018461837BD4680BDF0D302209CD302201A
S31520001D4080B588B002AF786007F10C03184628F0FA
S31520001D5023FF78617B69002B09D07B690093582388
S31520001D601A4A1B49052022F085FC02232AE0FB683B
S31520001D7007F110021146184600F094F878617B6945
S31520001D80002B09D07B6900935D23104A104905205A
S31520001D9022F070FC7B6915E03869796807F1080341
S31520001DA0012228F0D9F978617B69002B09D07B695B
S31520001DB000936223054A0649052022F05BFC032393
S31520001DC000E0002318461837BD4680BDFCD302200C
S31520001DD09CD3022080B500AF084B1B78013BDAB2BA
S31520001DE0064B1A70054B1B78002B05D1044B1B683C
S31520001DF01846FFF7B7FE00BF00BF80BDE0270320CF
S31520001E00E427032080B500AF084B1B78002B04D1B4
S31520001E10FFF78CFE0246064B1A60044B1B780133F3
S31520001E20DAB2024B1A7000BF80BD00BFE027032044
S31520001E30E427032080B500AF074B1B78013BDAB2BD
S31520001E40054B1A70044B1B78002B02D128F032FF69
S31520001E5000BF00BF80BD00BFE127032080B500AFD3
S31520001E60064B1B78002B01D128F0F0FE034B1B7884
S31520001E700133DAB2014B1A7000BF80BDE12703207F
S31520001E8080B582B000AF7860022026F01DFD00BF2D
S31520001E900837BD4680BD80B500AF28F09DFF0346BC
S31520001EA0184680BD80B485B000AF786039600023C5
S31520001EB0FB6012E01A4AFB6852F833207B689A428C
S31520001EC008D1174AFB68DB0013445A683B681A603E
S31520001ED000231FE0FB680133FB60FB68022BE9D976
S31520001EE00023FB6012E00F4AFB6852F833207B6820
S31520001EF09A4208D10B4AFB68DB0013445A683B68B8
S31520001F001A60002306E0FB680133FB60FB68002BA8
S31520001F10E9D0032318461437BD465DF8047B704785
S31520001F20DC0E032008D4022080B485B000AF786090
S31520001F3039600023FB601AE01249FA6813465B00F9
S31520001F4013449B000B4404331A687B689A420BD1D6
S31520001F500C49FA6813465B0013449B000B44083374
S31520001F603A681A60002306E0FB680133FB60FB68D1
S31520001F70022BE1D9032318461437BD465DF8047BAE
S31520001F80704700BF341F032080B485B000AF78604F
S31520001F9039600023FB601AE01249FA6813465B0099
S31520001FA013449B000B4404331A687B689A420BD176
S31520001FB00C49FA6813465B0013449B000B441A68CD
S31520001FC03B681A60002306E0FB680133FB60FB6870
S31520001FD0022BE1D9032318461437BD465DF8047B4E
S31520001FE0704700BF341F032080B586B000AF7860ED
S31520001FF007F10C031846FFF7C9FD38613B69002B32
S3152000200001D03B6922E000237B611BE011497A69FC
S3152000201013465B0013449B000B441A68FB689A42E4
S315200020200DD178680B497A6913465B0013449B00EF
S31520002030CA18034607CA83E80700002306E07B691F
S3152000204001337B617B69022BE0D9032318461837BD
S31520002050BD4680BD341F032080B582B000AF7860B6
S3152000206039603B68002204211846FEF737F90246FC
S315200020707B681A607B681B68002B02D14FF0FF3308
S3152000208000E0002318460837BD4680BD80B582B0E3
S3152000209000AF78607B681B681846FEF73DFA7B68C0
S315200020A01B681846FEF772F900BF0837BD4680BD8B
S315200020B080B582B000AF7860396000BF7B68186851
S315200020C039464FF0FF330022FEF75CFA0346002B19
S315200020D0F4D100BF0837BD4680BD80B584B000AFBF
S315200020E0786039607B681868394600230022FEF73D
S315200020F049FA0346002B02D10023FB7301E0FF239C
S31520002100FB7397F90F3018461037BD4680BD80B552
S3152000211082B000AF7860396039687868FFF7DDFFF4
S31520002120034618460837BD4680BD80B586B000AF49
S31520002130F860B9607A60FEF7CAF878617B68002B90
S3152000214013D0FB6818687B680022B968FEF76AF925
S3152000215038613B69002B05D1FEF7B9F802467B6949
S31520002160D31A0FE04FF0FF330CE0FB6818684FF0EE
S31520002170FF330022B968FEF755F9FEF7A8F80246A4
S315200021807B69D31A18461837BD4680BD80B582B004
S3152000219000AF786039607B681868002300223968B0
S315200021A0FEF740F90346002B01D1002301E04FF052
S315200021B0FF3318460837BD4680BD80B483B000AFD4
S315200021C078607B681B68002B01D1002300E0012387
S315200021D018460C37BD465DF8047B704780B483B043
S315200021E000AF78607B6800221A6000BF0C37BD46BE
S315200021F05DF8047B704780B582B000AF78600B46EF
S31520002200FB70FB78002219464FF6FF70FEF790FC14
S3152000221002467B681A607B681B68002B02D14FF050
S31520002220FF3309E0FB78002B05D17B681B68002172
S315200022301846FEF7CBFC002318460837BD4680BD5E
S3152000224080B584B000AF78603960FEF740F8F8605A
S315200022503B68002B11D07B681B6839681846FEF74F
S31520002260B5FC0346002B05D1FEF731F80246FB6884
S31520002270D31A12E04FF0FF330FE000BF7B681B68D4
S315200022804FF0FF311846FEF7A1FC0346002BF5D18F
S31520002290FEF71DF80246FB68D31A18461037BD46CE
S315200022A080BD80B582B000AF78607B681B68184619
S315200022B0FEF7CCFC00BF0837BD4680BD80B582B096
S315200022C000AF78607B681B681846FEF7E5FC00BF08
S315200022D00837BD4680BD80B483B000AF78607B6888
S315200022E01B68002B01D1002300E0012318460C3780
S315200022F0BD465DF8047B704780B483B000AF78603C
S315200023007B6800221A6000BF0C37BD465DF8047B4F
S31520002310704780B500AF0020FEF732FA0246024B26
S315200023201A6000BF80BD00BF388A032080B582B006
S3152000233000AF78600020FEF723FA02467B681A6019
S315200023407B681B68002B02D14FF0FF3300E000238F
S3152000235018460837BD4680BD80B582B000AF78608C
S315200023607B681B681846FEF767FB00BF0837BD462B
S3152000237080BD80B582B000AF78607B681B684FF067
S31520002380FF311846FEF752FA00BF0837BD4680BD1A
S3152000239080B582B000AF78607B681B681846FEF770
S315200023A0C7FA00BF0837BD4680BD80B58EB000AFE6
S315200023B0F860B9607A603B6007F11403242200219B
S315200023C0184629F06FFFFB687B613B68BB623B6C5C
S315200023D0FB6207F114031A467968B868FEF774FDA4
S315200023E0034618463837BD4680BD80B500AF054B3D
S315200023F01B684FF0FF311846FEF718FA01231846DE
S3152000240080BD00BF388A032080B582B000AF7860D7
S31520002410044B1B681846FEF78BFA00BF0837BD46EB
S3152000242080BD00BF388A032080B586B000AF7860B3
S3152000243039600E23FB827B685B890E2B6ED97B6805
S31520002440DB7B002B06D13B6893F830300133DAB2C0
S315200024507B68DA737B685B683B613B691A7B5B7BD5
S315200024601B021343FB813B691B7803F00103002BFE
S3152000247023D03B691B78012B0FD13B695B78002B5E
S315200024801BD13B699B785E2B17D17B685B7B43F026
S315200024901003DAB27B685A730FE03B69062228499B
S315200024A0184629F0D1FD0346002B06D17B685B7BBD
S315200024B043F00803DAB27B685A73FB89082B03D0F2
S315200024C0B3F5C16F14D032E03B6893F82D3003F09A
S315200024D00803002B24D0FB8A1946786806F086FF6D
S315200024E00346002B1ED13968786812F02DFC13E0C4
S315200024F03B6893F82D3003F00803002B14D0FB8A99
S315200025001946786806F072FF0346002B0ED139680B
S31520002510786811F0B3FD00BF00230CE000BF06E091
S3152000252000BF04E000BF02E000BF00E000BF786803
S3152000253007F02AF8002318461837BD4680BD00BF8D
S3152000254010D4022080B588B002AFF860B9607A60F6
S315200025503B603B8C18460BF073FA0346FB820E2138
S31520002560B86806F025FF0346002B27D1BB685B68B9
S315200025703B613B69FA8A9A813B690622396818468B
S3152000258029F092FD3B69063306227968184629F020
S315200025908BFDFB6893F82C30062B08D00B4B009351
S315200025A040F233130A4A0B49052022F063F8FB68F0
S315200025B09B69B968F8689847034602E000BF6FF048
S315200025C0010318461837BD4680BD00BF7CD40220C3
S315200025D020D4022054D4022080B584B000AF786085
S315200025E039600EF08FFBF860FB68B3F1FF3F0BD12B
S315200025F01348FFF7CDFE002239687868FFF795FD6E
S315200026000F48FFF7B6FE18E0FB68002B02D10EF04C
S315200026101BFBE6E70A48FFF7BBFEFA6839687868CD
S31520002620FFF783FDB8600648FFF7A3FEBB68B3F14A
S31520002630FF3F02D10EF008FBD3E71037BD4680BD21
S315200026403C8A032080B586B002AF78601148FFF738
S3152000265090FE114B1B68002B05D00F4B1B680F4AB1
S3152000266012681046984707F10C0319460C48FFF7E5
S31520002670B3FFFB68002B08D10A4B009391230A4A2B
S315200026800A49052021F0F6FF03E0FB68184600F012
S315200026900FF8E8E73C8A03200028032004280320BB
S315200026A008280320F0D40220A8D40220C8D402206F
S315200026B080B584B002AF78607B681B78012B18D078
S315200026C0022B21D0002B26D17B68DB687A685068E4
S315200026D07A689268114698470346002B04D07B6897
S315200026E05B68184606F050FF7968092010F0F4FB65
S315200026F01AE07B685B687A68926810469847796822
S31520002700082010F0E9FB0FE07B685B687A68926826
S315200027101046984708E0064B0093CF23054A064902
S31520002720052021F0A7FF00BF00BF0837BD4680BDAA
S31520002730F0D40220A8D40220C8D4022080B588B0C4
S3152000274002AFF860B9607A601B48FFF736FD034692
S31520002750002B07D1194B0093FC23194A1949052050
S3152000276021F088FF092010F03BFB78617B69002B64
S3152000277002D14FF0FF331AE07B6900221A707B6981
S31520002780FA685A607B69BA689A607B697A68DA6007
S3152000279079690948FFF7A1FC0346002B06D0796921
S315200027A0092010F099FB4FF0FF3300E00023184674
S315200027B01837BD4680BD00BF08280320F0D402206C
S315200027C018D50220C8D4022080B582B000AF786028
S315200027D039603B6893F82D3003F01803002B06D0A0
S315200027E0084A39687868FFF7A9FF034605E0064AD4
S315200027F039687868FFF7A2FF034618460837BD46B2
S3152000280080BD00BF29240020494D012080B586B017
S3152000281002AF786039601548FFF7CFFC0346002BDE
S3152000282008D1134B009340F23913124A124905205E
S3152000283021F020FF082010F0D3FAF860FB68002B67
S3152000284002D14FF0FF330DE0FB6801221A70FB68BE
S315200028507A685A60FB683A689A60F9680348FFF715
S3152000286027FC002318461037BD4680BD08280320C4
S31520002870F0D4022018D50220C8D4022080B586B014
S3152000288002AF786039601A48FFF797FC0346002BA1
S3152000289008D1184B009340F25D13174A17490520BB
S315200028A021F0E8FE082010F09BFAF860FB68002B68
S315200028B002D14FF0FF3317E0FB6801221A70FB6844
S315200028C07A685A60FB683A689A60F9680848FFF7A0
S315200028D004FC0346002B06D0F968082010F0FCFA09
S315200028E04FF0FF3300E0002318461037BD4680BD69
S315200028F008280320F0D4022018D50220C8D40220AC
S3152000290080B584B000AFF860B9607A600648FFF7FA
S3152000291030FDFB68B86898470348FFF739FD002368
S3152000292018461037BD4680BD3C8A032080B584B04A
S3152000293000AF786039600848FFF71BFD7B68386870
S3152000294098470346FB730448FFF722FD97F90F309B
S3152000295018461037BD4680BD3C8A032080B584B01A
S3152000296000AF78603960082010F03AFAF860FB680A
S31520002970002B01D1002309E0FB6802221A70FB68B4
S315200029807A685A60FB683A689A60FB68184610377E
S31520002990BD4680BD80B582B000AF786079680820DA
S315200029A010F09AFA00BF0837BD4680BD80B584B0C6
S315200029B002AF78600B48FFF700FC0346002B08D1D6
S315200029C0094B009340F23923084A0949052021F092
S315200029D051FE79680348FFF780FB034618460837FF
S315200029E0BD4680BD08280320F0D4022018D5022039
S315200029F0C8D4022080B584B002AF78600B48FFF7B8
S31520002A00DCFB0346002B08D1094B00934FF41373CC
S31520002A10084A0949052021F02DFE79680348FFF769
S31520002A2076FB034618460837BD4680BD0828032096
S31520002A30F0D4022018D50220C8D4022080B584B054
S31520002A4002AF786039600EF093F9194A7B681360FB
S31520002A50184A3B68136006211748FFF7FDFA03461C
S31520002A60002B08D0154B009340F26123144A1549D8
S31520002A70052021F0FFFD1448FFF758FC0346002BE4
S31520002A8008D00E4B009340F26523104A0D490520CD
S31520002A9021F0F0FD182300934FF4806300220C49A7
S31520002AA00C48FFF782FC00BF0837BD4680BD00BF3B
S31520002AB0002803200428032008280320F0D402201D
S31520002AC028D50220C8D402203C8A03204CD50220D7
S31520002AD04526002070D5022080B584B000AF7860EE
S31520002AE07B68FB60F86806F04FFD00BF1037BD46D7
S31520002AF080BD80B582B000AF786079680348FFF763
S31520002B00BDFE034618460837BD4680BDD92A00209B
S31520002B1080B582B000AF786079680448FFF7AEFED2
S31520002B20034618460837BD4680BD00BF91A4002045
S31520002B3080B582B000AF062010F052F978607B682D
S31520002B40002B04D010220021786829F0ABFB7B688B
S31520002B5018460837BD4680BD80B582B000AF786084
S31520002B607B68002B13D07B681B68002B0BD07B68FF
S31520002B701B68184606F008FD7B6800225A607B68B1
S31520002B805A687B681A607968062010F0A5F900BF9C
S31520002B900837BD4680BD80B584B002AF78600B464D
S31520002BA07B807B68002B09D11D4B009368231D4A2F
S31520002BB01D49052021F05EFD00232DE07B681B6862
S31520002BC0002B04D07B681B68184606F0DDFC7B884A
S31520002BD04FF420721946362006F08CF902467B689F
S31520002BE01A607B681B68002B01D1002314E07B68E8
S31520002BF01B685B897A889A4207D9094B009373230D
S31520002C000A4A0949052021F035FD7B681A687B6848
S31520002C105A607B681B685B6818460837BD4680BDCE
S31520002C20C4D5022080D502209CD50220ECD50220D6
S31520002C3080B584B002AF78607B68002B08D10E4B3C
S31520002C40009381230D4A0E49052021F013FD0FE044
S31520002C507B681B68002B04D07B681B68184606F02F
S31520002C6093FC7B6800225A607B685A687B681A60EE
S31520002C700837BD4680BD00BFC4D5022010D602202D
S31520002C809CD5022080B586B002AFF860B9601346A5
S31520002C90FB80FB68002B0AD11D4B009399231D4A0C
S31520002CA01D49052021F0E6FC6FF00F032BE0FB68A1
S31520002CB01B68002B04D0FB681B68184606F064FCD2
S31520002CC041220021362006F015F90246FB681A60DB
S31520002CD0FB681B68002B05D1FB6800225A604FF069
S31520002CE0FF3310E0FB681B68BA685A60FB681A68F5
S31520002CF0FB681B68F98819811B895381FB681A6850
S31520002D00FB685A60002318461037BD4680BD00BFB9
S31520002D10C4D502202CD602209CD5022080B584B0B2
S31520002D2002AF786039607B68002B08D1134B009383
S31520002D30B223134A1349052021F09CFC1BE03B6873
S31520002D40002B08D10D4B0093B3230F4A0D490520C4
S31520002D5021F090FC0FE07B681A683B681B681946D7
S31520002D60104606F0E9FC7B681A687B685A60396869
S31520002D70062010F0B1F80837BD4680BDC4D5022024
S31520002D8044D602209CD5022060D6022080B586B08B
S31520002D9002AFF860B9607A60FB68002B0AD11E4B3F
S31520002DA00093C6231D4A1E49052021F063FC6FF0BF
S31520002DB00F032DE0BB68002B0AD1174B0093C723C6
S31520002DC0184A1749052021F055FC6FF00F031FE024
S31520002DD07B68002B0AD1104B0093C823124A104956
S31520002DE0052021F047FC6FF00F0311E0FB685B68BC
S31520002DF0002B02D16FF001030AE0FB685B685A687A
S31520002E00BB681A60FB685B685A897B681A80002356
S31520002E1018461037BD4680BDC4D502207CD6022078
S31520002E209CD5022098D60220B8D6022080B584B040
S31520002E3002AF78607B68002B0AD1124B0093E02307
S31520002E40114A1249052021F015FC4FF0FF3314E0FA
S31520002E507B685B681B68002B02D14FF0FF330CE0C8
S31520002E607B685B681A687B685A607B685B681B684E
S31520002E70002B01D1012300E0002318460837BD4668
S31520002E8080BD00BFC4D50220D4D602209CD5022006
S31520002E9080B584B002AF78607B68002B08D1084BE0
S31520002EA00093F623074A0849052021F0E3FB03E0B7
S31520002EB07B681A687B685A600837BD4680BD00BFAC
S31520002EC0C4D50220F0D602209CD5022080B483B03F
S31520002ED000AF0346FB7197F90730002B04DC97F906
S31520002EE007305B42102B01DD052305E097F90730FB
S31520002EF05B42044A52F8233018460C37BD465DF82B
S31520002F00047B70470CD7022080B584B002AF0346FD
S31520002F10FB7197F9073013F10E0F08D013F10D0F3F
S31520002F2003D013F10F0F04D005E00B4B10E00B4B31
S31520002F300EE00B4B0CE097F90730002B07D0094B1E
S31520002F4000937D23084A0949052021F093FB00239D
S31520002F5018460837BD4680BD50D7022051D70220DB
S31520002F6052D702208CD7022054D7022064D70220C1
S31520002F7080B584B002AF786039603B68002B07D1FA
S31520002F80134B00938523134A1349052021F072FB26
S31520002F907B68124A934204D13B68F3221A700123BC
S31520002FA012E07B680E4A934204D13B68F2221A70E3
S31520002FB0012309E07B680B4A934204D13B68F12246
S31520002FC01A70012300E0002318460837BD4680BD4D
S31520002FD08CD70220B4D7022064D7022050D70220F3
S31520002FE051D7022052D7022080B58AB002AFF860AE
S31520002FF0B9607A603B60BB68002B07D1374B0093E2
S31520003000E523374A3749052021F034FBFB68002B9E
S3152000301007D1324B0093E623334A3249052021F06B
S3152000302029FBFB68FB61FB69002B03D1786806F05E
S31520003030ABFA4FE0FB695A68BB689A4207D0274B28
S315200030400093EE23294A2749052021F013FBFB692B
S3152000305010331846FFF7B1F80346002B03D17868E2
S3152000306006F092FA36E006200FF0BAFEB861BB6988
S31520003070002B03D1786806F087FA2BE0BB697A68C3
S315200030801A60BB697A685A603B68002B02D03B689D
S315200030901B6800E00023BA699360BB693A8D9A8168
S315200030A07B681B89FB82FB691033B9691846FFF7D9
S315200030B014F80346002B03D0B869FFF74DFD09E04D
S315200030C0FB695B6A002B05D0FB695B6AFA8A0021E3
S315200030D0F86998472037BD4680BD00BF8CD70220AF
S315200030E0C0D7022064D70220E4D7022004D80220C9
S315200030F080B58AB002AFF860B9607A60FB70BB68B1
S31520003100002B08D13A4B00934FF49673394A3A492B
S31520003110052021F0AFFAFB68002B08D1344B009331
S3152000312040F22D13354A3449052021F0A3FA97F9A8
S315200031300330002B08D02E4B00934FF49773304A60
S315200031402D49052021F096FAFB687B617B69002BCF
S3152000315002D16FF0050347E07B695A68BB689A4243
S3152000316008D0234B009340F23513264A22490520E6
S3152000317021F080FA7B6910331846FFF71EF80346C4
S31520003180002B0DD17B68002B08D07B681B89194644
S31520003190B8680CF0D3F8786806F0F6F9002323E037
S315200031A07B68002B05D07B68BB617B681B89FB8312
S315200031B003E0154BBB610023FB837B691033B969A0
S315200031C01846FEF78AFF0346002B02D04FF0FF3346
S315200031D00AE07B695B6A002B05D07B695B6AFA8B08
S315200031E0002178699847002318462037BD4680BDC0
S315200031F08CD7022024D8022064D7022048D8022067
S3152000320068D8022080D8022052D7022080B586B006
S3152000321002AF786039607B68FB60FB68002B08D1C1
S315200032202A4B00934FF4B573294A2A49052021F0E9
S3152000323021FAFB685B78012B04D10121F86801F0A3
S3152000324090F916E0FB685B78042B12D1FB681B6AA9
S31520003250002B0AD0FB681B6A5B7A002B05D0FB6823
S315200032601B6A5A7A013AD2B25A720121F86800F0E2
S315200032700CFCFB681B7F03F01003002B21D0FB689E
S315200032805B68002B1DD0FB685B68B3F86430B3F530
S31520003290866F16D3FB685B68B3F86630042B10D8AC
S315200032A0FB681B7F23F01003DAB2FB681A77FB68F2
S315200032B05B6A002B05D0FB685B6A00220221F86856
S315200032C09847002318461037BD4680BD8CD702206C
S315200032D0A0D8022064D7022080B588B002AFF8605B
S315200032E0B9601346FB80FB687B617B69002B08D1A4
S315200032F0214B009340F29313204A2149052021F0C7
S31520003300B9F97B69002B32D07B695B78012B04D11C
S315200033100121786901F025F907E07B695B78042BA8
S3152000332003D10121786900F0B0FB7B695B68002B33
S315200033301DD07B695B68B3F86430B3F5866F16D30E
S315200033407B695B68B3F86630042B10D87B691B7FDA
S3152000335023F01003DAB27B691A777B695B6A002B4C
S3152000336005D07B695B6AFA88022178699847002331
S3152000337018461837BD4680BD8CD70220A0D802201B
S3152000338064D7022080B58AB002AF78600B46FB7006
S315200033907B68FB61FB69002B08D1634B00934FF4DC
S315200033A0DC73624A6249052021F064F9FFF71DF8B3
S315200033B0B861FB6900225A60FB69FA781A72FB69C8
S315200033C01B7F43F00103DAB2FB691A77FB695B784E
S315200033D0FB75FB6900225A70B869FFF715F8FB697F
S315200033E05B6A002B05D0FB695B6A00220421F86921
S315200033F09847FB695B6A002B05D0FB695B6A002254
S315200034000021F8699847FB695B6A002B05D0FB69A8
S315200034105B6A00220221F869984797F9033018461B
S31520003420FFF772FD3861FB6910331846FEF7C5FEBB
S315200034300346002B05D0FB69103339691846FEF781
S315200034404CFEFB6914331846FEF7B7FE0346002BE5
S3152000345005D0FB69143339691846FEF73EFEFB7D1D
S31520003460012B05D0FB7D042B02D0FB7D032B47D1FE
S31520003470FB691B7F03F00403002B14BF01230023E9
S31520003480DBB2FB60FB691B7F23F00403DAB2FB6926
S315200034901A77FB68002B41D1FB691B6A002B08D1E8
S315200034A0214B00934FF4F373224A2149052021F042
S315200034B0E1F8FB7D042B04D1FB691B6A00221A71FB
S315200034C003E0FB691B6AFA781A71FB691B6A1B68A1
S315200034D00C33BB60B868FEF7FEFE0346002B08D10E
S315200034E0114B009340F2EF13134A1149052021F0A6
S315200034F0C1F8FB6900221A62B868FEF7D2FE0DE019
S31520003500FB691B6A002B0AD0074B009340F2F71386
S315200035100A4A0749052021F0ADF800E000BF00BFA8
S315200035202037BD4680BD00BF8CD70220A0D8022000
S3152000353064D70220B0D80220CCD80220E8D80220B6
S3152000354080B584B000AF78607B685B68FB60796883
S31520003550F8680CF037FF0A49F8680CF044FF09496F
S31520003560F8680CF063FF02220749F8680CF0BDFFEB
S315200035700649F8680CF07EFF00BF1037BD4680BDB7
S31520003580F1300020D93200200D3200208533002072
S3152000359090B58BB002AFF860B9601346FB71FB683B
S315200035A0FB61FB69002B02D16FF00503A3E0FB69E9
S315200035B014331846FEF701FE0346002B02D16FF0A6
S315200035C0050398E0BB68002B1BD1FB6903F11404AB
S315200035D06FF00C00FFF798FC034619462046FEF7CD
S315200035E07CFD0346002B09D1FB695B6A002B05D0C5
S315200035F0FB695B6A00220021F86998476FF0050392
S3152000360079E097F90730002B08D03D4B009340F224
S315200036102A233C4A3C49052021F02CF8FB691A78DC
S31520003620FB695B6A1946104600F0F1F8B861BB6980
S31520003630002B1BD1FB6903F114046FF00C00FFF77C
S3152000364063FC034619462046FEF747FD0346002B3A
S3152000365009D1FB695B6A002B05D0FB695B6A0022F6
S315200036600021F86998474FF0FF3344E0BB69BA68F8
S315200036705A60B869FFF764FFFB691433B9691846C5
S31520003680FEF72BFD0346002B2AD0BB695B687B61C6
S31520003690002178690CF096FE002178690CF0A3FED3
S315200036A0002178690CF0C2FE0022002178690CF016
S315200036B01CFF002178690CF0DDFEBB6900225A60F0
S315200036C0BB6910331846FEF7E1FCBB691033184678
S315200036D0FEF784FDB86900F00BF94FF0FF330AE0DE
S315200036E0FB695B6A002B05D0FB695B6A002200211F
S315200036F0F8699847002318462437BD4690BD00BF79
S315200037008CD7022004D9022064D7022090B587B036
S3152000371002AF78600023FB737B681B685B68002B15
S3152000372008D02C4B009340F265232B4A2B490520C9
S3152000373020F0A0FF7B681B681B7803F0F003102B9A
S3152000374022D0202B33D17B681C68FB7B18460BF0DC
S3152000375052F8034663607B681B685B68002B2AD09F
S315200037607B681B681B78222B04D17B681B685B68EF
S3152000377001221A747B681B6858687B681B681A4686
S3152000378017490AF0BBFF16E07B681C68FB7B1846CE
S315200037900CF00AFE034663607B681B685B68002B9F
S315200037A00BD07B681B681846FFF7CAFE05E07B68CE
S315200037B0FA221A710AE000BF00E000BF7B681B688E
S315200037C05B68002B02D17B68FF221A711437BD4635
S315200037D090BD00BF8CD702202CD9022064D70220AE
S315200037E0E92F002080B584B000AF78607B68FB604D
S315200037F0FB6800221A71FB681B685B68002B02D1EC
S31520003800F868FFF783FF00BF1037BD4680BD80B53F
S3152000381088B002AF03463960FB710023FB74072092
S315200038200FF0DEFAF860FB68002B01D1002354E08C
S31520003830FB6800221A72FB68FA791A70FB6800226C
S315200038405A60FB7903F0F003102B04D0202B05D10E
S3152000385006237B610CE006237B6109E0214B009364
S3152000386040F2E523204A2149052020F003FF2FE0DE
S31520003870FB68103379691846FEF7EEFB0346002BEA
S3152000388025D1FB680C3300211846FEF7B4FC03460D
S31520003890002B05D0FB6810331846FEF7F7FB17E020
S315200038A0FB6814331846FEF799FCFB6800225A7011
S315200038B0FB684FF0FF329A61FB683A685A62FB68F0
S315200038C000221A62FB68FA7C1A77FB6805E000BFC3
S315200038D0F96807200FF000FB002318461837BD466D
S315200038E080BD00BF8CD702204CD9022064D702208D
S315200038F080B584B002AF78607B685B68002B08D007
S315200039001E4B00934FF447731D4A1E49052020F095
S31520003910B1FE7B6810331846FEF74FFC0346002B9A
S3152000392008D0164B00934FF44973174A15490520C2
S3152000393020F0A0FE7B6814331846FEF73EFC0346B3
S31520003940002B08D00D4B009340F227330F4A0D4928
S31520003950052020F08FFE7B680C331846FEF7AEFC60
S315200039607B680C331846FEF7C7FC796807200FF0F2
S31520003970B3FA00BF0837BD4680BD00BF8CD70220F2
S3152000398074D9022064D70220A4D90220E0D90220CB
S3152000399080B586B000AF78607B6810331846FEF796
S315200039A00CFC0346002B2FD018E07B681B7803F015
S315200039B0F003102B0ED13B6907F10F021146184672
S315200039C0FFF7D6FA0346002B08D13B69184605F0C7
S315200039D0DBFD03E03B691846FFF7BEF87B68103332
S315200039E007F1100211461846FEF7D0FB0346B3F145
S315200039F0FF3FDAD17B6810331846FEF747FB7B681A
S31520003A0010331846FEF7EAFB7B6814331846FEF798
S31520003A10D4FB0346002B34D01DE03B6907F10E0290
S31520003A2011461846FFF7A4FA0346002B13D13B692B
S31520003A307B617869FFF7ACFF7B695B68002B07D059
S31520003A407B695B6818460BF077FA7B6900225A601F
S31520003A507869FFF74DFF7B68143307F11002114692
S31520003A601846FEF793FB0346B3F1FF3FD5D17B689B
S31520003A7014331846FEF70AFB7B6814331846FEF704
S31520003A80ADFB00BF1837BD4680BD80B588B002AFFC
S31520003A9078600B46FB7000237B757B68002B08D172
S31520003AA0A74B009340F2A233A64AA749052020F04F
S31520003AB0E1FD7B681B7803F0F003102B08D0A04BA8
S31520003AC0009340F2A333A14A9F49052020F0D2FD5E
S31520003AD07B685B78042B08D0994B00934FF469736D
S31520003AE09B4A9949052020F0C5FD7B685B68002B21
S31520003AF008D1934B009340F2A533964A924905206C
S31520003B0020F0B8FD7B681B6A002B08D18C4B0093F4
S31520003B1040F2A633904A8C49052020F0ABFD7B6805
S31520003B205B683B617B681B6A1B7AFB73FB7B03F03C
S31520003B300103BB73FB7B03F002037B73FB7B032B2D
S31520003B4002D10123BB751FE0BB7B002B0ED03B6946
S31520003B501B7D052B07D03B691B7D062B03D03B69BC
S31520003B601B7D082B02D10123BB750DE07B7B002B2F
S31520003B7008D03B695B8B03F01003002B02D0012396
S31520003B80BB7501E00023BB75BB7D002B03D0002154
S31520003B9038690CF017FC3B691B7D012B04D10021F1
S31520003BA038690CF08BFC1DE0BB7B002B07D0002175
S31520003BB038690CF018FC002138690CF07FFC7B7BFF
S31520003BC0002B03D0002138690CF030FCBB7D002B84
S31520003BD008D00022002138690CF087FC00213869C2
S31520003BE00CF048FCBB7D002B05D038690BF058F84B
S31520003BF00346FB7507E0BB7B7A7B194638690BF0D9
S31520003C007DF80346FB7597F91730002B02D1012367
S31520003C107B7516E097F91730B3F1FF3F0FD17B681C
S31520003C201B6A5B7A002B0CD101237B75BB7D002B95
S31520003C3007D038690BF080F90023FB7501E00123DA
S31520003C407B757B7D002B44D07B681B6A1B680C33FD
S31520003C50BB607B681B6AFA7D1A717B6800221A6238
S31520003C607B6800225A7097F91730002B29D1BB7D2B
S31520003C70002B0CD07B6800225A607B685B6A002B85
S31520003C8005D07B685B6A0022042178689847BB7B55
S31520003C90002B09D07B685B6A002B05D07B685B6AAA
S31520003CA000220021786898477B7B002B09D07B680F
S31520003CB05B6A002B05D07B685B6A0022022178684C
S31520003CC09847FB78002B02D0B868FEF7EAFA002363
S31520003CD032E07B7D002B20D13B691B7D012B08D157
S31520003CE0174B009340F241431C4A1749052020F008
S31520003CF0C1FC7B7B002B03D0194938690CF096FB5D
S31520003D000122184938690CF0F0FB174938690CF084
S31520003D10B1FB796838690CF055FB97F91730002B01
S31520003D2008D1074B009340F24D43104A064905201F
S31520003D3020F0A0FC97F9173018461837BD4680BDED
S31520003D408CD702201CDA022064D702202CDA02202B
S31520003D504CDA022070DA0220B0D8022084DA02205F
S31520003D60D93200200D32002085330020A8DA022027
S31520003D7080B586B002AF78607B68FB60FB681B6805
S31520003D805B78FB72FB7A002B0FD0FB681B681B78D5
S31520003D9003F0F003102B08D0654B009340F25F43ED
S31520003DA0644A6549052020F065FCFB7A002B05D086
S31520003DB0FB7A022B02D0FB7A032B09D1FB7A032B49
S31520003DC00AD1FB681B681B7F03F00403002B03D179
S31520003DD0FB68FB221A719FE0FB7A032B0FD1FB684D
S31520003DE01B681B7F03F00403002B08D1504B009364
S31520003DF040F27B43514A5049052020F03BFCFB68AA
S31520003E0000221A71FB681B681846FFF7C1FDFB6884
S31520003E101B685B68002B65D0FB681B681B7803F06A
S31520003E20F003102B0ED0202B00D057E0FB681B6828
S31520003E305B680022DA61FB681B685B6818460AF03B
S31520003E407FFC4BE0FB681B681B6A002B08D0384BB5
S31520003E50009340F294433A4A3749052020F00AFC61
S31520003E60FB681B6804225A70FB6803221A72FB68DF
S31520003E701B68FA681A62FB681B6800211846FFF760
S31520003E8004FE0346002B4ED0FB681B685B78042B90
S31520003E9008D0274B009340F29A432A4A2649052008
S31520003EA020F0E8FB2848FEF773FAFB681B680C3302
S31520003EB000211846FEF7C4F92348FEF75AFAFB6894
S31520003EC01B685B78002B2ED0194B009340F29E4343
S31520003ED01C4A1949052020F0CDFB24E0FB681B680D
S31520003EE000225A60FB681B685B6A002B07D0FB68C0
S31520003EF01B685B6AFA681068002200219847FB68F5
S31520003F001B685B6A002B07D0FB681B685B6AFA6834
S31520003F101068002202219847FB681B680C3318465C
S31520003F20FEF7D9F900E000BF1037BD4680BD00BFBF
S31520003F308CD70220B8DA022064D70220CCDA0220FD
S31520003F40ECDA022008DB02203C8A032080B584B00C
S31520003F5000AF78607B68BB60BB681B685B68002B22
S31520003F6026D0BB681B681B7803F0F003102B0ED0FD
S31520003F70202B19D1BB681B685868BB689968BB6839
S31520003F809B891A460AF07AFA0346FB7312E0BB684D
S31520003F901B685868BB689968BB689B891A460AF0F3
S31520003FA0D7FF0346FB7305E0FA23FB7300BF01E04E
S31520003FB0FA23FB73BB68FA7B1A7100BF1037BD4624
S31520003FC080BD80B586B000AF78607B683B613B6979
S31520003FD09B7B184607F095F9F860FB68002B23D0E9
S31520003FE03B691B685B68002B1ED00023FB753B6971
S31520003FF01B681B7803F0F003102B09D0202B0FD160
S315200040003B691B685B68F96818460AF0C1FA0AE042
S315200040103B691B685B68F96818460BF035F802E0C7
S31520004020FA23FB7500BF01E0FA23FB753B69FA7D95
S315200040301A7100BF1837BD4680BD80B58AB002AF61
S31520004040F860B9601346FB710023FB61FB68BB6116
S31520004050BB69002B02D16FF0050376E0BB695B7864
S31520004060032B08D03B4B009340F223533A4A3B495B
S31520004070052020F0FFFABB691B6A002B0ED1BB6915
S315200040801B7F03F00403002B08D1324B009340F230
S315200040902553334A3149052020F0ECFABB691B6AC7
S315200040A0002B08D0BB691B6AFA791A71BB691B6A97
S315200040B01B680C33FB61BB691B7803F0F003102BE4
S315200040C006D197F90730002B02D1B869FFF738FAE5
S315200040D0BB691B7F03F00403002B0CBF01230023C5
S315200040E0DBB27B61BB691B7F23F00403DAB2BB69B9
S315200040F01A777B69002B02D0FB69002B0ED17B69D6
S31520004100002B02D1FB69002B08D0124B009340F202
S315200041103253144A1149052020F0ACFABB6900221B
S315200041201A62BB6900225A70BB695B6A002B05D0F4
S31520004130BB695B6A00220221B86998477B69002B1C
S3152000414002D0F869FEF7ADF8002318462037BD46A1
S3152000415080BD00BF8CD7022010DB022064D702204E
S3152000416030DB022070DB022080B588B002AF786099
S315200041707B683B613B691B685B68002B02D1F1239E
S31520004180FB75A1E03B691B681B7803F0F003102B3D
S315200041900FD0202B40F08B803B691B6858683B6909
S315200041A099683B699B891A460AF00BFA0346FB7508
S315200041B08AE03B691B685B78032B02D1F723FB75EA
S315200041C081E03B691B685B78002B02D0F623FB75E8
S315200041D079E03B691B681846FFF7B2F93B691B6813
S315200041E058683B6999683B699A893B4B0BF040F9C3
S315200041F00346FB7597F91730002B64D13B691B6882
S315200042001B7F03F00203002B14BF01230023DBB224
S31520004210FB733B691B6803225A70FB7B002B09D07A
S315200042203B691B683A691268127F42F00402D2B2D7
S315200042301A7708E03B691B683A691268127F22F0F8
S315200042400402D2B21A77FB7B002B02D0FB23FB752C
S3152000425039E03B691B683A691A623B691B685B78DF
S31520004260032B08D01D4B00934FF4AE631C4A1D4907
S31520004270052020F0FFF91C48FEF78AF83B691B68E9
S315200042800C3300211846FDF7DBFF1748FEF771F8BF
S315200042903B691B685B78032B1AD1104B009340F2C5
S315200042A074530F4A0F49052020F0E4F910E00B4B18
S315200042B0009340F27F530D4A0A49052020F0DAF98F
S315200042C0FA23FB7500E000BF3B69FA7D1A7100E016
S315200042D000BF1837BD4680BD3B4000208CD702204A
S315200042E008DB022064D702203C8A032090DB0220D0
S315200042F080B584B000AF78607B68FB60FB681B6884
S315200043001B7803F0F003202B09D1FB681B685B6840
S3152000431018460AF0C9F9FB6800221A7102E0FB6808
S31520004320FA221A7100BF1037BD4680BD80B586B00F
S3152000433000AF78607B687B617B691B685B68002BBC
S315200043407FD07B691B681B7803F0F003102B75D197
S315200043507B691B685B78002B65D17B691B685B6872
S315200043601B7D002B02D0FA23FB726CE0FF23FB742B
S315200043707B691B685B6807F10B02F97C18460AF01B
S31520004380D0FEF860FB68002B5DD07B691B6810337C
S315200043901846FDF712FF0346002B0BD07B691B68DE
S315200043A010331846FDF772FE7B691B6810331846DA
S315200043B0FDF714FF0023FB727B691B681433184634
S315200043C0FDF7FBFE0346002B08D17B691B681433DF
S315200043D006211846FDF740FE0346FB7297F90B307F
S315200043E0002B18D17B691B6802225A707B691B68D7
S315200043F0FA685A607B691B685A687B691B6819468C
S3152000440010460BF0DFFF7B691B685B681249184674
S315200044100CF054F817E0F8680AF042FC7B691B6838
S3152000442000225A600FE07B691B685B78022B02D161
S315200044300023FB7207E0F523FB7204E0F023FB72F6
S3152000444001E0F523FB7297F90B207B691A7100BFF7
S315200044501837BD4680BD00BF9135002080B584B099
S3152000446000AF78607B68BB60BB681B68184604F0A9
S3152000447082FC0346FB7397F90F30002B35D1BB68BE
S315200044801B685B68002B2ED0BB681B681B7803F06B
S31520004490F003202B23D1BB689B689B68002B0CD193
S315200044A0BB681B685A68BB689B681B681946104620
S315200044B009F0DAFD0346FB7317E0BB681B685868F2
S315200044C0BB689B681968BB689B6803F10802BB68D8
S315200044D09B689B8909F000FE0346FB7305E0F523E4
S315200044E0FB7300BF01E0F523FB73BB68FA7B1A71EF
S315200044F000BF1037BD4680BD80B586B000AF78605E
S315200045007B683B613B6900221A713B691B685B68CB
S31520004510002B22D03B691B681B7803F0F003102B7D
S315200045201BD13B699B687B617B69B3F5803F02D2D7
S315200045307B699BB201E04FF6FF73FB813B691B68E9
S315200045405B68FA89114618460AF0F8FEFB897A69F3
S31520004550D31A7B617B69002BE6D100BF1837BD4695
S3152000456080BD80B58AB002AF78600B46FB70002311
S31520004570FB767B68002B08D19C4B009340F273633B
S315200045809B4A9C49052020F075F87B685B78012BB7
S3152000459008D0964B009340F27463974A95490520BC
S315200045A020F068F87B681B6A002B08D18F4B00939C
S315200045B040F27563914A8F49052020F05BF87B68AD
S315200045C05B68002B08D1894B009340F276638C4AB6
S315200045D08849052020F04EF87B681B6A9A697B681B
S315200045E01B6A5B699A4208D3804B00934FF4CF63D2
S315200045F0844A8049052020F03DF87B681B6A9B8908
S31520004600002B08D1794B009340F279637E4A794991
S31520004610052020F02FF87B681B6A1B7FBB767B6802
S315200046201B7F03F00203002B04D1BB7E03F004039F
S31520004630002B01D0012300E000233B767B681B6A18
S315200046409B681A687B681B6A1B6913447B617B68BD
S315200046501B6A9B685A687B681B6A1B69D31A3B6175
S315200046603B69B3F5803F07D34FF6FF73BB83BB7E11
S3152000467043F00203BB7601E03B69BB837B685B6842
S31520004680B3F86430FB81FA89BB8B9A4216D2FB8938
S31520004690BB833B7E002B0DD0BB8B002B0ED17B68C2
S315200046A01B6A9B69002B02D16FF0060300E00023F2
S315200046B0FB777EE0BB7E43F00203BB767B681B6AFA
S315200046C01A69BB8B1A447B681B6A9B685B689A4293
S315200046D008D9464B009340F2A4634C4A454905202D
S315200046E01FF0C8FFBB8B4FF6FF72934203D13B6985
S315200046F0B3F5803F09D23B699BB2BA8B9A420BD164
S315200047007B681B6A9B89012B06D901237B76BB7E9E
S3152000471043F00203BB7601E000237B767B68586872
S31520004720BB7EBA8B79690CF0FDFC0346FB7797F9C3
S315200047301F30002B2CD17B681B6A7A68126A91691C
S31520004740BA8B0A449A617B681B6A7A68126A116975
S31520004750BA8B0A441A617B681B6A1A697B681B6AD2
S315200047609B685B689A4213D17B681B6A9A89013AD7
S3152000477092B29A817B681B6A9B89002B08D07B6842
S315200047801B6A9A6808329A607B681B6A00221A6143
S315200047907B7E002B04D097F91F30002B3FF44EAFC1
S315200047A097F91F30002B04D097F91F30B3F1FF3F44
S315200047B045D13B7E002B2BD07B681B6A9A697B6890
S315200047C01B6A5B699A4223D27B685B6A002B05D001
S315200047D07B685B6A00220321786898477B681B7F89
S315200047E043F01003DAB27B681A7728E08CD70220D0
S315200047F0A0D8022064D70220A8DB0220B0D802204D
S31520004800C8DB0220E0DB022020DC022048DC02207C
S315200048107B685B68B3F86430B3F5866F05D37B6835
S315200048205B68B3F86630042B09D97B685B6A002B7A
S3152000483005D07B685B6A002203217868984797F940
S315200048401F30002B1DD17B681B6A9A697B681B6A07
S315200048505B699A4202D03B7E002B01D00123FB7676
S315200048607B685B6818460DF081FA03467B7397F9DF
S315200048700D3013F1040F2CD17B7BFB770123FB76C4
S3152000488027E097F91F30B3F1FF3F20D17B685B68A3
S3152000489018460DF06BFA03463B7397F90C3013F16B
S315200048A0040F04D13B7BFB770123FB7611E03B7E93
S315200048B0002B0ED07B681B6A9B69002B02D16FF000
S315200048C0060300E00023FB770123FB7601E00123AA
S315200048D0FB76FB7E002B15D07B681B6A1B680C338E
S315200048E0BB607B681B6AFA7F1A717B6800221A629A
S315200048F07B6800225A70FB78002B06D0B868FDF73B
S31520004900D0FC02E04FF0FF3300E0002318462037AA
S31520004910BD4680BD80B586B002AF78607B68BB603F
S31520004920BB681B68184604F026FA0346FB7397F902
S315200049300F30002B6ED1BB681B681B7803F0F00389
S31520004940102B65D1BB681B685B78002B02D0FB233C
S31520004950FB735FE0BB681B685B68002B55D0BB68A8
S315200049601B6801225A70BB681B681B6A002B08D083
S315200049702C4B009340F223732B4A2C4905201FF021
S3152000498079FEBB685B69002B08D1264B009340F269
S315200049902473274A254905201FF06CFEBB681B6837
S315200049A0BA681A62BB681B6800211846FFF7D9FD52
S315200049B00346002B32D0BB681B685B78012B08D0DE
S315200049C0184B00934FF4E5631A4A184905201FF047
S315200049D051FE1948FDF7DCFCBB681B680C3300212F
S315200049E01846FDF72DFC1448FDF7C3FCBB681B6871
S315200049F05B78012B12D10B4B009340F22C730D4A9E
S31520004A000A4905201FF036FE08E0F523FB7301E076
S31520004A10FA23FB73BB68FA7B1A7100E000BF1037DC
S31520004A20BD4680BD8CD70220ECDA022064D7022056
S31520004A3074DC022008DB02203C8A032080B586B085
S31520004A4002AF78607B68FB60FB681B685B68002BA5
S31520004A506ED0FB681B7C002B07D0FB689B68FA682E
S31520004A601268526812681A6006E0FB689B68FA684A
S31520004A701268526852681A60FB6800221A71FB6835
S31520004A801B681B7803F0F003102B21D0202B44D178
S31520004A90FB681B7C002B07D0FB68DB68FA68126872
S31520004AA05268528A1A8046E0FB681B685B681B7C4A
S31520004AB003F00403002B03D1FB68F5221A713AE0B8
S31520004AC0FB68DB68FA6812685268928A1A8032E0BC
S31520004AD0FB681B7C002B0FD1FB681B685B681B7D6A
S31520004AE0002B05D0FB681B685B681B7D012B03D15F
S31520004AF0FB68F5221A711EE0FB68DA68FB681B7CEE
S31520004B00002B04D0FB681B685B68DB8A03E0FB682C
S31520004B101B685B681B8B13800DE0094B009340F2EA
S31520004B207D73084A084905201FF0A4FD00BF02E056
S31520004B30FB68F5221A7100BF1037BD4680BD00BF45
S31520004B408CD7022088DC022064D7022080B586B06C
S31520004B5002AF78607B68FB60FB681B685B78FB7242
S31520004B60FB681B685B68002B6FD0FB681B681B7893
S31520004B7003F0F003102B68D1FB681B7A032B02D0BD
S31520004B80FB7A022B61D0FB7A032B03D1FB68F5223B
S31520004B901A715FE0FB7A012B03D1FB68FB221A71A5
S31520004BA058E0FB681B7A03F00103002B04D0FB6856
S31520004BB01B681846FEF7ECFEFB681B681B6A002B79
S31520004BC008D0264B009340F2BD73254A254905207F
S31520004BD01FF050FDFB681B6804225A70FB681B6897
S31520004BE0FA681A62FB681B6800211846FEF74DFF1B
S31520004BF00346002B2DD0FB681B685B78042B08D05E
S31520004C00164B009340F2C273174A164905201FF02F
S31520004C1031FD1648FDF7BCFBFB681B680C330021F1
S31520004C201846FDF70DFB1148FDF7A3FBFB681B6833
S31520004C305B78002B0DD0094B009340F2C6730A4ACD
S31520004C40084905201FF016FD03E0FB68F5221A71BE
S31520004C5000E000BF1037BD4680BD00BF8CD70220C4
S31520004C60ECDA022064D7022008DB02203C8A0320EB
S31520004C7080B400AF00BFBD465DF8047B704780B4AA
S31520004C8000AF00BFBD465DF8047B704780B485B099
S31520004C9000AF78607B68FB60FB68002B02DBFB685B
S31520004CA0032B01DD002303E0FB681B01034A1344A9
S31520004CB018461437BD465DF8047B70472428032028
S31520004CC080B582B000AF78607868FFF7DFFF0346D3
S31520004CD018460837BD4680BD80B584B000AF7860E1
S31520004CE07868FFF7D3FFF860FB6818461037BD4693
S31520004CF080BD80B584B000AF78607868FFF7C6FFC6
S31520004D00F860FB6818461037BD4680BD80B584B074
S31520004D1000AF78607868FFF7DFFFF860FB68002B4C
S31520004D2005D0FB681B68002B01D0FB6800E0002340
S31520004D3018461037BD4680BD80B584B000AF786078
S31520004D407868FFF7E3FFF860FB68002B04D1054B7A
S31520004D5009221A60002300E0FB6818461037BD467A
S31520004D6080BD00BF348A032080B586B002AF78604C
S31520004D7039600023FB6054E0FDF737FBB8602D4A0D
S31520004D80FB681B0113441B68002B44D1294AFB688E
S31520004D901B0113447A681A60B868FDF735FB254A6B
S31520004DA0FB681B011344043300221A60214AFB6866
S31520004DB01B0113440E331B78002B08D01E4B009387
S31520004DC040F20E231D4A1E4905201FF053FC194AA6
S31520004DD0FB681B011344083300221A807B681B786A
S31520004DE003F0F003102B02D13B68002B01D00123E6
S31520004DF000E0002399B20F4AFB681B0113440A33D3
S31520004E000A461A800B4AFB681B0113440C33002206
S31520004E101A80FB680AE0B868FDF7F6FAFB680133EA
S31520004E20FB60FB68032BA7DD4FF0FF3318461037D6
S31520004E30BD4680BD24280320E8DC0220A0DC022019
S31520004E40C0DC022080B485B000AFF860B9607A601B
S31520004E503B603B68FA6852681A60FB6800225A6019
S31520004E60FB681A687B681A60FB6800221A600123B7
S31520004E7018461437BD465DF8047B704780B584B06C
S31520004E8000AFF860B9607A607B681B68002B0DD094
S31520004E90FB68002B05D07B681B68184604F074FB62
S31520004EA004E07B681B681846FDF756FEBB68002B9E
S31520004EB002D0B86803F010F900BF1037BD4680BD98
S31520004EC080B586B000AF78603960FDF78EFA7861DC
S31520004ED007F1080307F10C0239687868FFF7B2FF7B
S31520004EE038617869FDF790FA3B69002B06D0FB689C
S31520004EF007F1080219463868FFF7C0FF00BF1837C8
S31520004F00BD4680BD90B59BB002AFF860B9607A60AF
S31520004F100023FB84F868FFF70FFFB865BB6D002BF5
S31520004F2002D14FF0FF33FCE0BB6D1B6807F12C026A
S31520004F301146184603F042FA034687F8573097F988
S31520004F405730002B2CD0BB6D1B681B7803F0F00369
S31520004F50102B08D05F233B653B6D002B1DD0734A79
S31520004F603B6D136019E097F9573013F10F0F08D1F5
S31520004F701623FB64FB6C002B0FD06C4AFB6C136072
S31520004F800BE097F957301846FDF7A0FFB864BB6CC5
S31520004F90002B02D0654ABB6C13604FF0FF33C0E094
S31520004FA0FB6A002B08D1624B009340F28B23614AA7
S31520004FB0614905201FF05EFBFB6A01211846FFF7B9
S31520004FC0D3FE78647B6CB3F1FF3F0ED1FB6A1846A3
S31520004FD003F082F817233B643B6C002B02D0534A24
S31520004FE03B6C13604FF0FF339BE07B6C002B02DBA6
S31520004FF07B6C032B08DD4E4B00934FF425734F4AF1
S315200050004D4905201FF036FB7B6C1B014C4A13448F
S31520005010FB63FDF7EAF9B863FB6A9B691BB2DB43C6
S315200050201BB2FB65FB6A7A6C9A61B86BFDF7ECF9EB
S31520005030FB6A5B6A002B12D04248FDF79AF908E01A
S31520005040FB6D013BFB65FB6A5B6AF86A0022002167
S315200050509847FB6D002BF3DC3A48FDF799F9BB68BE
S31520005060002B55D07B68002B52D0F86A07F1260218
S3152000507007F12801002303F04AF8034687F8573042
S3152000508097F95730002B16D0FB6A184603F024F800
S315200050900121F86BFFF714FF97F957301846FDF7F3
S315200050A015FF78637B6B002B02D0204A7B6B136045
S315200050B04FF0FF3335E007F1140310221A7007F181
S315200050C0140302225A7007F11404FB8C184608F0C8
S315200050D0B7FC0346638007F11403BA6A5A6007F1E6
S315200050E01403083308220021184627F0DBF87B68D2
S315200050F01B683A7D934203D93B7D1A467B681A602A
S315200051007B681A6807F114031946B86826F0CCFFA5
S3152000511000233B633B6B002B02D0044A3B6B13609E
S315200051207B6C18466437BD4690BD00BF348A032089
S31520005130E8DC022010DD0220C0DC022020DD022077
S31520005140242803203C8A032080B58CB002AFF86067
S31520005150B9607A60F868FFF7EFFD78627B6A002B0A
S3152000516002D14FF0FF3353E07B68102B08D1BB6888
S315200051705B78022B04D1BB6803F00303002B16D007
S31520005180254B00934FF43973244A254905201FF0F7
S3152000519071FA6FF00F00FDF799FE78617B69002B9D
S315200051A002D0204A7B6913604FF0FF3330E0BB68A2
S315200051B05B683B61BB685B88184608F041FC034688
S315200051C07B847B6A1B687A8C07F11001184602F0F3
S315200051D0F7FF034687F8213097F92130002B0ED0B0
S315200051E097F921301846FDF771FEB861BB69002B8F
S315200051F002D00C4ABB6913604FF0FF3308E000234E
S31520005200FB61FB69002B02D0064AFB691360002371
S3152000521018462837BD4680BDE8DC022038DD02204E
S31520005220C0DC0220348A032080B588B002AF7860C3
S3152000523000237B617868FFF77FFD38613B69002B8F
S3152000524002D14FF0FF333BE03B691B68002B0BD0AC
S315200052503B691B681B7803F0F003102B0CBF01235E
S315200052600023DBB27B610CE03B695B68002B08D036
S31520005270154B00934FF44573144A154905201FF02A
S31520005280F9F93B691B68184602F002FF0346FB73D7
S3152000529097F90F30002B0ED097F90F301846FDF7EF
S315200052A015FEB860BB68002B02D00A4ABB681360A3
S315200052B04FF0FF3304E079693869FFF701FE0023D8
S315200052C018461837BD4680BDE8DC022054DD022092
S315200052D0C0DC0220348A032080B58EB002AFF8608D
S315200052E0B9607A60F868FFF727FDB862BB6A002BC1
S315200052F002D14FF0FF3364E0BB685B78002B08D106
S31520005300BB6A1B68184602F0FFFF034687F82F305A
S315200053103BE07B68102B0CD1BB685B78002B03D05D
S31520005320BB685B78022B04D1BB6803F00303002B18
S3152000533016D0264B009340F24933254A25490520AD
S315200053401FF098F96FF00F00FDF7C0FD38623B6A39
S31520005350002B02D0204A3B6A13604FF0FF3330E027
S31520005360BB685B687B61BB685B88184608F068FB96
S315200053700346FB84BB6A1B68FA8C07F114011846A6
S3152000538002F088FF034687F82F3097F92F30002B3D
S315200053900ED097F92F301846FDF798FDB861BB69F6
S315200053A0002B02D00C4ABB6913604FF0FF3308E094
S315200053B00023FB61FB69002B02D0074AFB691360BF
S315200053C0002318463037BD4680BD00BFE8DC0220EA
S315200053D06CDD0220C0DC0220348A032080B588B030
S315200053E000AF786039607868FFF7A6FCF861FB6942
S315200053F0002B02D14FF0FF333EE03B68FE2B03DC4F
S315200054003B6823EAE37300E0FF233B60FB691B68EC
S315200054103A68D2B21146184602F0A2FF0346FB763E
S3152000542097F91B30002B1ED0FB691B681B7803F0F5
S31520005430F003102B08D05F237B617B69002B0FD0F4
S315200054400F4A7B6913600BE097F91B301846FDF76E
S315200054503DFD38613B69002B02D0094A3B69136048
S315200054604FF0FF3308E00023FB60FB68002B02D0DF
S31520005470034AFB681360002318462037BD4680BDCB
S31520005480348A032080B58EB002AFF860B9607A60A6
S315200054903B60082387F82F300023BB627B68002BF4
S315200054A001DB7B6801E06FF000437B62FB68002B29
S315200054B008D1784B009340F29E33774A77490520EE
S315200054C01FF0D8F8FB681B681B7803F0F003102B3D
S315200054D008D0704B009340F29F33714A6F490520E4
S315200054E01FF0C8F83B6803F00803002B05D097F897
S315200054F02F3043F0040387F82F30FB685B68002BBE
